{"contracts/Play2EarnX.sol":{"PlayToEarnX":{"abi":[{"inputs":[{"internalType":"uint256","name":"_pct","type":"uint256"}],"stateMutability":"nonpayable","type":"constructor"},{"anonymous":false,"inputs":[{"indexed":true,"internalType":"address","name":"owner","type":"address"},{"indexed":true,"internalType":"address","name":"spender","type":"address"},{"indexed":false,"internalType":"uint256","name":"value","type":"uint256"}],"name":"Approval","type":"event"},{"anonymous":false,"inputs":[{"indexed":true,"internalType":"address","name":"previousOwner","type":"address"},{"indexed":true,"internalType":"address","name":"newOwner","type":"address"}],"name":"OwnershipTransferred","type":"event"},{"anonymous":false,"inputs":[{"indexed":true,"internalType":"address","name":"from","type":"address"},{"indexed":true,"internalType":"address","name":"to","type":"address"},{"indexed":false,"internalType":"uint256","name":"value","type":"uint256"}],"name":"Transfer","type":"event"},{"inputs":[{"internalType":"uint256","name":"gameId","type":"uint256"},{"internalType":"uint256","name":"index","type":"uint256"}],"name":"acceptInvitation","outputs":[],"stateMutability":"payable","type":"function"},{"inputs":[{"internalType":"address","name":"owner","type":"address"},{"internalType":"address","name":"spender","type":"address"}],"name":"allowance","outputs":[{"internalType":"uint256","name":"","type":"uint256"}],"stateMutability":"view","type":"function"},{"inputs":[{"internalType":"address","name":"spender","type":"address"},{"internalType":"uint256","name":"amount","type":"uint256"}],"name":"approve","outputs":[{"internalType":"bool","name":"","type":"bool"}],"stateMutability":"nonpayable","type":"function"},{"inputs":[{"internalType":"address","name":"account","type":"address"}],"name":"balanceOf","outputs":[{"internalType":"uint256","name":"","type":"uint256"}],"stateMutability":"view","type":"function"},{"inputs":[{"internalType":"string","name":"title","type":"string"},{"internalType":"string","name":"description","type":"string"},{"internalType":"uint256","name":"participants","type":"uint256"},{"internalType":"uint256","name":"numberOfWinners","type":"uint256"},{"internalType":"uint256","name":"startDate","type":"uint256"},{"internalType":"uint256","name":"endDate","type":"uint256"}],"name":"createGame","outputs":[],"stateMutability":"payable","type":"function"},{"inputs":[],"name":"decimals","outputs":[{"internalType":"uint8","name":"","type":"uint8"}],"stateMutability":"view","type":"function"},{"inputs":[{"internalType":"address","name":"spender","type":"address"},{"internalType":"uint256","name":"subtractedValue","type":"uint256"}],"name":"decreaseAllowance","outputs":[{"internalType":"bool","name":"","type":"bool"}],"stateMutability":"nonpayable","type":"function"},{"inputs":[{"internalType":"uint256","name":"gameId","type":"uint256"}],"name":"deleteGame","outputs":[],"stateMutability":"nonpayable","type":"function"},{"inputs":[{"internalType":"uint256","name":"gameId","type":"uint256"}],"name":"getGame","outputs":[{"components":[{"internalType":"uint256","name":"id","type":"uint256"},{"internalType":"string","name":"title","type":"string"},{"internalType":"string","name":"description","type":"string"},{"internalType":"address","name":"owner","type":"address"},{"internalType":"uint256","name":"participants","type":"uint256"},{"internalType":"uint256","name":"numberOfWinners","type":"uint256"},{"internalType":"uint256","name":"acceptees","type":"uint256"},{"internalType":"uint256","name":"stake","type":"uint256"},{"internalType":"uint256","name":"startDate","type":"uint256"},{"internalType":"uint256","name":"endDate","type":"uint256"},{"internalType":"uint256","name":"timestamp","type":"uint256"},{"internalType":"bool","name":"deleted","type":"bool"},{"internalType":"bool","name":"paidOut","type":"bool"}],"internalType":"struct PlayToEarnX.GameStruct","name":"","type":"tuple"}],"stateMutability":"view","type":"function"},{"inputs":[],"name":"getGames","outputs":[{"components":[{"internalType":"uint256","name":"id","type":"uint256"},{"internalType":"string","name":"title","type":"string"},{"internalType":"string","name":"description","type":"string"},{"internalType":"address","name":"owner","type":"address"},{"internalType":"uint256","name":"participants","type":"uint256"},{"internalType":"uint256","name":"numberOfWinners","type":"uint256"},{"internalType":"uint256","name":"acceptees","type":"uint256"},{"internalType":"uint256","name":"stake","type":"uint256"},{"internalType":"uint256","name":"startDate","type":"uint256"},{"internalType":"uint256","name":"endDate","type":"uint256"},{"internalType":"uint256","name":"timestamp","type":"uint256"},{"internalType":"bool","name":"deleted","type":"bool"},{"internalType":"bool","name":"paidOut","type":"bool"}],"internalType":"struct PlayToEarnX.GameStruct[]","name":"Games","type":"tuple[]"}],"stateMutability":"view","type":"function"},{"inputs":[{"internalType":"uint256","name":"gameId","type":"uint256"}],"name":"getInvitations","outputs":[{"components":[{"internalType":"uint256","name":"id","type":"uint256"},{"internalType":"uint256","name":"gameId","type":"uint256"},{"internalType":"address","name":"player","type":"address"},{"internalType":"uint256","name":"score","type":"uint256"},{"internalType":"uint256","name":"prize","type":"uint256"},{"internalType":"bool","name":"played","type":"bool"}],"internalType":"struct PlayToEarnX.ScoreStruct[]","name":"","type":"tuple[]"}],"stateMutability":"view","type":"function"},{"inputs":[],"name":"getMyGames","outputs":[{"components":[{"internalType":"uint256","name":"id","type":"uint256"},{"internalType":"string","name":"title","type":"string"},{"internalType":"string","name":"description","type":"string"},{"internalType":"address","name":"owner","type":"address"},{"internalType":"uint256","name":"participants","type":"uint256"},{"internalType":"uint256","name":"numberOfWinners","type":"uint256"},{"internalType":"uint256","name":"acceptees","type":"uint256"},{"internalType":"uint256","name":"stake","type":"uint256"},{"internalType":"uint256","name":"startDate","type":"uint256"},{"internalType":"uint256","name":"endDate","type":"uint256"},{"internalType":"uint256","name":"timestamp","type":"uint256"},{"internalType":"bool","name":"deleted","type":"bool"},{"internalType":"bool","name":"paidOut","type":"bool"}],"internalType":"struct PlayToEarnX.GameStruct[]","name":"Games","type":"tuple[]"}],"stateMutability":"view","type":"function"},{"inputs":[],"name":"getMyInvitations","outputs":[{"components":[{"internalType":"uint256","name":"id","type":"uint256"},{"internalType":"string","name":"title","type":"string"},{"internalType":"uint256","name":"gameId","type":"uint256"},{"internalType":"address","name":"receiver","type":"address"},{"internalType":"address","name":"sender","type":"address"},{"internalType":"bool","name":"responded","type":"bool"},{"internalType":"bool","name":"accepted","type":"bool"},{"internalType":"uint256","name":"stake","type":"uint256"},{"internalType":"uint256","name":"timestamp","type":"uint256"}],"internalType":"struct PlayToEarnX.InvitationStruct[]","name":"Invitations","type":"tuple[]"}],"stateMutability":"view","type":"function"},{"inputs":[],"name":"getPaidOutGames","outputs":[{"components":[{"internalType":"uint256","name":"id","type":"uint256"},{"internalType":"string","name":"title","type":"string"},{"internalType":"string","name":"description","type":"string"},{"internalType":"address","name":"owner","type":"address"},{"internalType":"uint256","name":"participants","type":"uint256"},{"internalType":"uint256","name":"numberOfWinners","type":"uint256"},{"internalType":"uint256","name":"acceptees","type":"uint256"},{"internalType":"uint256","name":"stake","type":"uint256"},{"internalType":"uint256","name":"startDate","type":"uint256"},{"internalType":"uint256","name":"endDate","type":"uint256"},{"internalType":"uint256","name":"timestamp","type":"uint256"},{"internalType":"bool","name":"deleted","type":"bool"},{"internalType":"bool","name":"paidOut","type":"bool"}],"internalType":"struct PlayToEarnX.GameStruct[]","name":"Games","type":"tuple[]"}],"stateMutability":"view","type":"function"},{"inputs":[{"internalType":"uint256","name":"gameId","type":"uint256"}],"name":"getScores","outputs":[{"components":[{"internalType":"uint256","name":"id","type":"uint256"},{"internalType":"string","name":"title","type":"string"},{"internalType":"uint256","name":"gameId","type":"uint256"},{"internalType":"address","name":"receiver","type":"address"},{"internalType":"address","name":"sender","type":"address"},{"internalType":"bool","name":"responded","type":"bool"},{"internalType":"bool","name":"accepted","type":"bool"},{"internalType":"uint256","name":"stake","type":"uint256"},{"internalType":"uint256","name":"timestamp","type":"uint256"}],"internalType":"struct PlayToEarnX.InvitationStruct[]","name":"","type":"tuple[]"}],"stateMutability":"view","type":"function"},{"inputs":[{"internalType":"address","name":"spender","type":"address"},{"internalType":"uint256","name":"addedValue","type":"uint256"}],"name":"increaseAllowance","outputs":[{"internalType":"bool","name":"","type":"bool"}],"stateMutability":"nonpayable","type":"function"},{"inputs":[{"internalType":"address","name":"receiver","type":"address"},{"internalType":"uint256","name":"gameId","type":"uint256"}],"name":"invitePlayer","outputs":[],"stateMutability":"nonpayable","type":"function"},{"inputs":[],"name":"name","outputs":[{"internalType":"string","name":"","type":"string"}],"stateMutability":"view","type":"function"},{"inputs":[],"name":"owner","outputs":[{"internalType":"address","name":"","type":"address"}],"stateMutability":"view","type":"function"},{"inputs":[{"internalType":"uint256","name":"gameId","type":"uint256"}],"name":"payOut","outputs":[],"stateMutability":"nonpayable","type":"function"},{"inputs":[{"internalType":"uint256","name":"gameId","type":"uint256"},{"internalType":"uint256","name":"index","type":"uint256"},{"internalType":"uint256","name":"score","type":"uint256"}],"name":"playGame","outputs":[],"stateMutability":"nonpayable","type":"function"},{"inputs":[{"internalType":"uint256","name":"gameId","type":"uint256"},{"internalType":"uint256","name":"index","type":"uint256"}],"name":"rejectInvitation","outputs":[],"stateMutability":"payable","type":"function"},{"inputs":[],"name":"renounceOwnership","outputs":[],"stateMutability":"nonpayable","type":"function"},{"inputs":[{"internalType":"uint256","name":"_pct","type":"uint256"}],"name":"setFeePercent","outputs":[],"stateMutability":"nonpayable","type":"function"},{"inputs":[],"name":"symbol","outputs":[{"internalType":"string","name":"","type":"string"}],"stateMutability":"view","type":"function"},{"inputs":[],"name":"totalSupply","outputs":[{"internalType":"uint256","name":"","type":"uint256"}],"stateMutability":"view","type":"function"},{"inputs":[{"internalType":"address","name":"to","type":"address"},{"internalType":"uint256","name":"amount","type":"uint256"}],"name":"transfer","outputs":[{"internalType":"bool","name":"","type":"bool"}],"stateMutability":"nonpayable","type":"function"},{"inputs":[{"internalType":"address","name":"from","type":"address"},{"internalType":"address","name":"to","type":"address"},{"internalType":"uint256","name":"amount","type":"uint256"}],"name":"transferFrom","outputs":[{"internalType":"bool","name":"","type":"bool"}],"stateMutability":"nonpayable","type":"function"},{"inputs":[{"internalType":"address","name":"newOwner","type":"address"}],"name":"transferOwnership","outputs":[],"stateMutability":"nonpayable","type":"function"}],"evm":{"bytecode":{"linkReferences":{},"object":"60806040523480156200001157600080fd5b50604051620041d4380380620041d483398101604081905262000034916200010d565b60405180604001604052806009815260200168283630bc9922b0b93760b91b8152506040518060400160405280600381526020016250324560e81b8152506200008c62000086620000b960201b60201c565b620000bd565b6001805560056200009e8382620001cc565b506006620000ad8282620001cc565b505050600b5562000298565b3390565b600080546001600160a01b038381166001600160a01b0319831681178455604051919092169283917f8be0079c531659141344cd1fd0a4f28419497f9722a3daafe3b4186f6b6457e09190a35050565b6000602082840312156200012057600080fd5b5051919050565b634e487b7160e01b600052604160045260246000fd5b600181811c908216806200015257607f821691505b6020821081036200017357634e487b7160e01b600052602260045260246000fd5b50919050565b601f821115620001c757600081815260208120601f850160051c81016020861015620001a25750805b601f850160051c820191505b81811015620001c357828155600101620001ae565b5050505b505050565b81516001600160401b03811115620001e857620001e862000127565b6200020081620001f984546200013d565b8462000179565b602080601f8311600181146200023857600084156200021f5750858301515b600019600386901b1c1916600185901b178555620001c3565b600085815260208120601f198616915b82811015620002695788860151825594840194600190910190840162000248565b5085821015620002885787850151600019600388901b60f8161c191681555b5050505050600190811b01905550565b613f2c80620002a86000396000f3fe6080604052600436106101c25760003560e01c8063715018a6116100f7578063a09621c711610095578063c04c594711610064578063c04c5947146104f3578063da333ca614610508578063dd62ed3e14610528578063f2fde38b1461054857600080fd5b8063a09621c714610459578063a2f77bcc14610486578063a457c2d7146104b3578063a9059cbb146104d357600080fd5b8063872ff923116100d1578063872ff923146103f25780638da5cb5b1461040757806390d559a71461042f57806395d89b411461044457600080fd5b8063715018a6146103aa5780637a2f2136146103bf5780637ce3489b146103d257600080fd5b806323b872dd11610164578063395093511161013e578063395093511461032157806339bd3bbb146103415780635d12ace41461035457806370a082311461037457600080fd5b806323b872dd146102c5578063248a55a1146102e5578063313ce5671461030557600080fd5b8063095ea7b3116101a0578063095ea7b31461024157806318160ddd146102715780631eb4a1e5146102905780632246fe0b146102a557600080fd5b80630210d751146101c757806304527d90146101f257806306fdde031461021f575b600080fd5b3480156101d357600080fd5b506101dc610568565b6040516101e99190613857565b60405180910390f35b3480156101fe57600080fd5b5061021261020d3660046138b9565b610880565b6040516101e991906138d2565b34801561022b57600080fd5b506102346109f7565b6040516101e991906139ae565b34801561024d57600080fd5b5061026161025c3660046139dd565b610a89565b60405190151581526020016101e9565b34801561027d57600080fd5b506004545b6040519081526020016101e9565b6102a361029e366004613aaa565b610aa3565b005b3480156102b157600080fd5b506102a36102c03660046139dd565b610ef6565b3480156102d157600080fd5b506102616102e0366004613b31565b6111e2565b3480156102f157600080fd5b506102a36103003660046138b9565b611206565b34801561031157600080fd5b50604051601281526020016101e9565b34801561032d57600080fd5b5061026161033c3660046139dd565b6113ea565b6102a361034f366004613b6d565b61140c565b34801561036057600080fd5b506102a361036f366004613b8f565b6114e7565b34801561038057600080fd5b5061028261038f366004613bbb565b6001600160a01b031660009081526002602052604090205490565b3480156103b657600080fd5b506102a36116d6565b6102a36103cd366004613b6d565b6116ea565b3480156103de57600080fd5b506102a36103ed3660046138b9565b611906565b3480156103fe57600080fd5b506101dc611983565b34801561041357600080fd5b506000546040516001600160a01b0390911681526020016101e9565b34801561043b57600080fd5b50610212611c8f565b34801561045057600080fd5b50610234611f29565b34801561046557600080fd5b506104796104743660046138b9565b611f38565b6040516101e99190613bd6565b34801561049257600080fd5b506104a66104a13660046138b9565b611fe3565b6040516101e99190613c59565b3480156104bf57600080fd5b506102616104ce3660046139dd565b6121bd565b3480156104df57600080fd5b506102616104ee3660046139dd565b612238565b3480156104ff57600080fd5b506101dc612246565b34801561051457600080fd5b506102a36105233660046138b9565b612553565b34801561053457600080fd5b50610282610543366004613c6c565b612b85565b34801561055457600080fd5b506102a3610563366004613bbb565b612bb0565b6060600060015b60075481116105d8576000818152600d60205260409020600b015460ff161580156105b357506000818152600d60205260409020600301546001600160a01b031633145b156105c657816105c281613cb5565b9250505b806105d081613cb5565b91505061056f565b508067ffffffffffffffff8111156105f2576105f2613a07565b60405190808252806020026020018201604052801561062b57816020015b610618613629565b8152602001906001900390816106105790505b509150600060015b600754811161087a576000818152600d60205260409020600b015460ff1615801561067757506000818152600d60205260409020600301546001600160a01b031633145b1561086857600d6000828152602001908152602001600020604051806101a0016040529081600082015481526020016001820180546106b590613cce565b80601f01602080910402602001604051908101604052809291908181526020018280546106e190613cce565b801561072e5780601f106107035761010080835404028352916020019161072e565b820191906000526020600020905b81548152906001019060200180831161071157829003601f168201915b5050505050815260200160028201805461074790613cce565b80601f016020809104026020016040519081016040528092919081815260200182805461077390613cce565b80156107c05780601f10610795576101008083540402835291602001916107c0565b820191906000526020600020905b8154815290600101906020018083116107a357829003601f168201915b505050918352505060038201546001600160a01b03166020820152600482015460408201526005820154606082015260068201546080820152600782015460a0820152600882015460c0820152600982015460e0820152600a82015461010080830191909152600b9092015460ff8082161515610120840152929004909116151561014090910152845185908490811061085c5761085c613d08565b60200260200101819052505b8061087281613cb5565b915050610633565b50505090565b606060126000838152602001908152602001600020805480602002602001604051908101604052809291908181526020016000905b828210156109ec578382906000526020600020906007020160405180610120016040529081600082015481526020016001820180546108f390613cce565b80601f016020809104026020016040519081016040528092919081815260200182805461091f90613cce565b801561096c5780601f106109415761010080835404028352916020019161096c565b820191906000526020600020905b81548152906001019060200180831161094f57829003601f168201915b5050509183525050600282015460208083019190915260038301546001600160a01b0390811660408401526004840154908116606084015260ff600160a01b8204811615156080850152600160a81b90910416151560a0830152600583015460c083015260069092015460e09091015290825260019290920191016108b5565b505050509050919050565b606060058054610a0690613cce565b80601f0160208091040260200160405190810160405280929190818152602001828054610a3290613cce565b8015610a7f5780601f10610a5457610100808354040283529160200191610a7f565b820191906000526020600020905b815481529060010190602001808311610a6257829003601f168201915b5050505050905090565b600033610a97818585612c26565b60019150505b92915050565b60003411610af85760405162461bcd60e51b815260206004820152601c60248201527f5374616b65206d7573742062652067726561746572207468616e20300000000060448201526064015b60405180910390fd5b60018411610b485760405162461bcd60e51b815260206004820152601c60248201527f5374616b65206d7573742062652067726561746572207468616e2031000000006044820152606401610aef565b6000865111610b915760405162461bcd60e51b81526020600482015260156024820152745469746c652063616e6e6f7420626520656d70747960581b6044820152606401610aef565b6000855111610be25760405162461bcd60e51b815260206004820152601b60248201527f4465736372697074696f6e2063616e6e6f7420626520656d70747900000000006044820152606401610aef565b60008211610c3c5760405162461bcd60e51b815260206004820152602160248201527f53746172742064617465206d7573742062652067726561746572207468616e206044820152600360fc1b6064820152608401610aef565b818111610c9c5760405162461bcd60e51b815260206004820152602860248201527f456e642064617465206d7573742062652067726561746572207468616e207374604482015267617274206461746560c01b6064820152608401610aef565b60008311610cec5760405162461bcd60e51b815260206004820152601d60248201527f4e756d626572206f662077696e6e6572732063616e6e6f7420626520300000006044820152606401610aef565b610cfa600780546001019055565b610d02613629565b600754815260208101879052604081018690526080810185905260a08101849052610100810183905261012081018290523460e0820152336060820152610d47612d4a565b61014082015280516000908152600d6020908152604090912082518155908201518291906001820190610d7a9082613d6c565b5060408201516002820190610d8f9082613d6c565b5060608201516003820180546001600160a01b0319166001600160a01b039092169190911790556080820151600482015560a0820151600582015560c0820151600682015560e082015160078201556101008083015160088301556101208301516009830155610140830151600a830155610160830151600b90920180546101809094015161ffff1990941692151561ff001916929092179215150291909117905580516000908152600c60205260409020805460ff191660011790558051610e5790612d69565b610e9d5760405162461bcd60e51b81526020600482015260176024820152762330b4b632b2103a379031b932b0ba3290383630bcb2b960491b6044820152606401610aef565b8051610ea890612e50565b610eed5760405162461bcd60e51b81526020600482015260166024820152754661696c656420746f206372656174652073636f726560501b6044820152606401610aef565b50505050505050565b6000818152600c602052604090205460ff16610f245760405162461bcd60e51b8152600401610aef90613e2c565b6000818152600d60205260409020600481015460069091015410610f7c5760405162461bcd60e51b815260206004820152600f60248201526e4f7574206f6620636170616369747960881b6044820152606401610aef565b60008181526010602090815260408083206001600160a01b038616845290915290205460ff1615610fef5760405162461bcd60e51b815260206004820152601760248201527f506c6179657220616c72656164792061636365707465640000000000000000006044820152606401610aef565b610ffd600980546001019055565b61100561369e565b600954815260408082018390526000838152600d60205220600101805461102b90613cce565b80601f016020809104026020016040519081016040528092919081815260200182805461105790613cce565b80156110a45780601f10611079576101008083540402835291602001916110a4565b820191906000526020600020905b81548152906001019060200180831161108757829003601f168201915b505050505060208201526001600160a01b03831660608201523360808201526110cb612d4a565b6101008201526000828152600d6020908152604080832060079081015460e0860152858452601183528184206001600160a01b03881685528352818420805460ff19166001908117909155868552601284529184208054808401825590855293839020855194909102019283559083015183929182019061114c9082613d6c565b506040820151600282015560608201516003820180546001600160a01b0319166001600160a01b03928316179055608083015160048301805460a086015160c0870151939094166001600160a81b031990911617600160a01b931515939093029290921760ff60a81b1916600160a81b9115159190910217905560e0820151600582015561010090910151600690910155505050565b6000336111f0858285612ef4565b6111fb858585612f6e565b506001949350505050565b6000818152600c602052604090205460ff166112345760405162461bcd60e51b8152600401610aef90613e2c565b6000818152600d60205260409020600301546001600160a01b0316331461126d5760405162461bcd60e51b8152600401610aef90613e54565b6000818152600d60205260409020600601546001146112ce5760405162461bcd60e51b815260206004820152601c60248201527f5061727469636970616e747320616c726561647920696e2067616d65000000006044820152606401610aef565b6000818152600e602052604090208054806112eb576112eb613e81565b600082815260208082206003600019909401938402018281556001810183905560020180546001600160a01b031916905591909255828252600f90526040902080548061133a5761133a613e81565b60008281526020808220600660001990940193840201828155600181018390556002810180546001600160a01b03191690556003810183905560048101839055600501805460ff1990811690915592909355838152601083526040808220338084529085528183208054909416909355848252600d90935291909120600701546113c49190613119565b6000908152600d602052604081206006810191909155600b01805460ff19166001179055565b600033610a978185856113fd8383612b85565b6114079190613e97565b612c26565b6000828152600c602052604090205460ff1661143a5760405162461bcd60e51b8152600401610aef90613e2c565b600082815260126020526040902080543391908390811061145d5761145d613d08565b60009182526020909120600360079092020101546001600160a01b0316146114975760405162461bcd60e51b8152600401610aef90613e54565b6000828152601260205260409020805460019190839081106114bb576114bb613d08565b906000526020600020906007020160040160146101000a81548160ff0219169083151502179055505050565b6000838152600c602052604090205460ff166115155760405162461bcd60e51b8152600401610aef90613e2c565b6000838152600d602052604090206005810154600690910154116115705760405162461bcd60e51b81526020600482015260126024820152714e6f7420656e6f75676820706c617965727360701b6044820152606401610aef565b6000838152600f6020526040902080543391908490811061159357611593613d08565b60009182526020909120600260069092020101546001600160a01b0316146115cd5760405162461bcd60e51b8152600401610aef90613e54565b6000838152600f602052604090208054839081106115ed576115ed613d08565b600091825260209091206005600690920201015460ff16156116515760405162461bcd60e51b815260206004820152601960248201527f53636f726520697320616c7265616479207265636f72646564000000000000006044820152606401610aef565b6000838152600f6020526040902080548291908490811061167457611674613d08565b9060005260206000209060060201600301819055506001600f600085815260200190815260200160002083815481106116af576116af613d08565b60009182526020909120600690910201600501805460ff1916911515919091179055505050565b6116de6131b3565b6116e8600061320d565b565b6000828152600c602052604090205460ff166117185760405162461bcd60e51b8152600401610aef90613e2c565b6000828152600d602052604090206007015434101561176e5760405162461bcd60e51b8152602060048201526012602482015271125b9cdd599998da595b9d08185b5bdd5b9d60721b6044820152606401610aef565b600082815260126020526040902080543391908390811061179157611791613d08565b60009182526020909120600360079092020101546001600160a01b0316146117cb5760405162461bcd60e51b8152600401610aef90613e54565b6117d482612d69565b61181a5760405162461bcd60e51b81526020600482015260176024820152762330b4b632b2103a379031b932b0ba3290383630bcb2b960491b6044820152606401610aef565b61182382612e50565b6118685760405162461bcd60e51b81526020600482015260166024820152754661696c656420746f206372656174652073636f726560501b6044820152606401610aef565b60008281526012602052604090208054600191908390811061188c5761188c613d08565b906000526020600020906007020160040160146101000a81548160ff02191690831515021790555060016012600084815260200190815260200160002082815481106118da576118da613d08565b906000526020600020906007020160040160156101000a81548160ff0219169083151502179055505050565b61190e6131b3565b60008111801561191f5750600a8111155b61197e5760405162461bcd60e51b815260206004820152602a60248201527f4665652070657263656e74206d75737420626520696e207468652072616e67656044820152690206f662031202d2031360b41b6064820152608401610aef565b600b55565b6060600060015b60075481116119f0576000818152600d60205260409020600b015460ff161580156119cb57506000818152600d60205260409020600b0154610100900460ff165b156119de57816119da81613cb5565b9250505b806119e881613cb5565b91505061198a565b508067ffffffffffffffff811115611a0a57611a0a613a07565b604051908082528060200260200182016040528015611a4357816020015b611a30613629565b815260200190600190039081611a285790505b509150600060015b600754811161087a576000818152600d60205260409020600b015460ff16158015611a8c57506000818152600d60205260409020600b0154610100900460ff165b15611c7d57600d6000828152602001908152602001600020604051806101a001604052908160008201548152602001600182018054611aca90613cce565b80601f0160208091040260200160405190810160405280929190818152602001828054611af690613cce565b8015611b435780601f10611b1857610100808354040283529160200191611b43565b820191906000526020600020905b815481529060010190602001808311611b2657829003601f168201915b50505050508152602001600282018054611b5c90613cce565b80601f0160208091040260200160405190810160405280929190818152602001828054611b8890613cce565b8015611bd55780601f10611baa57610100808354040283529160200191611bd5565b820191906000526020600020905b815481529060010190602001808311611bb857829003601f168201915b505050918352505060038201546001600160a01b03166020820152600482015460408201526005820154606082015260068201546080820152600782015460a0820152600882015460c0820152600982015460e0820152600a82015461010080830191909152600b9092015460ff80821615156101208401529290049091161515610140909101528451859084908110611c7157611c71613d08565b60200260200101819052505b80611c8781613cb5565b915050611a4b565b6060600060015b6007548111611ce157600081815260116020908152604080832033845290915290205460ff1615611ccf5781611ccb81613cb5565b9250505b80611cd981613cb5565b915050611c96565b508067ffffffffffffffff811115611cfb57611cfb613a07565b604051908082528060200260200182016040528015611d3457816020015b611d2161369e565b815260200190600190039081611d195790505b509150600060015b600754811161087a57600081815260116020908152604080832033845290915290205460ff1615611f175760005b600082815260126020526040902054811015611f15576000828152601260205260409020805482908110611da057611da0613d08565b90600052602060002090600702016040518061012001604052908160008201548152602001600182018054611dd490613cce565b80601f0160208091040260200160405190810160405280929190818152602001828054611e0090613cce565b8015611e4d5780601f10611e2257610100808354040283529160200191611e4d565b820191906000526020600020905b815481529060010190602001808311611e3057829003601f168201915b50505091835250506002820154602082015260038201546001600160a01b0390811660408301526004830154908116606083015260ff600160a01b8204811615156080840152600160a81b90910416151560a0820152600582015460c082015260069091015460e0909101528551869085908110611ecd57611ecd613d08565b602002602001018190525080858480611ee590613cb5565b955081518110611ef757611ef7613d08565b60209081029190910101515280611f0d81613cb5565b915050611d6a565b505b80611f2181613cb5565b915050611d3c565b606060068054610a0690613cce565b6060600f6000838152602001908152602001600020805480602002602001604051908101604052809291908181526020016000905b828210156109ec5760008481526020908190206040805160c08101825260068602909201805483526001808201548486015260028201546001600160a01b03169284019290925260038101546060840152600481015460808401526005015460ff16151560a08301529083529092019101611f6d565b611feb613629565b600d6000838152602001908152602001600020604051806101a00160405290816000820154815260200160018201805461202490613cce565b80601f016020809104026020016040519081016040528092919081815260200182805461205090613cce565b801561209d5780601f106120725761010080835404028352916020019161209d565b820191906000526020600020905b81548152906001019060200180831161208057829003601f168201915b505050505081526020016002820180546120b690613cce565b80601f01602080910402602001604051908101604052809291908181526020018280546120e290613cce565b801561212f5780601f106121045761010080835404028352916020019161212f565b820191906000526020600020905b81548152906001019060200180831161211257829003601f168201915b505050918352505060038201546001600160a01b03166020820152600482015460408201526005820154606082015260068201546080820152600782015460a0820152600882015460c0820152600982015460e0820152600a82015461010080830191909152600b9092015460ff808216151561012084015292900490911615156101409091015292915050565b600033816121cb8286612b85565b90508381101561222b5760405162461bcd60e51b815260206004820152602560248201527f45524332303a2064656372656173656420616c6c6f77616e63652062656c6f77604482015264207a65726f60d81b6064820152608401610aef565b6111fb8286868403612c26565b600033610a97818585612f6e565b6060600060015b60075481116122b4576000818152600d60205260409020600b015460ff1615801561228f57506000818152600d60205260409020600b0154610100900460ff16155b156122a2578161229e81613cb5565b9250505b806122ac81613cb5565b91505061224d565b508067ffffffffffffffff8111156122ce576122ce613a07565b60405190808252806020026020018201604052801561230757816020015b6122f4613629565b8152602001906001900390816122ec5790505b509150600060015b600754811161087a576000818152600d60205260409020600b015460ff1615801561235057506000818152600d60205260409020600b0154610100900460ff165b1561254157600d6000828152602001908152602001600020604051806101a00160405290816000820154815260200160018201805461238e90613cce565b80601f01602080910402602001604051908101604052809291908181526020018280546123ba90613cce565b80156124075780601f106123dc57610100808354040283529160200191612407565b820191906000526020600020905b8154815290600101906020018083116123ea57829003601f168201915b5050505050815260200160028201805461242090613cce565b80601f016020809104026020016040519081016040528092919081815260200182805461244c90613cce565b80156124995780601f1061246e57610100808354040283529160200191612499565b820191906000526020600020905b81548152906001019060200180831161247c57829003601f168201915b505050918352505060038201546001600160a01b03166020820152600482015460408201526005820154606082015260068201546080820152600782015460a0820152600882015460c0820152600982015460e0820152600a82015461010080830191909152600b9092015460ff8082161515610120840152929004909116151561014090910152845185908490811061253557612535613d08565b60200260200101819052505b8061254b81613cb5565b91505061230f565b61255b61325d565b6000818152600c602052604090205460ff166125af5760405162461bcd60e51b815260206004820152601360248201527211d85b5948191bd95cc81b9bdd08195e1a5cdd606a1b6044820152606401610aef565b6000818152600d60205260409020600901546125c9612d4a565b116126165760405162461bcd60e51b815260206004820152601860248201527f47616d65206973207374696c6c20696e2073657373696f6e00000000000000006044820152606401610aef565b6000818152600d60205260409020600b0154610100900460ff161561267d5760405162461bcd60e51b815260206004820152601860248201527f47616d6520697320616c72656164792070616964206f757400000000000000006044820152606401610aef565b6000600d6000838152602001908152602001600020604051806101a0016040529081600082015481526020016001820180546126b890613cce565b80601f01602080910402602001604051908101604052809291908181526020018280546126e490613cce565b80156127315780601f1061270657610100808354040283529160200191612731565b820191906000526020600020905b81548152906001019060200180831161271457829003601f168201915b5050505050815260200160028201805461274a90613cce565b80601f016020809104026020016040519081016040528092919081815260200182805461277690613cce565b80156127c35780601f10612798576101008083540402835291602001916127c3565b820191906000526020600020905b8154815290600101906020018083116127a657829003601f168201915b505050918352505060038201546001600160a01b03166020820152600482015460408201526005820154606082015260068201546080820152600782015460a0820152600882015460c080830191909152600983015460e080840191909152600a84015461010080850191909152600b9094015460ff80821615156101208601529490049093161515610140909201919091528201519082015191925060009161286c916132b6565b90506000612890606461288a600b54856132b690919063ffffffff16565b906132c9565b9050600061289f8260026132c9565b905060006128b7826128b186866132d5565b906132d5565b90506128d46128ce6000546001600160a01b031690565b84613119565b6128e2856060015183613119565b6000868152600f602052604081205467ffffffffffffffff81111561290957612909613a07565b60405190808252806020026020018201604052801561294257816020015b61292f613700565b8152602001906001900390816129275790505b506000888152600f6020908152604080832080548251818502810185019093528083529495506129f2949193909284015b828210156129e95760008481526020908190206040805160c08101825260068602909201805483526001808201548486015260028201546001600160a01b03169284019290925260038101546060840152600481015460808401526005015460ff16151560a08301529083529092019101612973565b505050506132e1565b905060005b8660a00151811015612b53576000612a1c8860a00151856132c990919063ffffffff16565b9050612a45838381518110612a3357612a33613d08565b60200260200101516040015182613119565b612a6c838381518110612a5a57612a5a613d08565b60200260200101516040015182613556565b60005b60008a8152600f6020526040902054811015612b3e5760008a8152600f60205260409020805482908110612aa557612aa5613d08565b600091825260209091206002600690920201015484516001600160a01b0390911690859085908110612ad957612ad9613d08565b6020026020010151604001516001600160a01b031603612b2c5760008a8152600f60205260409020805483919083908110612b1657612b16613d08565b9060005260206000209060060201600401819055505b80612b3681613cb5565b915050612a6f565b50508080612b4b90613cb5565b9150506129f7565b5050506000858152600d60205260409020600b01805461ff00191661010017905550612b829250613617915050565b50565b6001600160a01b03918216600090815260036020908152604080832093909416825291909152205490565b612bb86131b3565b6001600160a01b038116612c1d5760405162461bcd60e51b815260206004820152602660248201527f4f776e61626c653a206e6577206f776e657220697320746865207a65726f206160448201526564647265737360d01b6064820152608401610aef565b612b828161320d565b6001600160a01b038316612c885760405162461bcd60e51b8152602060048201526024808201527f45524332303a20617070726f76652066726f6d20746865207a65726f206164646044820152637265737360e01b6064820152608401610aef565b6001600160a01b038216612ce95760405162461bcd60e51b815260206004820152602260248201527f45524332303a20617070726f766520746f20746865207a65726f206164647265604482015261737360f01b6064820152608401610aef565b6001600160a01b0383811660008181526003602090815260408083209487168084529482529182902085905590518481527f8c5be1e5ebec7d5bd14f71427d1e84f3dd0314c0f7b2291e5b200ac8c7c3b925910160405180910390a3505050565b6000612d58426103e8613eaa565b612d64906103e8613e97565b905090565b6000612d79600880546001019055565b60006040518060600160405280612d8f60085490565b815260208082018690523360409283018190526000878152600e83528381208054600180820183559183528483208751600390920201908155868501518183015586860151600290910180546001600160a01b0319166001600160a01b0390921691909117905588825260108452848220928252918352838120805460ff1916909217909155868152600d909152908120600601805492935090612e3283613cb5565b9091555050600a54612e44903461361d565b600a5550600192915050565b6000612e5a613700565b6000838152600f602081815260408084208054808752868401988952339287019283529383526001808501825590855291909320845160069093020191825594518186015590516002820180546001600160a01b0319166001600160a01b03909216919091179055606082015160038201556080820151600482015560a0909101516005909101805460ff19169115159190911790555090565b6000612f008484612b85565b90506000198114612f685781811015612f5b5760405162461bcd60e51b815260206004820152601d60248201527f45524332303a20696e73756666696369656e7420616c6c6f77616e63650000006044820152606401610aef565b612f688484848403612c26565b50505050565b6001600160a01b038316612fd25760405162461bcd60e51b815260206004820152602560248201527f45524332303a207472616e736665722066726f6d20746865207a65726f206164604482015264647265737360d81b6064820152608401610aef565b6001600160a01b0382166130345760405162461bcd60e51b815260206004820152602360248201527f45524332303a207472616e7366657220746f20746865207a65726f206164647260448201526265737360e81b6064820152608401610aef565b6001600160a01b038316600090815260026020526040902054818110156130ac5760405162461bcd60e51b815260206004820152602660248201527f45524332303a207472616e7366657220616d6f756e7420657863656564732062604482015265616c616e636560d01b6064820152608401610aef565b6001600160a01b0380851660008181526002602052604080822086860390559286168082529083902080548601905591517fddf252ad1be2c89b69c2b068fc378daa952ba7f163c4a11628f55a4df523b3ef9061310c9086815260200190565b60405180910390a3612f68565b6000826001600160a01b03168260405160006040518083038185875af1925050503d8060008114613166576040519150601f19603f3d011682016040523d82523d6000602084013e61316b565b606091505b50509050806131ae5760405162461bcd60e51b815260206004820152600f60248201526e151c985b9cd9995c8819985a5b1959608a1b6044820152606401610aef565b505050565b6000546001600160a01b031633146116e85760405162461bcd60e51b815260206004820181905260248201527f4f776e61626c653a2063616c6c6572206973206e6f7420746865206f776e65726044820152606401610aef565b600080546001600160a01b038381166001600160a01b0319831681178455604051919092169283917f8be0079c531659141344cd1fd0a4f28419497f9722a3daafe3b4186f6b6457e09190a35050565b6002600154036132af5760405162461bcd60e51b815260206004820152601f60248201527f5265656e7472616e637947756172643a207265656e7472616e742063616c6c006044820152606401610aef565b6002600155565b60006132c28284613eaa565b9392505050565b60006132c28284613ec1565b60006132c28284613ee3565b805160609060005b6132f4600183613ee3565b81101561354e5760005b600161330a8285613ee3565b6133149190613ee3565b81101561353b5784818151811061332d5761332d613d08565b602002602001015160a00151801561336957508461334c826001613e97565b8151811061335c5761335c613d08565b602002602001015160a001515b1561344a578461337a826001613e97565b8151811061338a5761338a613d08565b6020026020010151606001518582815181106133a8576133a8613d08565b60200260200101516060015111156134455760008582815181106133ce576133ce613d08565b60200260200101519050858260016133e69190613e97565b815181106133f6576133f6613d08565b602002602001015186838151811061341057613410613d08565b60209081029190910101528086613428846001613e97565b8151811061343857613438613d08565b6020026020010181905250505b613529565b84818151811061345c5761345c613d08565b602002602001015160a0015115801561349957508461347c826001613e97565b8151811061348c5761348c613d08565b602002602001015160a001515b156135295760008582815181106134b2576134b2613d08565b60200260200101519050858260016134ca9190613e97565b815181106134da576134da613d08565b60200260200101518683815181106134f4576134f4613d08565b6020908102919091010152808661350c846001613e97565b8151811061351c5761351c613d08565b6020026020010181905250505b8061353381613cb5565b9150506132fe565b508061354681613cb5565b9150506132e9565b509192915050565b6001600160a01b0382166135ac5760405162461bcd60e51b815260206004820152601f60248201527f45524332303a206d696e7420746f20746865207a65726f2061646472657373006044820152606401610aef565b80600460008282546135be9190613e97565b90915550506001600160a01b0382166000818152600260209081526040808320805486019055518481527fddf252ad1be2c89b69c2b068fc378daa952ba7f163c4a11628f55a4df523b3ef910160405180910390a35050565b60018055565b60006132c28284613e97565b604051806101a0016040528060008152602001606081526020016060815260200160006001600160a01b03168152602001600081526020016000815260200160008152602001600081526020016000815260200160008152602001600081526020016000151581526020016000151581525090565b60405180610120016040528060008152602001606081526020016000815260200160006001600160a01b0316815260200160006001600160a01b0316815260200160001515815260200160001515815260200160008152602001600081525090565b6040518060c00160405280600081526020016000815260200160006001600160a01b0316815260200160008152602001600081526020016000151581525090565b6000815180845260005b818110156137675760208185018101518683018201520161374b565b506000602082860101526020601f19601f83011685010191505092915050565b60006101a08251845260208301518160208601526137a782860182613741565b915050604083015184820360408601526137c18282613741565b91505060608301516137de60608601826001600160a01b03169052565b506080830151608085015260a083015160a085015260c083015160c085015260e083015160e08501526101008084015181860152506101208084015181860152506101408084015181860152506101608084015161383f8287018215159052565b50506101809283015115159390920192909252919050565b6000602080830181845280855180835260408601915060408160051b870101925083870160005b828110156138ac57603f1988860301845261389a858351613787565b9450928501929085019060010161387e565b5092979650505050505050565b6000602082840312156138cb57600080fd5b5035919050565b60006020808301818452808551808352604092508286019150828160051b87010184880160005b838110156139a057603f1989840301855281516101208151855288820151818a87015261392882870182613741565b915050878201518886015260608083015161394d828801826001600160a01b03169052565b50506080828101516001600160a01b03169086015260a08083015115159086015260c08083015115159086015260e0808301519086015261010091820151919094015293860193908601906001016138f9565b509098975050505050505050565b6020815260006132c26020830184613741565b80356001600160a01b03811681146139d857600080fd5b919050565b600080604083850312156139f057600080fd5b6139f9836139c1565b946020939093013593505050565b634e487b7160e01b600052604160045260246000fd5b600082601f830112613a2e57600080fd5b813567ffffffffffffffff80821115613a4957613a49613a07565b604051601f8301601f19908116603f01168101908282118183101715613a7157613a71613a07565b81604052838152866020858801011115613a8a57600080fd5b836020870160208301376000602085830101528094505050505092915050565b60008060008060008060c08789031215613ac357600080fd5b863567ffffffffffffffff80821115613adb57600080fd5b613ae78a838b01613a1d565b97506020890135915080821115613afd57600080fd5b50613b0a89828a01613a1d565b96999698505050506040850135946060810135946080820135945060a09091013592509050565b600080600060608486031215613b4657600080fd5b613b4f846139c1565b9250613b5d602085016139c1565b9150604084013590509250925092565b60008060408385031215613b8057600080fd5b50508035926020909101359150565b600080600060608486031215613ba457600080fd5b505081359360208301359350604090920135919050565b600060208284031215613bcd57600080fd5b6132c2826139c1565b602080825282518282018190526000919060409081850190868401855b82811015613c4c578151805185528681015187860152858101516001600160a01b031686860152606080820151908601526080808201519086015260a09081015115159085015260c09093019290850190600101613bf3565b5091979650505050505050565b6020815260006132c26020830184613787565b60008060408385031215613c7f57600080fd5b613c88836139c1565b9150613c96602084016139c1565b90509250929050565b634e487b7160e01b600052601160045260246000fd5b600060018201613cc757613cc7613c9f565b5060010190565b600181811c90821680613ce257607f821691505b602082108103613d0257634e487b7160e01b600052602260045260246000fd5b50919050565b634e487b7160e01b600052603260045260246000fd5b601f8211156131ae57600081815260208120601f850160051c81016020861015613d455750805b601f850160051c820191505b81811015613d6457828155600101613d51565b505050505050565b815167ffffffffffffffff811115613d8657613d86613a07565b613d9a81613d948454613cce565b84613d1e565b602080601f831160018114613dcf5760008415613db75750858301515b600019600386901b1c1916600185901b178555613d64565b600085815260208120601f198616915b82811015613dfe57888601518255948401946001909101908401613ddf565b5085821015613e1c5787850151600019600388901b60f8161c191681555b5050505050600190811b01905550565b6020808252600e908201526d11d85b59481b9bdd08199bdd5b9960921b604082015260600190565b602080825260139082015272556e617574686f72697a656420656e7469747960681b604082015260600190565b634e487b7160e01b600052603160045260246000fd5b80820180821115610a9d57610a9d613c9f565b8082028115828204841417610a9d57610a9d613c9f565b600082613ede57634e487b7160e01b600052601260045260246000fd5b500490565b81810381811115610a9d57610a9d613c9f56fea2646970667358221220857728c79aada5a83a5040d3562fb53c3456473ebfb4f5aa95808c2cd1613e0c64736f6c63430008110033","opcodes":"PUSH1 0x80 PUSH1 0x40 MSTORE CALLVALUE DUP1 ISZERO PUSH3 0x11 JUMPI PUSH1 0x0 DUP1 REVERT JUMPDEST POP PUSH1 0x40 MLOAD PUSH3 0x41D4 CODESIZE SUB DUP1 PUSH3 0x41D4 DUP4 CODECOPY DUP2 ADD PUSH1 0x40 DUP2 SWAP1 MSTORE PUSH3 0x34 SWAP2 PUSH3 0x10D JUMP JUMPDEST PUSH1 0x40 MLOAD DUP1 PUSH1 0x40 ADD PUSH1 0x40 MSTORE DUP1 PUSH1 0x9 DUP2 MSTORE PUSH1 0x20 ADD PUSH9 0x283630BC9922B0B937 PUSH1 0xB9 SHL DUP2 MSTORE POP PUSH1 0x40 MLOAD DUP1 PUSH1 0x40 ADD PUSH1 0x40 MSTORE DUP1 PUSH1 0x3 DUP2 MSTORE PUSH1 0x20 ADD PUSH3 0x503245 PUSH1 0xE8 SHL DUP2 MSTORE POP PUSH3 0x8C PUSH3 0x86 PUSH3 0xB9 PUSH1 0x20 SHL PUSH1 0x20 SHR JUMP JUMPDEST PUSH3 0xBD JUMP JUMPDEST PUSH1 0x1 DUP1 SSTORE PUSH1 0x5 PUSH3 0x9E DUP4 DUP3 PUSH3 0x1CC JUMP JUMPDEST POP PUSH1 0x6 PUSH3 0xAD DUP3 DUP3 PUSH3 0x1CC JUMP JUMPDEST POP POP POP PUSH1 0xB SSTORE PUSH3 0x298 JUMP JUMPDEST CALLER SWAP1 JUMP JUMPDEST PUSH1 0x0 DUP1 SLOAD PUSH1 0x1 PUSH1 0x1 PUSH1 0xA0 SHL SUB DUP4 DUP2 AND PUSH1 0x1 PUSH1 0x1 PUSH1 0xA0 SHL SUB NOT DUP4 AND DUP2 OR DUP5 SSTORE PUSH1 0x40 MLOAD SWAP2 SWAP1 SWAP3 AND SWAP3 DUP4 SWAP2 PUSH32 0x8BE0079C531659141344CD1FD0A4F28419497F9722A3DAAFE3B4186F6B6457E0 SWAP2 SWAP1 LOG3 POP POP JUMP JUMPDEST PUSH1 0x0 PUSH1 0x20 DUP3 DUP5 SUB SLT ISZERO PUSH3 0x120 JUMPI PUSH1 0x0 DUP1 REVERT JUMPDEST POP MLOAD SWAP2 SWAP1 POP JUMP JUMPDEST PUSH4 0x4E487B71 PUSH1 0xE0 SHL PUSH1 0x0 MSTORE PUSH1 0x41 PUSH1 0x4 MSTORE PUSH1 0x24 PUSH1 0x0 REVERT JUMPDEST PUSH1 0x1 DUP2 DUP2 SHR SWAP1 DUP3 AND DUP1 PUSH3 0x152 JUMPI PUSH1 0x7F DUP3 AND SWAP2 POP JUMPDEST PUSH1 0x20 DUP3 LT DUP2 SUB PUSH3 0x173 JUMPI PUSH4 0x4E487B71 PUSH1 0xE0 SHL PUSH1 0x0 MSTORE PUSH1 0x22 PUSH1 0x4 MSTORE PUSH1 0x24 PUSH1 0x0 REVERT JUMPDEST POP SWAP2 SWAP1 POP JUMP JUMPDEST PUSH1 0x1F DUP3 GT ISZERO PUSH3 0x1C7 JUMPI PUSH1 0x0 DUP2 DUP2 MSTORE PUSH1 0x20 DUP2 KECCAK256 PUSH1 0x1F DUP6 ADD PUSH1 0x5 SHR DUP2 ADD PUSH1 0x20 DUP7 LT ISZERO PUSH3 0x1A2 JUMPI POP DUP1 JUMPDEST PUSH1 0x1F DUP6 ADD PUSH1 0x5 SHR DUP3 ADD SWAP2 POP JUMPDEST DUP2 DUP2 LT ISZERO PUSH3 0x1C3 JUMPI DUP3 DUP2 SSTORE PUSH1 0x1 ADD PUSH3 0x1AE JUMP JUMPDEST POP POP POP JUMPDEST POP POP POP JUMP JUMPDEST DUP2 MLOAD PUSH1 0x1 PUSH1 0x1 PUSH1 0x40 SHL SUB DUP2 GT ISZERO PUSH3 0x1E8 JUMPI PUSH3 0x1E8 PUSH3 0x127 JUMP JUMPDEST PUSH3 0x200 DUP2 PUSH3 0x1F9 DUP5 SLOAD PUSH3 0x13D JUMP JUMPDEST DUP5 PUSH3 0x179 JUMP JUMPDEST PUSH1 0x20 DUP1 PUSH1 0x1F DUP4 GT PUSH1 0x1 DUP2 EQ PUSH3 0x238 JUMPI PUSH1 0x0 DUP5 ISZERO PUSH3 0x21F JUMPI POP DUP6 DUP4 ADD MLOAD JUMPDEST PUSH1 0x0 NOT PUSH1 0x3 DUP7 SWAP1 SHL SHR NOT AND PUSH1 0x1 DUP6 SWAP1 SHL OR DUP6 SSTORE PUSH3 0x1C3 JUMP JUMPDEST PUSH1 0x0 DUP6 DUP2 MSTORE PUSH1 0x20 DUP2 KECCAK256 PUSH1 0x1F NOT DUP7 AND SWAP2 JUMPDEST DUP3 DUP2 LT ISZERO PUSH3 0x269 JUMPI DUP9 DUP7 ADD MLOAD DUP3 SSTORE SWAP5 DUP5 ADD SWAP5 PUSH1 0x1 SWAP1 SWAP2 ADD SWAP1 DUP5 ADD PUSH3 0x248 JUMP JUMPDEST POP DUP6 DUP3 LT ISZERO PUSH3 0x288 JUMPI DUP8 DUP6 ADD MLOAD PUSH1 0x0 NOT PUSH1 0x3 DUP9 SWAP1 SHL PUSH1 0xF8 AND SHR NOT AND DUP2 SSTORE JUMPDEST POP POP POP POP POP PUSH1 0x1 SWAP1 DUP2 SHL ADD SWAP1 SSTORE POP JUMP JUMPDEST PUSH2 0x3F2C DUP1 PUSH3 0x2A8 PUSH1 0x0 CODECOPY PUSH1 0x0 RETURN INVALID PUSH1 0x80 PUSH1 0x40 MSTORE PUSH1 0x4 CALLDATASIZE LT PUSH2 0x1C2 JUMPI PUSH1 0x0 CALLDATALOAD PUSH1 0xE0 SHR DUP1 PUSH4 0x715018A6 GT PUSH2 0xF7 JUMPI DUP1 PUSH4 0xA09621C7 GT PUSH2 0x95 JUMPI DUP1 PUSH4 0xC04C5947 GT PUSH2 0x64 JUMPI DUP1 PUSH4 0xC04C5947 EQ PUSH2 0x4F3 JUMPI DUP1 PUSH4 0xDA333CA6 EQ PUSH2 0x508 JUMPI DUP1 PUSH4 0xDD62ED3E EQ PUSH2 0x528 JUMPI DUP1 PUSH4 0xF2FDE38B EQ PUSH2 0x548 JUMPI PUSH1 0x0 DUP1 REVERT JUMPDEST DUP1 PUSH4 0xA09621C7 EQ PUSH2 0x459 JUMPI DUP1 PUSH4 0xA2F77BCC EQ PUSH2 0x486 JUMPI DUP1 PUSH4 0xA457C2D7 EQ PUSH2 0x4B3 JUMPI DUP1 PUSH4 0xA9059CBB EQ PUSH2 0x4D3 JUMPI PUSH1 0x0 DUP1 REVERT JUMPDEST DUP1 PUSH4 0x872FF923 GT PUSH2 0xD1 JUMPI DUP1 PUSH4 0x872FF923 EQ PUSH2 0x3F2 JUMPI DUP1 PUSH4 0x8DA5CB5B EQ PUSH2 0x407 JUMPI DUP1 PUSH4 0x90D559A7 EQ PUSH2 0x42F JUMPI DUP1 PUSH4 0x95D89B41 EQ PUSH2 0x444 JUMPI PUSH1 0x0 DUP1 REVERT JUMPDEST DUP1 PUSH4 0x715018A6 EQ PUSH2 0x3AA JUMPI DUP1 PUSH4 0x7A2F2136 EQ PUSH2 0x3BF JUMPI DUP1 PUSH4 0x7CE3489B EQ PUSH2 0x3D2 JUMPI PUSH1 0x0 DUP1 REVERT JUMPDEST DUP1 PUSH4 0x23B872DD GT PUSH2 0x164 JUMPI DUP1 PUSH4 0x39509351 GT PUSH2 0x13E JUMPI DUP1 PUSH4 0x39509351 EQ PUSH2 0x321 JUMPI DUP1 PUSH4 0x39BD3BBB EQ PUSH2 0x341 JUMPI DUP1 PUSH4 0x5D12ACE4 EQ PUSH2 0x354 JUMPI DUP1 PUSH4 0x70A08231 EQ PUSH2 0x374 JUMPI PUSH1 0x0 DUP1 REVERT JUMPDEST DUP1 PUSH4 0x23B872DD EQ PUSH2 0x2C5 JUMPI DUP1 PUSH4 0x248A55A1 EQ PUSH2 0x2E5 JUMPI DUP1 PUSH4 0x313CE567 EQ PUSH2 0x305 JUMPI PUSH1 0x0 DUP1 REVERT JUMPDEST DUP1 PUSH4 0x95EA7B3 GT PUSH2 0x1A0 JUMPI DUP1 PUSH4 0x95EA7B3 EQ PUSH2 0x241 JUMPI DUP1 PUSH4 0x18160DDD EQ PUSH2 0x271 JUMPI DUP1 PUSH4 0x1EB4A1E5 EQ PUSH2 0x290 JUMPI DUP1 PUSH4 0x2246FE0B EQ PUSH2 0x2A5 JUMPI PUSH1 0x0 DUP1 REVERT JUMPDEST DUP1 PUSH4 0x210D751 EQ PUSH2 0x1C7 JUMPI DUP1 PUSH4 0x4527D90 EQ PUSH2 0x1F2 JUMPI DUP1 PUSH4 0x6FDDE03 EQ PUSH2 0x21F JUMPI JUMPDEST PUSH1 0x0 DUP1 REVERT JUMPDEST CALLVALUE DUP1 ISZERO PUSH2 0x1D3 JUMPI PUSH1 0x0 DUP1 REVERT JUMPDEST POP PUSH2 0x1DC PUSH2 0x568 JUMP JUMPDEST PUSH1 0x40 MLOAD PUSH2 0x1E9 SWAP2 SWAP1 PUSH2 0x3857 JUMP JUMPDEST PUSH1 0x40 MLOAD DUP1 SWAP2 SUB SWAP1 RETURN JUMPDEST CALLVALUE DUP1 ISZERO PUSH2 0x1FE JUMPI PUSH1 0x0 DUP1 REVERT JUMPDEST POP PUSH2 0x212 PUSH2 0x20D CALLDATASIZE PUSH1 0x4 PUSH2 0x38B9 JUMP JUMPDEST PUSH2 0x880 JUMP JUMPDEST PUSH1 0x40 MLOAD PUSH2 0x1E9 SWAP2 SWAP1 PUSH2 0x38D2 JUMP JUMPDEST CALLVALUE DUP1 ISZERO PUSH2 0x22B JUMPI PUSH1 0x0 DUP1 REVERT JUMPDEST POP PUSH2 0x234 PUSH2 0x9F7 JUMP JUMPDEST PUSH1 0x40 MLOAD PUSH2 0x1E9 SWAP2 SWAP1 PUSH2 0x39AE JUMP JUMPDEST CALLVALUE DUP1 ISZERO PUSH2 0x24D JUMPI PUSH1 0x0 DUP1 REVERT JUMPDEST POP PUSH2 0x261 PUSH2 0x25C CALLDATASIZE PUSH1 0x4 PUSH2 0x39DD JUMP JUMPDEST PUSH2 0xA89 JUMP JUMPDEST PUSH1 0x40 MLOAD SWAP1 ISZERO ISZERO DUP2 MSTORE PUSH1 0x20 ADD PUSH2 0x1E9 JUMP JUMPDEST CALLVALUE DUP1 ISZERO PUSH2 0x27D JUMPI PUSH1 0x0 DUP1 REVERT JUMPDEST POP PUSH1 0x4 SLOAD JUMPDEST PUSH1 0x40 MLOAD SWAP1 DUP2 MSTORE PUSH1 0x20 ADD PUSH2 0x1E9 JUMP JUMPDEST PUSH2 0x2A3 PUSH2 0x29E CALLDATASIZE PUSH1 0x4 PUSH2 0x3AAA JUMP JUMPDEST PUSH2 0xAA3 JUMP JUMPDEST STOP JUMPDEST CALLVALUE DUP1 ISZERO PUSH2 0x2B1 JUMPI PUSH1 0x0 DUP1 REVERT JUMPDEST POP PUSH2 0x2A3 PUSH2 0x2C0 CALLDATASIZE PUSH1 0x4 PUSH2 0x39DD JUMP JUMPDEST PUSH2 0xEF6 JUMP JUMPDEST CALLVALUE DUP1 ISZERO PUSH2 0x2D1 JUMPI PUSH1 0x0 DUP1 REVERT JUMPDEST POP PUSH2 0x261 PUSH2 0x2E0 CALLDATASIZE PUSH1 0x4 PUSH2 0x3B31 JUMP JUMPDEST PUSH2 0x11E2 JUMP JUMPDEST CALLVALUE DUP1 ISZERO PUSH2 0x2F1 JUMPI PUSH1 0x0 DUP1 REVERT JUMPDEST POP PUSH2 0x2A3 PUSH2 0x300 CALLDATASIZE PUSH1 0x4 PUSH2 0x38B9 JUMP JUMPDEST PUSH2 0x1206 JUMP JUMPDEST CALLVALUE DUP1 ISZERO PUSH2 0x311 JUMPI PUSH1 0x0 DUP1 REVERT JUMPDEST POP PUSH1 0x40 MLOAD PUSH1 0x12 DUP2 MSTORE PUSH1 0x20 ADD PUSH2 0x1E9 JUMP JUMPDEST CALLVALUE DUP1 ISZERO PUSH2 0x32D JUMPI PUSH1 0x0 DUP1 REVERT JUMPDEST POP PUSH2 0x261 PUSH2 0x33C CALLDATASIZE PUSH1 0x4 PUSH2 0x39DD JUMP JUMPDEST PUSH2 0x13EA JUMP JUMPDEST PUSH2 0x2A3 PUSH2 0x34F CALLDATASIZE PUSH1 0x4 PUSH2 0x3B6D JUMP JUMPDEST PUSH2 0x140C JUMP JUMPDEST CALLVALUE DUP1 ISZERO PUSH2 0x360 JUMPI PUSH1 0x0 DUP1 REVERT JUMPDEST POP PUSH2 0x2A3 PUSH2 0x36F CALLDATASIZE PUSH1 0x4 PUSH2 0x3B8F JUMP JUMPDEST PUSH2 0x14E7 JUMP JUMPDEST CALLVALUE DUP1 ISZERO PUSH2 0x380 JUMPI PUSH1 0x0 DUP1 REVERT JUMPDEST POP PUSH2 0x282 PUSH2 0x38F CALLDATASIZE PUSH1 0x4 PUSH2 0x3BBB JUMP JUMPDEST PUSH1 0x1 PUSH1 0x1 PUSH1 0xA0 SHL SUB AND PUSH1 0x0 SWAP1 DUP2 MSTORE PUSH1 0x2 PUSH1 0x20 MSTORE PUSH1 0x40 SWAP1 KECCAK256 SLOAD SWAP1 JUMP JUMPDEST CALLVALUE DUP1 ISZERO PUSH2 0x3B6 JUMPI PUSH1 0x0 DUP1 REVERT JUMPDEST POP PUSH2 0x2A3 PUSH2 0x16D6 JUMP JUMPDEST PUSH2 0x2A3 PUSH2 0x3CD CALLDATASIZE PUSH1 0x4 PUSH2 0x3B6D JUMP JUMPDEST PUSH2 0x16EA JUMP JUMPDEST CALLVALUE DUP1 ISZERO PUSH2 0x3DE JUMPI PUSH1 0x0 DUP1 REVERT JUMPDEST POP PUSH2 0x2A3 PUSH2 0x3ED CALLDATASIZE PUSH1 0x4 PUSH2 0x38B9 JUMP JUMPDEST PUSH2 0x1906 JUMP JUMPDEST CALLVALUE DUP1 ISZERO PUSH2 0x3FE JUMPI PUSH1 0x0 DUP1 REVERT JUMPDEST POP PUSH2 0x1DC PUSH2 0x1983 JUMP JUMPDEST CALLVALUE DUP1 ISZERO PUSH2 0x413 JUMPI PUSH1 0x0 DUP1 REVERT JUMPDEST POP PUSH1 0x0 SLOAD PUSH1 0x40 MLOAD PUSH1 0x1 PUSH1 0x1 PUSH1 0xA0 SHL SUB SWAP1 SWAP2 AND DUP2 MSTORE PUSH1 0x20 ADD PUSH2 0x1E9 JUMP JUMPDEST CALLVALUE DUP1 ISZERO PUSH2 0x43B JUMPI PUSH1 0x0 DUP1 REVERT JUMPDEST POP PUSH2 0x212 PUSH2 0x1C8F JUMP JUMPDEST CALLVALUE DUP1 ISZERO PUSH2 0x450 JUMPI PUSH1 0x0 DUP1 REVERT JUMPDEST POP PUSH2 0x234 PUSH2 0x1F29 JUMP JUMPDEST CALLVALUE DUP1 ISZERO PUSH2 0x465 JUMPI PUSH1 0x0 DUP1 REVERT JUMPDEST POP PUSH2 0x479 PUSH2 0x474 CALLDATASIZE PUSH1 0x4 PUSH2 0x38B9 JUMP JUMPDEST PUSH2 0x1F38 JUMP JUMPDEST PUSH1 0x40 MLOAD PUSH2 0x1E9 SWAP2 SWAP1 PUSH2 0x3BD6 JUMP JUMPDEST CALLVALUE DUP1 ISZERO PUSH2 0x492 JUMPI PUSH1 0x0 DUP1 REVERT JUMPDEST POP PUSH2 0x4A6 PUSH2 0x4A1 CALLDATASIZE PUSH1 0x4 PUSH2 0x38B9 JUMP JUMPDEST PUSH2 0x1FE3 JUMP JUMPDEST PUSH1 0x40 MLOAD PUSH2 0x1E9 SWAP2 SWAP1 PUSH2 0x3C59 JUMP JUMPDEST CALLVALUE DUP1 ISZERO PUSH2 0x4BF JUMPI PUSH1 0x0 DUP1 REVERT JUMPDEST POP PUSH2 0x261 PUSH2 0x4CE CALLDATASIZE PUSH1 0x4 PUSH2 0x39DD JUMP JUMPDEST PUSH2 0x21BD JUMP JUMPDEST CALLVALUE DUP1 ISZERO PUSH2 0x4DF JUMPI PUSH1 0x0 DUP1 REVERT JUMPDEST POP PUSH2 0x261 PUSH2 0x4EE CALLDATASIZE PUSH1 0x4 PUSH2 0x39DD JUMP JUMPDEST PUSH2 0x2238 JUMP JUMPDEST CALLVALUE DUP1 ISZERO PUSH2 0x4FF JUMPI PUSH1 0x0 DUP1 REVERT JUMPDEST POP PUSH2 0x1DC PUSH2 0x2246 JUMP JUMPDEST CALLVALUE DUP1 ISZERO PUSH2 0x514 JUMPI PUSH1 0x0 DUP1 REVERT JUMPDEST POP PUSH2 0x2A3 PUSH2 0x523 CALLDATASIZE PUSH1 0x4 PUSH2 0x38B9 JUMP JUMPDEST PUSH2 0x2553 JUMP JUMPDEST CALLVALUE DUP1 ISZERO PUSH2 0x534 JUMPI PUSH1 0x0 DUP1 REVERT JUMPDEST POP PUSH2 0x282 PUSH2 0x543 CALLDATASIZE PUSH1 0x4 PUSH2 0x3C6C JUMP JUMPDEST PUSH2 0x2B85 JUMP JUMPDEST CALLVALUE DUP1 ISZERO PUSH2 0x554 JUMPI PUSH1 0x0 DUP1 REVERT JUMPDEST POP PUSH2 0x2A3 PUSH2 0x563 CALLDATASIZE PUSH1 0x4 PUSH2 0x3BBB JUMP JUMPDEST PUSH2 0x2BB0 JUMP JUMPDEST PUSH1 0x60 PUSH1 0x0 PUSH1 0x1 JUMPDEST PUSH1 0x7 SLOAD DUP2 GT PUSH2 0x5D8 JUMPI PUSH1 0x0 DUP2 DUP2 MSTORE PUSH1 0xD PUSH1 0x20 MSTORE PUSH1 0x40 SWAP1 KECCAK256 PUSH1 0xB ADD SLOAD PUSH1 0xFF AND ISZERO DUP1 ISZERO PUSH2 0x5B3 JUMPI POP PUSH1 0x0 DUP2 DUP2 MSTORE PUSH1 0xD PUSH1 0x20 MSTORE PUSH1 0x40 SWAP1 KECCAK256 PUSH1 0x3 ADD SLOAD PUSH1 0x1 PUSH1 0x1 PUSH1 0xA0 SHL SUB AND CALLER EQ JUMPDEST ISZERO PUSH2 0x5C6 JUMPI DUP2 PUSH2 0x5C2 DUP2 PUSH2 0x3CB5 JUMP JUMPDEST SWAP3 POP POP JUMPDEST DUP1 PUSH2 0x5D0 DUP2 PUSH2 0x3CB5 JUMP JUMPDEST SWAP2 POP POP PUSH2 0x56F JUMP JUMPDEST POP DUP1 PUSH8 0xFFFFFFFFFFFFFFFF DUP2 GT ISZERO PUSH2 0x5F2 JUMPI PUSH2 0x5F2 PUSH2 0x3A07 JUMP JUMPDEST PUSH1 0x40 MLOAD SWAP1 DUP1 DUP3 MSTORE DUP1 PUSH1 0x20 MUL PUSH1 0x20 ADD DUP3 ADD PUSH1 0x40 MSTORE DUP1 ISZERO PUSH2 0x62B JUMPI DUP2 PUSH1 0x20 ADD JUMPDEST PUSH2 0x618 PUSH2 0x3629 JUMP JUMPDEST DUP2 MSTORE PUSH1 0x20 ADD SWAP1 PUSH1 0x1 SWAP1 SUB SWAP1 DUP2 PUSH2 0x610 JUMPI SWAP1 POP JUMPDEST POP SWAP2 POP PUSH1 0x0 PUSH1 0x1 JUMPDEST PUSH1 0x7 SLOAD DUP2 GT PUSH2 0x87A JUMPI PUSH1 0x0 DUP2 DUP2 MSTORE PUSH1 0xD PUSH1 0x20 MSTORE PUSH1 0x40 SWAP1 KECCAK256 PUSH1 0xB ADD SLOAD PUSH1 0xFF AND ISZERO DUP1 ISZERO PUSH2 0x677 JUMPI POP PUSH1 0x0 DUP2 DUP2 MSTORE PUSH1 0xD PUSH1 0x20 MSTORE PUSH1 0x40 SWAP1 KECCAK256 PUSH1 0x3 ADD SLOAD PUSH1 0x1 PUSH1 0x1 PUSH1 0xA0 SHL SUB AND CALLER EQ JUMPDEST ISZERO PUSH2 0x868 JUMPI PUSH1 0xD PUSH1 0x0 DUP3 DUP2 MSTORE PUSH1 0x20 ADD SWAP1 DUP2 MSTORE PUSH1 0x20 ADD PUSH1 0x0 KECCAK256 PUSH1 0x40 MLOAD DUP1 PUSH2 0x1A0 ADD PUSH1 0x40 MSTORE SWAP1 DUP2 PUSH1 0x0 DUP3 ADD SLOAD DUP2 MSTORE PUSH1 0x20 ADD PUSH1 0x1 DUP3 ADD DUP1 SLOAD PUSH2 0x6B5 SWAP1 PUSH2 0x3CCE JUMP JUMPDEST DUP1 PUSH1 0x1F ADD PUSH1 0x20 DUP1 SWAP2 DIV MUL PUSH1 0x20 ADD PUSH1 0x40 MLOAD SWAP1 DUP2 ADD PUSH1 0x40 MSTORE DUP1 SWAP3 SWAP2 SWAP1 DUP2 DUP2 MSTORE PUSH1 0x20 ADD DUP3 DUP1 SLOAD PUSH2 0x6E1 SWAP1 PUSH2 0x3CCE JUMP JUMPDEST DUP1 ISZERO PUSH2 0x72E JUMPI DUP1 PUSH1 0x1F LT PUSH2 0x703 JUMPI PUSH2 0x100 DUP1 DUP4 SLOAD DIV MUL DUP4 MSTORE SWAP2 PUSH1 0x20 ADD SWAP2 PUSH2 0x72E JUMP JUMPDEST DUP3 ADD SWAP2 SWAP1 PUSH1 0x0 MSTORE PUSH1 0x20 PUSH1 0x0 KECCAK256 SWAP1 JUMPDEST DUP2 SLOAD DUP2 MSTORE SWAP1 PUSH1 0x1 ADD SWAP1 PUSH1 0x20 ADD DUP1 DUP4 GT PUSH2 0x711 JUMPI DUP3 SWAP1 SUB PUSH1 0x1F AND DUP3 ADD SWAP2 JUMPDEST POP POP POP POP POP DUP2 MSTORE PUSH1 0x20 ADD PUSH1 0x2 DUP3 ADD DUP1 SLOAD PUSH2 0x747 SWAP1 PUSH2 0x3CCE JUMP JUMPDEST DUP1 PUSH1 0x1F ADD PUSH1 0x20 DUP1 SWAP2 DIV MUL PUSH1 0x20 ADD PUSH1 0x40 MLOAD SWAP1 DUP2 ADD PUSH1 0x40 MSTORE DUP1 SWAP3 SWAP2 SWAP1 DUP2 DUP2 MSTORE PUSH1 0x20 ADD DUP3 DUP1 SLOAD PUSH2 0x773 SWAP1 PUSH2 0x3CCE JUMP JUMPDEST DUP1 ISZERO PUSH2 0x7C0 JUMPI DUP1 PUSH1 0x1F LT PUSH2 0x795 JUMPI PUSH2 0x100 DUP1 DUP4 SLOAD DIV MUL DUP4 MSTORE SWAP2 PUSH1 0x20 ADD SWAP2 PUSH2 0x7C0 JUMP JUMPDEST DUP3 ADD SWAP2 SWAP1 PUSH1 0x0 MSTORE PUSH1 0x20 PUSH1 0x0 KECCAK256 SWAP1 JUMPDEST DUP2 SLOAD DUP2 MSTORE SWAP1 PUSH1 0x1 ADD SWAP1 PUSH1 0x20 ADD DUP1 DUP4 GT PUSH2 0x7A3 JUMPI DUP3 SWAP1 SUB PUSH1 0x1F AND DUP3 ADD SWAP2 JUMPDEST POP POP POP SWAP2 DUP4 MSTORE POP POP PUSH1 0x3 DUP3 ADD SLOAD PUSH1 0x1 PUSH1 0x1 PUSH1 0xA0 SHL SUB AND PUSH1 0x20 DUP3 ADD MSTORE PUSH1 0x4 DUP3 ADD SLOAD PUSH1 0x40 DUP3 ADD MSTORE PUSH1 0x5 DUP3 ADD SLOAD PUSH1 0x60 DUP3 ADD MSTORE PUSH1 0x6 DUP3 ADD SLOAD PUSH1 0x80 DUP3 ADD MSTORE PUSH1 0x7 DUP3 ADD SLOAD PUSH1 0xA0 DUP3 ADD MSTORE PUSH1 0x8 DUP3 ADD SLOAD PUSH1 0xC0 DUP3 ADD MSTORE PUSH1 0x9 DUP3 ADD SLOAD PUSH1 0xE0 DUP3 ADD MSTORE PUSH1 0xA DUP3 ADD SLOAD PUSH2 0x100 DUP1 DUP4 ADD SWAP2 SWAP1 SWAP2 MSTORE PUSH1 0xB SWAP1 SWAP3 ADD SLOAD PUSH1 0xFF DUP1 DUP3 AND ISZERO ISZERO PUSH2 0x120 DUP5 ADD MSTORE SWAP3 SWAP1 DIV SWAP1 SWAP2 AND ISZERO ISZERO PUSH2 0x140 SWAP1 SWAP2 ADD MSTORE DUP5 MLOAD DUP6 SWAP1 DUP5 SWAP1 DUP2 LT PUSH2 0x85C JUMPI PUSH2 0x85C PUSH2 0x3D08 JUMP JUMPDEST PUSH1 0x20 MUL PUSH1 0x20 ADD ADD DUP2 SWAP1 MSTORE POP JUMPDEST DUP1 PUSH2 0x872 DUP2 PUSH2 0x3CB5 JUMP JUMPDEST SWAP2 POP POP PUSH2 0x633 JUMP JUMPDEST POP POP POP SWAP1 JUMP JUMPDEST PUSH1 0x60 PUSH1 0x12 PUSH1 0x0 DUP4 DUP2 MSTORE PUSH1 0x20 ADD SWAP1 DUP2 MSTORE PUSH1 0x20 ADD PUSH1 0x0 KECCAK256 DUP1 SLOAD DUP1 PUSH1 0x20 MUL PUSH1 0x20 ADD PUSH1 0x40 MLOAD SWAP1 DUP2 ADD PUSH1 0x40 MSTORE DUP1 SWAP3 SWAP2 SWAP1 DUP2 DUP2 MSTORE PUSH1 0x20 ADD PUSH1 0x0 SWAP1 JUMPDEST DUP3 DUP3 LT ISZERO PUSH2 0x9EC JUMPI DUP4 DUP3 SWAP1 PUSH1 0x0 MSTORE PUSH1 0x20 PUSH1 0x0 KECCAK256 SWAP1 PUSH1 0x7 MUL ADD PUSH1 0x40 MLOAD DUP1 PUSH2 0x120 ADD PUSH1 0x40 MSTORE SWAP1 DUP2 PUSH1 0x0 DUP3 ADD SLOAD DUP2 MSTORE PUSH1 0x20 ADD PUSH1 0x1 DUP3 ADD DUP1 SLOAD PUSH2 0x8F3 SWAP1 PUSH2 0x3CCE JUMP JUMPDEST DUP1 PUSH1 0x1F ADD PUSH1 0x20 DUP1 SWAP2 DIV MUL PUSH1 0x20 ADD PUSH1 0x40 MLOAD SWAP1 DUP2 ADD PUSH1 0x40 MSTORE DUP1 SWAP3 SWAP2 SWAP1 DUP2 DUP2 MSTORE PUSH1 0x20 ADD DUP3 DUP1 SLOAD PUSH2 0x91F SWAP1 PUSH2 0x3CCE JUMP JUMPDEST DUP1 ISZERO PUSH2 0x96C JUMPI DUP1 PUSH1 0x1F LT PUSH2 0x941 JUMPI PUSH2 0x100 DUP1 DUP4 SLOAD DIV MUL DUP4 MSTORE SWAP2 PUSH1 0x20 ADD SWAP2 PUSH2 0x96C JUMP JUMPDEST DUP3 ADD SWAP2 SWAP1 PUSH1 0x0 MSTORE PUSH1 0x20 PUSH1 0x0 KECCAK256 SWAP1 JUMPDEST DUP2 SLOAD DUP2 MSTORE SWAP1 PUSH1 0x1 ADD SWAP1 PUSH1 0x20 ADD DUP1 DUP4 GT PUSH2 0x94F JUMPI DUP3 SWAP1 SUB PUSH1 0x1F AND DUP3 ADD SWAP2 JUMPDEST POP POP POP SWAP2 DUP4 MSTORE POP POP PUSH1 0x2 DUP3 ADD SLOAD PUSH1 0x20 DUP1 DUP4 ADD SWAP2 SWAP1 SWAP2 MSTORE PUSH1 0x3 DUP4 ADD SLOAD PUSH1 0x1 PUSH1 0x1 PUSH1 0xA0 SHL SUB SWAP1 DUP2 AND PUSH1 0x40 DUP5 ADD MSTORE PUSH1 0x4 DUP5 ADD SLOAD SWAP1 DUP2 AND PUSH1 0x60 DUP5 ADD MSTORE PUSH1 0xFF PUSH1 0x1 PUSH1 0xA0 SHL DUP3 DIV DUP2 AND ISZERO ISZERO PUSH1 0x80 DUP6 ADD MSTORE PUSH1 0x1 PUSH1 0xA8 SHL SWAP1 SWAP2 DIV AND ISZERO ISZERO PUSH1 0xA0 DUP4 ADD MSTORE PUSH1 0x5 DUP4 ADD SLOAD PUSH1 0xC0 DUP4 ADD MSTORE PUSH1 0x6 SWAP1 SWAP3 ADD SLOAD PUSH1 0xE0 SWAP1 SWAP2 ADD MSTORE SWAP1 DUP3 MSTORE PUSH1 0x1 SWAP3 SWAP1 SWAP3 ADD SWAP2 ADD PUSH2 0x8B5 JUMP JUMPDEST POP POP POP POP SWAP1 POP SWAP2 SWAP1 POP JUMP JUMPDEST PUSH1 0x60 PUSH1 0x5 DUP1 SLOAD PUSH2 0xA06 SWAP1 PUSH2 0x3CCE JUMP JUMPDEST DUP1 PUSH1 0x1F ADD PUSH1 0x20 DUP1 SWAP2 DIV MUL PUSH1 0x20 ADD PUSH1 0x40 MLOAD SWAP1 DUP2 ADD PUSH1 0x40 MSTORE DUP1 SWAP3 SWAP2 SWAP1 DUP2 DUP2 MSTORE PUSH1 0x20 ADD DUP3 DUP1 SLOAD PUSH2 0xA32 SWAP1 PUSH2 0x3CCE JUMP JUMPDEST DUP1 ISZERO PUSH2 0xA7F JUMPI DUP1 PUSH1 0x1F LT PUSH2 0xA54 JUMPI PUSH2 0x100 DUP1 DUP4 SLOAD DIV MUL DUP4 MSTORE SWAP2 PUSH1 0x20 ADD SWAP2 PUSH2 0xA7F JUMP JUMPDEST DUP3 ADD SWAP2 SWAP1 PUSH1 0x0 MSTORE PUSH1 0x20 PUSH1 0x0 KECCAK256 SWAP1 JUMPDEST DUP2 SLOAD DUP2 MSTORE SWAP1 PUSH1 0x1 ADD SWAP1 PUSH1 0x20 ADD DUP1 DUP4 GT PUSH2 0xA62 JUMPI DUP3 SWAP1 SUB PUSH1 0x1F AND DUP3 ADD SWAP2 JUMPDEST POP POP POP POP POP SWAP1 POP SWAP1 JUMP JUMPDEST PUSH1 0x0 CALLER PUSH2 0xA97 DUP2 DUP6 DUP6 PUSH2 0x2C26 JUMP JUMPDEST PUSH1 0x1 SWAP2 POP POP JUMPDEST SWAP3 SWAP2 POP POP JUMP JUMPDEST PUSH1 0x0 CALLVALUE GT PUSH2 0xAF8 JUMPI PUSH1 0x40 MLOAD PUSH3 0x461BCD PUSH1 0xE5 SHL DUP2 MSTORE PUSH1 0x20 PUSH1 0x4 DUP3 ADD MSTORE PUSH1 0x1C PUSH1 0x24 DUP3 ADD MSTORE PUSH32 0x5374616B65206D7573742062652067726561746572207468616E203000000000 PUSH1 0x44 DUP3 ADD MSTORE PUSH1 0x64 ADD JUMPDEST PUSH1 0x40 MLOAD DUP1 SWAP2 SUB SWAP1 REVERT JUMPDEST PUSH1 0x1 DUP5 GT PUSH2 0xB48 JUMPI PUSH1 0x40 MLOAD PUSH3 0x461BCD PUSH1 0xE5 SHL DUP2 MSTORE PUSH1 0x20 PUSH1 0x4 DUP3 ADD MSTORE PUSH1 0x1C PUSH1 0x24 DUP3 ADD MSTORE PUSH32 0x5374616B65206D7573742062652067726561746572207468616E203100000000 PUSH1 0x44 DUP3 ADD MSTORE PUSH1 0x64 ADD PUSH2 0xAEF JUMP JUMPDEST PUSH1 0x0 DUP7 MLOAD GT PUSH2 0xB91 JUMPI PUSH1 0x40 MLOAD PUSH3 0x461BCD PUSH1 0xE5 SHL DUP2 MSTORE PUSH1 0x20 PUSH1 0x4 DUP3 ADD MSTORE PUSH1 0x15 PUSH1 0x24 DUP3 ADD MSTORE PUSH21 0x5469746C652063616E6E6F7420626520656D707479 PUSH1 0x58 SHL PUSH1 0x44 DUP3 ADD MSTORE PUSH1 0x64 ADD PUSH2 0xAEF JUMP JUMPDEST PUSH1 0x0 DUP6 MLOAD GT PUSH2 0xBE2 JUMPI PUSH1 0x40 MLOAD PUSH3 0x461BCD PUSH1 0xE5 SHL DUP2 MSTORE PUSH1 0x20 PUSH1 0x4 DUP3 ADD MSTORE PUSH1 0x1B PUSH1 0x24 DUP3 ADD MSTORE PUSH32 0x4465736372697074696F6E2063616E6E6F7420626520656D7074790000000000 PUSH1 0x44 DUP3 ADD MSTORE PUSH1 0x64 ADD PUSH2 0xAEF JUMP JUMPDEST PUSH1 0x0 DUP3 GT PUSH2 0xC3C JUMPI PUSH1 0x40 MLOAD PUSH3 0x461BCD PUSH1 0xE5 SHL DUP2 MSTORE PUSH1 0x20 PUSH1 0x4 DUP3 ADD MSTORE PUSH1 0x21 PUSH1 0x24 DUP3 ADD MSTORE PUSH32 0x53746172742064617465206D7573742062652067726561746572207468616E20 PUSH1 0x44 DUP3 ADD MSTORE PUSH1 0x3 PUSH1 0xFC SHL PUSH1 0x64 DUP3 ADD MSTORE PUSH1 0x84 ADD PUSH2 0xAEF JUMP JUMPDEST DUP2 DUP2 GT PUSH2 0xC9C JUMPI PUSH1 0x40 MLOAD PUSH3 0x461BCD PUSH1 0xE5 SHL DUP2 MSTORE PUSH1 0x20 PUSH1 0x4 DUP3 ADD MSTORE PUSH1 0x28 PUSH1 0x24 DUP3 ADD MSTORE PUSH32 0x456E642064617465206D7573742062652067726561746572207468616E207374 PUSH1 0x44 DUP3 ADD MSTORE PUSH8 0x6172742064617465 PUSH1 0xC0 SHL PUSH1 0x64 DUP3 ADD MSTORE PUSH1 0x84 ADD PUSH2 0xAEF JUMP JUMPDEST PUSH1 0x0 DUP4 GT PUSH2 0xCEC JUMPI PUSH1 0x40 MLOAD PUSH3 0x461BCD PUSH1 0xE5 SHL DUP2 MSTORE PUSH1 0x20 PUSH1 0x4 DUP3 ADD MSTORE PUSH1 0x1D PUSH1 0x24 DUP3 ADD MSTORE PUSH32 0x4E756D626572206F662077696E6E6572732063616E6E6F742062652030000000 PUSH1 0x44 DUP3 ADD MSTORE PUSH1 0x64 ADD PUSH2 0xAEF JUMP JUMPDEST PUSH2 0xCFA PUSH1 0x7 DUP1 SLOAD PUSH1 0x1 ADD SWAP1 SSTORE JUMP JUMPDEST PUSH2 0xD02 PUSH2 0x3629 JUMP JUMPDEST PUSH1 0x7 SLOAD DUP2 MSTORE PUSH1 0x20 DUP2 ADD DUP8 SWAP1 MSTORE PUSH1 0x40 DUP2 ADD DUP7 SWAP1 MSTORE PUSH1 0x80 DUP2 ADD DUP6 SWAP1 MSTORE PUSH1 0xA0 DUP2 ADD DUP5 SWAP1 MSTORE PUSH2 0x100 DUP2 ADD DUP4 SWAP1 MSTORE PUSH2 0x120 DUP2 ADD DUP3 SWAP1 MSTORE CALLVALUE PUSH1 0xE0 DUP3 ADD MSTORE CALLER PUSH1 0x60 DUP3 ADD MSTORE PUSH2 0xD47 PUSH2 0x2D4A JUMP JUMPDEST PUSH2 0x140 DUP3 ADD MSTORE DUP1 MLOAD PUSH1 0x0 SWAP1 DUP2 MSTORE PUSH1 0xD PUSH1 0x20 SWAP1 DUP2 MSTORE PUSH1 0x40 SWAP1 SWAP2 KECCAK256 DUP3 MLOAD DUP2 SSTORE SWAP1 DUP3 ADD MLOAD DUP3 SWAP2 SWAP1 PUSH1 0x1 DUP3 ADD SWAP1 PUSH2 0xD7A SWAP1 DUP3 PUSH2 0x3D6C JUMP JUMPDEST POP PUSH1 0x40 DUP3 ADD MLOAD PUSH1 0x2 DUP3 ADD SWAP1 PUSH2 0xD8F SWAP1 DUP3 PUSH2 0x3D6C JUMP JUMPDEST POP PUSH1 0x60 DUP3 ADD MLOAD PUSH1 0x3 DUP3 ADD DUP1 SLOAD PUSH1 0x1 PUSH1 0x1 PUSH1 0xA0 SHL SUB NOT AND PUSH1 0x1 PUSH1 0x1 PUSH1 0xA0 SHL SUB SWAP1 SWAP3 AND SWAP2 SWAP1 SWAP2 OR SWAP1 SSTORE PUSH1 0x80 DUP3 ADD MLOAD PUSH1 0x4 DUP3 ADD SSTORE PUSH1 0xA0 DUP3 ADD MLOAD PUSH1 0x5 DUP3 ADD SSTORE PUSH1 0xC0 DUP3 ADD MLOAD PUSH1 0x6 DUP3 ADD SSTORE PUSH1 0xE0 DUP3 ADD MLOAD PUSH1 0x7 DUP3 ADD SSTORE PUSH2 0x100 DUP1 DUP4 ADD MLOAD PUSH1 0x8 DUP4 ADD SSTORE PUSH2 0x120 DUP4 ADD MLOAD PUSH1 0x9 DUP4 ADD SSTORE PUSH2 0x140 DUP4 ADD MLOAD PUSH1 0xA DUP4 ADD SSTORE PUSH2 0x160 DUP4 ADD MLOAD PUSH1 0xB SWAP1 SWAP3 ADD DUP1 SLOAD PUSH2 0x180 SWAP1 SWAP5 ADD MLOAD PUSH2 0xFFFF NOT SWAP1 SWAP5 AND SWAP3 ISZERO ISZERO PUSH2 0xFF00 NOT AND SWAP3 SWAP1 SWAP3 OR SWAP3 ISZERO ISZERO MUL SWAP2 SWAP1 SWAP2 OR SWAP1 SSTORE DUP1 MLOAD PUSH1 0x0 SWAP1 DUP2 MSTORE PUSH1 0xC PUSH1 0x20 MSTORE PUSH1 0x40 SWAP1 KECCAK256 DUP1 SLOAD PUSH1 0xFF NOT AND PUSH1 0x1 OR SWAP1 SSTORE DUP1 MLOAD PUSH2 0xE57 SWAP1 PUSH2 0x2D69 JUMP JUMPDEST PUSH2 0xE9D JUMPI PUSH1 0x40 MLOAD PUSH3 0x461BCD PUSH1 0xE5 SHL DUP2 MSTORE PUSH1 0x20 PUSH1 0x4 DUP3 ADD MSTORE PUSH1 0x17 PUSH1 0x24 DUP3 ADD MSTORE PUSH23 0x2330B4B632B2103A379031B932B0BA3290383630BCB2B9 PUSH1 0x49 SHL PUSH1 0x44 DUP3 ADD MSTORE PUSH1 0x64 ADD PUSH2 0xAEF JUMP JUMPDEST DUP1 MLOAD PUSH2 0xEA8 SWAP1 PUSH2 0x2E50 JUMP JUMPDEST PUSH2 0xEED JUMPI PUSH1 0x40 MLOAD PUSH3 0x461BCD PUSH1 0xE5 SHL DUP2 MSTORE PUSH1 0x20 PUSH1 0x4 DUP3 ADD MSTORE PUSH1 0x16 PUSH1 0x24 DUP3 ADD MSTORE PUSH22 0x4661696C656420746F206372656174652073636F7265 PUSH1 0x50 SHL PUSH1 0x44 DUP3 ADD MSTORE PUSH1 0x64 ADD PUSH2 0xAEF JUMP JUMPDEST POP POP POP POP POP POP POP JUMP JUMPDEST PUSH1 0x0 DUP2 DUP2 MSTORE PUSH1 0xC PUSH1 0x20 MSTORE PUSH1 0x40 SWAP1 KECCAK256 SLOAD PUSH1 0xFF AND PUSH2 0xF24 JUMPI PUSH1 0x40 MLOAD PUSH3 0x461BCD PUSH1 0xE5 SHL DUP2 MSTORE PUSH1 0x4 ADD PUSH2 0xAEF SWAP1 PUSH2 0x3E2C JUMP JUMPDEST PUSH1 0x0 DUP2 DUP2 MSTORE PUSH1 0xD PUSH1 0x20 MSTORE PUSH1 0x40 SWAP1 KECCAK256 PUSH1 0x4 DUP2 ADD SLOAD PUSH1 0x6 SWAP1 SWAP2 ADD SLOAD LT PUSH2 0xF7C JUMPI PUSH1 0x40 MLOAD PUSH3 0x461BCD PUSH1 0xE5 SHL DUP2 MSTORE PUSH1 0x20 PUSH1 0x4 DUP3 ADD MSTORE PUSH1 0xF PUSH1 0x24 DUP3 ADD MSTORE PUSH15 0x4F7574206F66206361706163697479 PUSH1 0x88 SHL PUSH1 0x44 DUP3 ADD MSTORE PUSH1 0x64 ADD PUSH2 0xAEF JUMP JUMPDEST PUSH1 0x0 DUP2 DUP2 MSTORE PUSH1 0x10 PUSH1 0x20 SWAP1 DUP2 MSTORE PUSH1 0x40 DUP1 DUP4 KECCAK256 PUSH1 0x1 PUSH1 0x1 PUSH1 0xA0 SHL SUB DUP7 AND DUP5 MSTORE SWAP1 SWAP2 MSTORE SWAP1 KECCAK256 SLOAD PUSH1 0xFF AND ISZERO PUSH2 0xFEF JUMPI PUSH1 0x40 MLOAD PUSH3 0x461BCD PUSH1 0xE5 SHL DUP2 MSTORE PUSH1 0x20 PUSH1 0x4 DUP3 ADD MSTORE PUSH1 0x17 PUSH1 0x24 DUP3 ADD MSTORE PUSH32 0x506C6179657220616C7265616479206163636570746564000000000000000000 PUSH1 0x44 DUP3 ADD MSTORE PUSH1 0x64 ADD PUSH2 0xAEF JUMP JUMPDEST PUSH2 0xFFD PUSH1 0x9 DUP1 SLOAD PUSH1 0x1 ADD SWAP1 SSTORE JUMP JUMPDEST PUSH2 0x1005 PUSH2 0x369E JUMP JUMPDEST PUSH1 0x9 SLOAD DUP2 MSTORE PUSH1 0x40 DUP1 DUP3 ADD DUP4 SWAP1 MSTORE PUSH1 0x0 DUP4 DUP2 MSTORE PUSH1 0xD PUSH1 0x20 MSTORE KECCAK256 PUSH1 0x1 ADD DUP1 SLOAD PUSH2 0x102B SWAP1 PUSH2 0x3CCE JUMP JUMPDEST DUP1 PUSH1 0x1F ADD PUSH1 0x20 DUP1 SWAP2 DIV MUL PUSH1 0x20 ADD PUSH1 0x40 MLOAD SWAP1 DUP2 ADD PUSH1 0x40 MSTORE DUP1 SWAP3 SWAP2 SWAP1 DUP2 DUP2 MSTORE PUSH1 0x20 ADD DUP3 DUP1 SLOAD PUSH2 0x1057 SWAP1 PUSH2 0x3CCE JUMP JUMPDEST DUP1 ISZERO PUSH2 0x10A4 JUMPI DUP1 PUSH1 0x1F LT PUSH2 0x1079 JUMPI PUSH2 0x100 DUP1 DUP4 SLOAD DIV MUL DUP4 MSTORE SWAP2 PUSH1 0x20 ADD SWAP2 PUSH2 0x10A4 JUMP JUMPDEST DUP3 ADD SWAP2 SWAP1 PUSH1 0x0 MSTORE PUSH1 0x20 PUSH1 0x0 KECCAK256 SWAP1 JUMPDEST DUP2 SLOAD DUP2 MSTORE SWAP1 PUSH1 0x1 ADD SWAP1 PUSH1 0x20 ADD DUP1 DUP4 GT PUSH2 0x1087 JUMPI DUP3 SWAP1 SUB PUSH1 0x1F AND DUP3 ADD SWAP2 JUMPDEST POP POP POP POP POP PUSH1 0x20 DUP3 ADD MSTORE PUSH1 0x1 PUSH1 0x1 PUSH1 0xA0 SHL SUB DUP4 AND PUSH1 0x60 DUP3 ADD MSTORE CALLER PUSH1 0x80 DUP3 ADD MSTORE PUSH2 0x10CB PUSH2 0x2D4A JUMP JUMPDEST PUSH2 0x100 DUP3 ADD MSTORE PUSH1 0x0 DUP3 DUP2 MSTORE PUSH1 0xD PUSH1 0x20 SWAP1 DUP2 MSTORE PUSH1 0x40 DUP1 DUP4 KECCAK256 PUSH1 0x7 SWAP1 DUP2 ADD SLOAD PUSH1 0xE0 DUP7 ADD MSTORE DUP6 DUP5 MSTORE PUSH1 0x11 DUP4 MSTORE DUP2 DUP5 KECCAK256 PUSH1 0x1 PUSH1 0x1 PUSH1 0xA0 SHL SUB DUP9 AND DUP6 MSTORE DUP4 MSTORE DUP2 DUP5 KECCAK256 DUP1 SLOAD PUSH1 0xFF NOT AND PUSH1 0x1 SWAP1 DUP2 OR SWAP1 SWAP2 SSTORE DUP7 DUP6 MSTORE PUSH1 0x12 DUP5 MSTORE SWAP2 DUP5 KECCAK256 DUP1 SLOAD DUP1 DUP5 ADD DUP3 SSTORE SWAP1 DUP6 MSTORE SWAP4 DUP4 SWAP1 KECCAK256 DUP6 MLOAD SWAP5 SWAP1 SWAP2 MUL ADD SWAP3 DUP4 SSTORE SWAP1 DUP4 ADD MLOAD DUP4 SWAP3 SWAP2 DUP3 ADD SWAP1 PUSH2 0x114C SWAP1 DUP3 PUSH2 0x3D6C JUMP JUMPDEST POP PUSH1 0x40 DUP3 ADD MLOAD PUSH1 0x2 DUP3 ADD SSTORE PUSH1 0x60 DUP3 ADD MLOAD PUSH1 0x3 DUP3 ADD DUP1 SLOAD PUSH1 0x1 PUSH1 0x1 PUSH1 0xA0 SHL SUB NOT AND PUSH1 0x1 PUSH1 0x1 PUSH1 0xA0 SHL SUB SWAP3 DUP4 AND OR SWAP1 SSTORE PUSH1 0x80 DUP4 ADD MLOAD PUSH1 0x4 DUP4 ADD DUP1 SLOAD PUSH1 0xA0 DUP7 ADD MLOAD PUSH1 0xC0 DUP8 ADD MLOAD SWAP4 SWAP1 SWAP5 AND PUSH1 0x1 PUSH1 0x1 PUSH1 0xA8 SHL SUB NOT SWAP1 SWAP2 AND OR PUSH1 0x1 PUSH1 0xA0 SHL SWAP4 ISZERO ISZERO SWAP4 SWAP1 SWAP4 MUL SWAP3 SWAP1 SWAP3 OR PUSH1 0xFF PUSH1 0xA8 SHL NOT AND PUSH1 0x1 PUSH1 0xA8 SHL SWAP2 ISZERO ISZERO SWAP2 SWAP1 SWAP2 MUL OR SWAP1 SSTORE PUSH1 0xE0 DUP3 ADD MLOAD PUSH1 0x5 DUP3 ADD SSTORE PUSH2 0x100 SWAP1 SWAP2 ADD MLOAD PUSH1 0x6 SWAP1 SWAP2 ADD SSTORE POP POP POP JUMP JUMPDEST PUSH1 0x0 CALLER PUSH2 0x11F0 DUP6 DUP3 DUP6 PUSH2 0x2EF4 JUMP JUMPDEST PUSH2 0x11FB DUP6 DUP6 DUP6 PUSH2 0x2F6E JUMP JUMPDEST POP PUSH1 0x1 SWAP5 SWAP4 POP POP POP POP JUMP JUMPDEST PUSH1 0x0 DUP2 DUP2 MSTORE PUSH1 0xC PUSH1 0x20 MSTORE PUSH1 0x40 SWAP1 KECCAK256 SLOAD PUSH1 0xFF AND PUSH2 0x1234 JUMPI PUSH1 0x40 MLOAD PUSH3 0x461BCD PUSH1 0xE5 SHL DUP2 MSTORE PUSH1 0x4 ADD PUSH2 0xAEF SWAP1 PUSH2 0x3E2C JUMP JUMPDEST PUSH1 0x0 DUP2 DUP2 MSTORE PUSH1 0xD PUSH1 0x20 MSTORE PUSH1 0x40 SWAP1 KECCAK256 PUSH1 0x3 ADD SLOAD PUSH1 0x1 PUSH1 0x1 PUSH1 0xA0 SHL SUB AND CALLER EQ PUSH2 0x126D JUMPI PUSH1 0x40 MLOAD PUSH3 0x461BCD PUSH1 0xE5 SHL DUP2 MSTORE PUSH1 0x4 ADD PUSH2 0xAEF SWAP1 PUSH2 0x3E54 JUMP JUMPDEST PUSH1 0x0 DUP2 DUP2 MSTORE PUSH1 0xD PUSH1 0x20 MSTORE PUSH1 0x40 SWAP1 KECCAK256 PUSH1 0x6 ADD SLOAD PUSH1 0x1 EQ PUSH2 0x12CE JUMPI PUSH1 0x40 MLOAD PUSH3 0x461BCD PUSH1 0xE5 SHL DUP2 MSTORE PUSH1 0x20 PUSH1 0x4 DUP3 ADD MSTORE PUSH1 0x1C PUSH1 0x24 DUP3 ADD MSTORE PUSH32 0x5061727469636970616E747320616C726561647920696E2067616D6500000000 PUSH1 0x44 DUP3 ADD MSTORE PUSH1 0x64 ADD PUSH2 0xAEF JUMP JUMPDEST PUSH1 0x0 DUP2 DUP2 MSTORE PUSH1 0xE PUSH1 0x20 MSTORE PUSH1 0x40 SWAP1 KECCAK256 DUP1 SLOAD DUP1 PUSH2 0x12EB JUMPI PUSH2 0x12EB PUSH2 0x3E81 JUMP JUMPDEST PUSH1 0x0 DUP3 DUP2 MSTORE PUSH1 0x20 DUP1 DUP3 KECCAK256 PUSH1 0x3 PUSH1 0x0 NOT SWAP1 SWAP5 ADD SWAP4 DUP5 MUL ADD DUP3 DUP2 SSTORE PUSH1 0x1 DUP2 ADD DUP4 SWAP1 SSTORE PUSH1 0x2 ADD DUP1 SLOAD PUSH1 0x1 PUSH1 0x1 PUSH1 0xA0 SHL SUB NOT AND SWAP1 SSTORE SWAP2 SWAP1 SWAP3 SSTORE DUP3 DUP3 MSTORE PUSH1 0xF SWAP1 MSTORE PUSH1 0x40 SWAP1 KECCAK256 DUP1 SLOAD DUP1 PUSH2 0x133A JUMPI PUSH2 0x133A PUSH2 0x3E81 JUMP JUMPDEST PUSH1 0x0 DUP3 DUP2 MSTORE PUSH1 0x20 DUP1 DUP3 KECCAK256 PUSH1 0x6 PUSH1 0x0 NOT SWAP1 SWAP5 ADD SWAP4 DUP5 MUL ADD DUP3 DUP2 SSTORE PUSH1 0x1 DUP2 ADD DUP4 SWAP1 SSTORE PUSH1 0x2 DUP2 ADD DUP1 SLOAD PUSH1 0x1 PUSH1 0x1 PUSH1 0xA0 SHL SUB NOT AND SWAP1 SSTORE PUSH1 0x3 DUP2 ADD DUP4 SWAP1 SSTORE PUSH1 0x4 DUP2 ADD DUP4 SWAP1 SSTORE PUSH1 0x5 ADD DUP1 SLOAD PUSH1 0xFF NOT SWAP1 DUP2 AND SWAP1 SWAP2 SSTORE SWAP3 SWAP1 SWAP4 SSTORE DUP4 DUP2 MSTORE PUSH1 0x10 DUP4 MSTORE PUSH1 0x40 DUP1 DUP3 KECCAK256 CALLER DUP1 DUP5 MSTORE SWAP1 DUP6 MSTORE DUP2 DUP4 KECCAK256 DUP1 SLOAD SWAP1 SWAP5 AND SWAP1 SWAP4 SSTORE DUP5 DUP3 MSTORE PUSH1 0xD SWAP1 SWAP4 MSTORE SWAP2 SWAP1 SWAP2 KECCAK256 PUSH1 0x7 ADD SLOAD PUSH2 0x13C4 SWAP2 SWAP1 PUSH2 0x3119 JUMP JUMPDEST PUSH1 0x0 SWAP1 DUP2 MSTORE PUSH1 0xD PUSH1 0x20 MSTORE PUSH1 0x40 DUP2 KECCAK256 PUSH1 0x6 DUP2 ADD SWAP2 SWAP1 SWAP2 SSTORE PUSH1 0xB ADD DUP1 SLOAD PUSH1 0xFF NOT AND PUSH1 0x1 OR SWAP1 SSTORE JUMP JUMPDEST PUSH1 0x0 CALLER PUSH2 0xA97 DUP2 DUP6 DUP6 PUSH2 0x13FD DUP4 DUP4 PUSH2 0x2B85 JUMP JUMPDEST PUSH2 0x1407 SWAP2 SWAP1 PUSH2 0x3E97 JUMP JUMPDEST PUSH2 0x2C26 JUMP JUMPDEST PUSH1 0x0 DUP3 DUP2 MSTORE PUSH1 0xC PUSH1 0x20 MSTORE PUSH1 0x40 SWAP1 KECCAK256 SLOAD PUSH1 0xFF AND PUSH2 0x143A JUMPI PUSH1 0x40 MLOAD PUSH3 0x461BCD PUSH1 0xE5 SHL DUP2 MSTORE PUSH1 0x4 ADD PUSH2 0xAEF SWAP1 PUSH2 0x3E2C JUMP JUMPDEST PUSH1 0x0 DUP3 DUP2 MSTORE PUSH1 0x12 PUSH1 0x20 MSTORE PUSH1 0x40 SWAP1 KECCAK256 DUP1 SLOAD CALLER SWAP2 SWAP1 DUP4 SWAP1 DUP2 LT PUSH2 0x145D JUMPI PUSH2 0x145D PUSH2 0x3D08 JUMP JUMPDEST PUSH1 0x0 SWAP2 DUP3 MSTORE PUSH1 0x20 SWAP1 SWAP2 KECCAK256 PUSH1 0x3 PUSH1 0x7 SWAP1 SWAP3 MUL ADD ADD SLOAD PUSH1 0x1 PUSH1 0x1 PUSH1 0xA0 SHL SUB AND EQ PUSH2 0x1497 JUMPI PUSH1 0x40 MLOAD PUSH3 0x461BCD PUSH1 0xE5 SHL DUP2 MSTORE PUSH1 0x4 ADD PUSH2 0xAEF SWAP1 PUSH2 0x3E54 JUMP JUMPDEST PUSH1 0x0 DUP3 DUP2 MSTORE PUSH1 0x12 PUSH1 0x20 MSTORE PUSH1 0x40 SWAP1 KECCAK256 DUP1 SLOAD PUSH1 0x1 SWAP2 SWAP1 DUP4 SWAP1 DUP2 LT PUSH2 0x14BB JUMPI PUSH2 0x14BB PUSH2 0x3D08 JUMP JUMPDEST SWAP1 PUSH1 0x0 MSTORE PUSH1 0x20 PUSH1 0x0 KECCAK256 SWAP1 PUSH1 0x7 MUL ADD PUSH1 0x4 ADD PUSH1 0x14 PUSH2 0x100 EXP DUP2 SLOAD DUP2 PUSH1 0xFF MUL NOT AND SWAP1 DUP4 ISZERO ISZERO MUL OR SWAP1 SSTORE POP POP POP JUMP JUMPDEST PUSH1 0x0 DUP4 DUP2 MSTORE PUSH1 0xC PUSH1 0x20 MSTORE PUSH1 0x40 SWAP1 KECCAK256 SLOAD PUSH1 0xFF AND PUSH2 0x1515 JUMPI PUSH1 0x40 MLOAD PUSH3 0x461BCD PUSH1 0xE5 SHL DUP2 MSTORE PUSH1 0x4 ADD PUSH2 0xAEF SWAP1 PUSH2 0x3E2C JUMP JUMPDEST PUSH1 0x0 DUP4 DUP2 MSTORE PUSH1 0xD PUSH1 0x20 MSTORE PUSH1 0x40 SWAP1 KECCAK256 PUSH1 0x5 DUP2 ADD SLOAD PUSH1 0x6 SWAP1 SWAP2 ADD SLOAD GT PUSH2 0x1570 JUMPI PUSH1 0x40 MLOAD PUSH3 0x461BCD PUSH1 0xE5 SHL DUP2 MSTORE PUSH1 0x20 PUSH1 0x4 DUP3 ADD MSTORE PUSH1 0x12 PUSH1 0x24 DUP3 ADD MSTORE PUSH18 0x4E6F7420656E6F75676820706C6179657273 PUSH1 0x70 SHL PUSH1 0x44 DUP3 ADD MSTORE PUSH1 0x64 ADD PUSH2 0xAEF JUMP JUMPDEST PUSH1 0x0 DUP4 DUP2 MSTORE PUSH1 0xF PUSH1 0x20 MSTORE PUSH1 0x40 SWAP1 KECCAK256 DUP1 SLOAD CALLER SWAP2 SWAP1 DUP5 SWAP1 DUP2 LT PUSH2 0x1593 JUMPI PUSH2 0x1593 PUSH2 0x3D08 JUMP JUMPDEST PUSH1 0x0 SWAP2 DUP3 MSTORE PUSH1 0x20 SWAP1 SWAP2 KECCAK256 PUSH1 0x2 PUSH1 0x6 SWAP1 SWAP3 MUL ADD ADD SLOAD PUSH1 0x1 PUSH1 0x1 PUSH1 0xA0 SHL SUB AND EQ PUSH2 0x15CD JUMPI PUSH1 0x40 MLOAD PUSH3 0x461BCD PUSH1 0xE5 SHL DUP2 MSTORE PUSH1 0x4 ADD PUSH2 0xAEF SWAP1 PUSH2 0x3E54 JUMP JUMPDEST PUSH1 0x0 DUP4 DUP2 MSTORE PUSH1 0xF PUSH1 0x20 MSTORE PUSH1 0x40 SWAP1 KECCAK256 DUP1 SLOAD DUP4 SWAP1 DUP2 LT PUSH2 0x15ED JUMPI PUSH2 0x15ED PUSH2 0x3D08 JUMP JUMPDEST PUSH1 0x0 SWAP2 DUP3 MSTORE PUSH1 0x20 SWAP1 SWAP2 KECCAK256 PUSH1 0x5 PUSH1 0x6 SWAP1 SWAP3 MUL ADD ADD SLOAD PUSH1 0xFF AND ISZERO PUSH2 0x1651 JUMPI PUSH1 0x40 MLOAD PUSH3 0x461BCD PUSH1 0xE5 SHL DUP2 MSTORE PUSH1 0x20 PUSH1 0x4 DUP3 ADD MSTORE PUSH1 0x19 PUSH1 0x24 DUP3 ADD MSTORE PUSH32 0x53636F726520697320616C7265616479207265636F7264656400000000000000 PUSH1 0x44 DUP3 ADD MSTORE PUSH1 0x64 ADD PUSH2 0xAEF JUMP JUMPDEST PUSH1 0x0 DUP4 DUP2 MSTORE PUSH1 0xF PUSH1 0x20 MSTORE PUSH1 0x40 SWAP1 KECCAK256 DUP1 SLOAD DUP3 SWAP2 SWAP1 DUP5 SWAP1 DUP2 LT PUSH2 0x1674 JUMPI PUSH2 0x1674 PUSH2 0x3D08 JUMP JUMPDEST SWAP1 PUSH1 0x0 MSTORE PUSH1 0x20 PUSH1 0x0 KECCAK256 SWAP1 PUSH1 0x6 MUL ADD PUSH1 0x3 ADD DUP2 SWAP1 SSTORE POP PUSH1 0x1 PUSH1 0xF PUSH1 0x0 DUP6 DUP2 MSTORE PUSH1 0x20 ADD SWAP1 DUP2 MSTORE PUSH1 0x20 ADD PUSH1 0x0 KECCAK256 DUP4 DUP2 SLOAD DUP2 LT PUSH2 0x16AF JUMPI PUSH2 0x16AF PUSH2 0x3D08 JUMP JUMPDEST PUSH1 0x0 SWAP2 DUP3 MSTORE PUSH1 0x20 SWAP1 SWAP2 KECCAK256 PUSH1 0x6 SWAP1 SWAP2 MUL ADD PUSH1 0x5 ADD DUP1 SLOAD PUSH1 0xFF NOT AND SWAP2 ISZERO ISZERO SWAP2 SWAP1 SWAP2 OR SWAP1 SSTORE POP POP POP JUMP JUMPDEST PUSH2 0x16DE PUSH2 0x31B3 JUMP JUMPDEST PUSH2 0x16E8 PUSH1 0x0 PUSH2 0x320D JUMP JUMPDEST JUMP JUMPDEST PUSH1 0x0 DUP3 DUP2 MSTORE PUSH1 0xC PUSH1 0x20 MSTORE PUSH1 0x40 SWAP1 KECCAK256 SLOAD PUSH1 0xFF AND PUSH2 0x1718 JUMPI PUSH1 0x40 MLOAD PUSH3 0x461BCD PUSH1 0xE5 SHL DUP2 MSTORE PUSH1 0x4 ADD PUSH2 0xAEF SWAP1 PUSH2 0x3E2C JUMP JUMPDEST PUSH1 0x0 DUP3 DUP2 MSTORE PUSH1 0xD PUSH1 0x20 MSTORE PUSH1 0x40 SWAP1 KECCAK256 PUSH1 0x7 ADD SLOAD CALLVALUE LT ISZERO PUSH2 0x176E JUMPI PUSH1 0x40 MLOAD PUSH3 0x461BCD PUSH1 0xE5 SHL DUP2 MSTORE PUSH1 0x20 PUSH1 0x4 DUP3 ADD MSTORE PUSH1 0x12 PUSH1 0x24 DUP3 ADD MSTORE PUSH18 0x125B9CDD599998DA595B9D08185B5BDD5B9D PUSH1 0x72 SHL PUSH1 0x44 DUP3 ADD MSTORE PUSH1 0x64 ADD PUSH2 0xAEF JUMP JUMPDEST PUSH1 0x0 DUP3 DUP2 MSTORE PUSH1 0x12 PUSH1 0x20 MSTORE PUSH1 0x40 SWAP1 KECCAK256 DUP1 SLOAD CALLER SWAP2 SWAP1 DUP4 SWAP1 DUP2 LT PUSH2 0x1791 JUMPI PUSH2 0x1791 PUSH2 0x3D08 JUMP JUMPDEST PUSH1 0x0 SWAP2 DUP3 MSTORE PUSH1 0x20 SWAP1 SWAP2 KECCAK256 PUSH1 0x3 PUSH1 0x7 SWAP1 SWAP3 MUL ADD ADD SLOAD PUSH1 0x1 PUSH1 0x1 PUSH1 0xA0 SHL SUB AND EQ PUSH2 0x17CB JUMPI PUSH1 0x40 MLOAD PUSH3 0x461BCD PUSH1 0xE5 SHL DUP2 MSTORE PUSH1 0x4 ADD PUSH2 0xAEF SWAP1 PUSH2 0x3E54 JUMP JUMPDEST PUSH2 0x17D4 DUP3 PUSH2 0x2D69 JUMP JUMPDEST PUSH2 0x181A JUMPI PUSH1 0x40 MLOAD PUSH3 0x461BCD PUSH1 0xE5 SHL DUP2 MSTORE PUSH1 0x20 PUSH1 0x4 DUP3 ADD MSTORE PUSH1 0x17 PUSH1 0x24 DUP3 ADD MSTORE PUSH23 0x2330B4B632B2103A379031B932B0BA3290383630BCB2B9 PUSH1 0x49 SHL PUSH1 0x44 DUP3 ADD MSTORE PUSH1 0x64 ADD PUSH2 0xAEF JUMP JUMPDEST PUSH2 0x1823 DUP3 PUSH2 0x2E50 JUMP JUMPDEST PUSH2 0x1868 JUMPI PUSH1 0x40 MLOAD PUSH3 0x461BCD PUSH1 0xE5 SHL DUP2 MSTORE PUSH1 0x20 PUSH1 0x4 DUP3 ADD MSTORE PUSH1 0x16 PUSH1 0x24 DUP3 ADD MSTORE PUSH22 0x4661696C656420746F206372656174652073636F7265 PUSH1 0x50 SHL PUSH1 0x44 DUP3 ADD MSTORE PUSH1 0x64 ADD PUSH2 0xAEF JUMP JUMPDEST PUSH1 0x0 DUP3 DUP2 MSTORE PUSH1 0x12 PUSH1 0x20 MSTORE PUSH1 0x40 SWAP1 KECCAK256 DUP1 SLOAD PUSH1 0x1 SWAP2 SWAP1 DUP4 SWAP1 DUP2 LT PUSH2 0x188C JUMPI PUSH2 0x188C PUSH2 0x3D08 JUMP JUMPDEST SWAP1 PUSH1 0x0 MSTORE PUSH1 0x20 PUSH1 0x0 KECCAK256 SWAP1 PUSH1 0x7 MUL ADD PUSH1 0x4 ADD PUSH1 0x14 PUSH2 0x100 EXP DUP2 SLOAD DUP2 PUSH1 0xFF MUL NOT AND SWAP1 DUP4 ISZERO ISZERO MUL OR SWAP1 SSTORE POP PUSH1 0x1 PUSH1 0x12 PUSH1 0x0 DUP5 DUP2 MSTORE PUSH1 0x20 ADD SWAP1 DUP2 MSTORE PUSH1 0x20 ADD PUSH1 0x0 KECCAK256 DUP3 DUP2 SLOAD DUP2 LT PUSH2 0x18DA JUMPI PUSH2 0x18DA PUSH2 0x3D08 JUMP JUMPDEST SWAP1 PUSH1 0x0 MSTORE PUSH1 0x20 PUSH1 0x0 KECCAK256 SWAP1 PUSH1 0x7 MUL ADD PUSH1 0x4 ADD PUSH1 0x15 PUSH2 0x100 EXP DUP2 SLOAD DUP2 PUSH1 0xFF MUL NOT AND SWAP1 DUP4 ISZERO ISZERO MUL OR SWAP1 SSTORE POP POP POP JUMP JUMPDEST PUSH2 0x190E PUSH2 0x31B3 JUMP JUMPDEST PUSH1 0x0 DUP2 GT DUP1 ISZERO PUSH2 0x191F JUMPI POP PUSH1 0xA DUP2 GT ISZERO JUMPDEST PUSH2 0x197E JUMPI PUSH1 0x40 MLOAD PUSH3 0x461BCD PUSH1 0xE5 SHL DUP2 MSTORE PUSH1 0x20 PUSH1 0x4 DUP3 ADD MSTORE PUSH1 0x2A PUSH1 0x24 DUP3 ADD MSTORE PUSH32 0x4665652070657263656E74206D75737420626520696E207468652072616E6765 PUSH1 0x44 DUP3 ADD MSTORE PUSH10 0x206F662031202D20313 PUSH1 0xB4 SHL PUSH1 0x64 DUP3 ADD MSTORE PUSH1 0x84 ADD PUSH2 0xAEF JUMP JUMPDEST PUSH1 0xB SSTORE JUMP JUMPDEST PUSH1 0x60 PUSH1 0x0 PUSH1 0x1 JUMPDEST PUSH1 0x7 SLOAD DUP2 GT PUSH2 0x19F0 JUMPI PUSH1 0x0 DUP2 DUP2 MSTORE PUSH1 0xD PUSH1 0x20 MSTORE PUSH1 0x40 SWAP1 KECCAK256 PUSH1 0xB ADD SLOAD PUSH1 0xFF AND ISZERO DUP1 ISZERO PUSH2 0x19CB JUMPI POP PUSH1 0x0 DUP2 DUP2 MSTORE PUSH1 0xD PUSH1 0x20 MSTORE PUSH1 0x40 SWAP1 KECCAK256 PUSH1 0xB ADD SLOAD PUSH2 0x100 SWAP1 DIV PUSH1 0xFF AND JUMPDEST ISZERO PUSH2 0x19DE JUMPI DUP2 PUSH2 0x19DA DUP2 PUSH2 0x3CB5 JUMP JUMPDEST SWAP3 POP POP JUMPDEST DUP1 PUSH2 0x19E8 DUP2 PUSH2 0x3CB5 JUMP JUMPDEST SWAP2 POP POP PUSH2 0x198A JUMP JUMPDEST POP DUP1 PUSH8 0xFFFFFFFFFFFFFFFF DUP2 GT ISZERO PUSH2 0x1A0A JUMPI PUSH2 0x1A0A PUSH2 0x3A07 JUMP JUMPDEST PUSH1 0x40 MLOAD SWAP1 DUP1 DUP3 MSTORE DUP1 PUSH1 0x20 MUL PUSH1 0x20 ADD DUP3 ADD PUSH1 0x40 MSTORE DUP1 ISZERO PUSH2 0x1A43 JUMPI DUP2 PUSH1 0x20 ADD JUMPDEST PUSH2 0x1A30 PUSH2 0x3629 JUMP JUMPDEST DUP2 MSTORE PUSH1 0x20 ADD SWAP1 PUSH1 0x1 SWAP1 SUB SWAP1 DUP2 PUSH2 0x1A28 JUMPI SWAP1 POP JUMPDEST POP SWAP2 POP PUSH1 0x0 PUSH1 0x1 JUMPDEST PUSH1 0x7 SLOAD DUP2 GT PUSH2 0x87A JUMPI PUSH1 0x0 DUP2 DUP2 MSTORE PUSH1 0xD PUSH1 0x20 MSTORE PUSH1 0x40 SWAP1 KECCAK256 PUSH1 0xB ADD SLOAD PUSH1 0xFF AND ISZERO DUP1 ISZERO PUSH2 0x1A8C JUMPI POP PUSH1 0x0 DUP2 DUP2 MSTORE PUSH1 0xD PUSH1 0x20 MSTORE PUSH1 0x40 SWAP1 KECCAK256 PUSH1 0xB ADD SLOAD PUSH2 0x100 SWAP1 DIV PUSH1 0xFF AND JUMPDEST ISZERO PUSH2 0x1C7D JUMPI PUSH1 0xD PUSH1 0x0 DUP3 DUP2 MSTORE PUSH1 0x20 ADD SWAP1 DUP2 MSTORE PUSH1 0x20 ADD PUSH1 0x0 KECCAK256 PUSH1 0x40 MLOAD DUP1 PUSH2 0x1A0 ADD PUSH1 0x40 MSTORE SWAP1 DUP2 PUSH1 0x0 DUP3 ADD SLOAD DUP2 MSTORE PUSH1 0x20 ADD PUSH1 0x1 DUP3 ADD DUP1 SLOAD PUSH2 0x1ACA SWAP1 PUSH2 0x3CCE JUMP JUMPDEST DUP1 PUSH1 0x1F ADD PUSH1 0x20 DUP1 SWAP2 DIV MUL PUSH1 0x20 ADD PUSH1 0x40 MLOAD SWAP1 DUP2 ADD PUSH1 0x40 MSTORE DUP1 SWAP3 SWAP2 SWAP1 DUP2 DUP2 MSTORE PUSH1 0x20 ADD DUP3 DUP1 SLOAD PUSH2 0x1AF6 SWAP1 PUSH2 0x3CCE JUMP JUMPDEST DUP1 ISZERO PUSH2 0x1B43 JUMPI DUP1 PUSH1 0x1F LT PUSH2 0x1B18 JUMPI PUSH2 0x100 DUP1 DUP4 SLOAD DIV MUL DUP4 MSTORE SWAP2 PUSH1 0x20 ADD SWAP2 PUSH2 0x1B43 JUMP JUMPDEST DUP3 ADD SWAP2 SWAP1 PUSH1 0x0 MSTORE PUSH1 0x20 PUSH1 0x0 KECCAK256 SWAP1 JUMPDEST DUP2 SLOAD DUP2 MSTORE SWAP1 PUSH1 0x1 ADD SWAP1 PUSH1 0x20 ADD DUP1 DUP4 GT PUSH2 0x1B26 JUMPI DUP3 SWAP1 SUB PUSH1 0x1F AND DUP3 ADD SWAP2 JUMPDEST POP POP POP POP POP DUP2 MSTORE PUSH1 0x20 ADD PUSH1 0x2 DUP3 ADD DUP1 SLOAD PUSH2 0x1B5C SWAP1 PUSH2 0x3CCE JUMP JUMPDEST DUP1 PUSH1 0x1F ADD PUSH1 0x20 DUP1 SWAP2 DIV MUL PUSH1 0x20 ADD PUSH1 0x40 MLOAD SWAP1 DUP2 ADD PUSH1 0x40 MSTORE DUP1 SWAP3 SWAP2 SWAP1 DUP2 DUP2 MSTORE PUSH1 0x20 ADD DUP3 DUP1 SLOAD PUSH2 0x1B88 SWAP1 PUSH2 0x3CCE JUMP JUMPDEST DUP1 ISZERO PUSH2 0x1BD5 JUMPI DUP1 PUSH1 0x1F LT PUSH2 0x1BAA JUMPI PUSH2 0x100 DUP1 DUP4 SLOAD DIV MUL DUP4 MSTORE SWAP2 PUSH1 0x20 ADD SWAP2 PUSH2 0x1BD5 JUMP JUMPDEST DUP3 ADD SWAP2 SWAP1 PUSH1 0x0 MSTORE PUSH1 0x20 PUSH1 0x0 KECCAK256 SWAP1 JUMPDEST DUP2 SLOAD DUP2 MSTORE SWAP1 PUSH1 0x1 ADD SWAP1 PUSH1 0x20 ADD DUP1 DUP4 GT PUSH2 0x1BB8 JUMPI DUP3 SWAP1 SUB PUSH1 0x1F AND DUP3 ADD SWAP2 JUMPDEST POP POP POP SWAP2 DUP4 MSTORE POP POP PUSH1 0x3 DUP3 ADD SLOAD PUSH1 0x1 PUSH1 0x1 PUSH1 0xA0 SHL SUB AND PUSH1 0x20 DUP3 ADD MSTORE PUSH1 0x4 DUP3 ADD SLOAD PUSH1 0x40 DUP3 ADD MSTORE PUSH1 0x5 DUP3 ADD SLOAD PUSH1 0x60 DUP3 ADD MSTORE PUSH1 0x6 DUP3 ADD SLOAD PUSH1 0x80 DUP3 ADD MSTORE PUSH1 0x7 DUP3 ADD SLOAD PUSH1 0xA0 DUP3 ADD MSTORE PUSH1 0x8 DUP3 ADD SLOAD PUSH1 0xC0 DUP3 ADD MSTORE PUSH1 0x9 DUP3 ADD SLOAD PUSH1 0xE0 DUP3 ADD MSTORE PUSH1 0xA DUP3 ADD SLOAD PUSH2 0x100 DUP1 DUP4 ADD SWAP2 SWAP1 SWAP2 MSTORE PUSH1 0xB SWAP1 SWAP3 ADD SLOAD PUSH1 0xFF DUP1 DUP3 AND ISZERO ISZERO PUSH2 0x120 DUP5 ADD MSTORE SWAP3 SWAP1 DIV SWAP1 SWAP2 AND ISZERO ISZERO PUSH2 0x140 SWAP1 SWAP2 ADD MSTORE DUP5 MLOAD DUP6 SWAP1 DUP5 SWAP1 DUP2 LT PUSH2 0x1C71 JUMPI PUSH2 0x1C71 PUSH2 0x3D08 JUMP JUMPDEST PUSH1 0x20 MUL PUSH1 0x20 ADD ADD DUP2 SWAP1 MSTORE POP JUMPDEST DUP1 PUSH2 0x1C87 DUP2 PUSH2 0x3CB5 JUMP JUMPDEST SWAP2 POP POP PUSH2 0x1A4B JUMP JUMPDEST PUSH1 0x60 PUSH1 0x0 PUSH1 0x1 JUMPDEST PUSH1 0x7 SLOAD DUP2 GT PUSH2 0x1CE1 JUMPI PUSH1 0x0 DUP2 DUP2 MSTORE PUSH1 0x11 PUSH1 0x20 SWAP1 DUP2 MSTORE PUSH1 0x40 DUP1 DUP4 KECCAK256 CALLER DUP5 MSTORE SWAP1 SWAP2 MSTORE SWAP1 KECCAK256 SLOAD PUSH1 0xFF AND ISZERO PUSH2 0x1CCF JUMPI DUP2 PUSH2 0x1CCB DUP2 PUSH2 0x3CB5 JUMP JUMPDEST SWAP3 POP POP JUMPDEST DUP1 PUSH2 0x1CD9 DUP2 PUSH2 0x3CB5 JUMP JUMPDEST SWAP2 POP POP PUSH2 0x1C96 JUMP JUMPDEST POP DUP1 PUSH8 0xFFFFFFFFFFFFFFFF DUP2 GT ISZERO PUSH2 0x1CFB JUMPI PUSH2 0x1CFB PUSH2 0x3A07 JUMP JUMPDEST PUSH1 0x40 MLOAD SWAP1 DUP1 DUP3 MSTORE DUP1 PUSH1 0x20 MUL PUSH1 0x20 ADD DUP3 ADD PUSH1 0x40 MSTORE DUP1 ISZERO PUSH2 0x1D34 JUMPI DUP2 PUSH1 0x20 ADD JUMPDEST PUSH2 0x1D21 PUSH2 0x369E JUMP JUMPDEST DUP2 MSTORE PUSH1 0x20 ADD SWAP1 PUSH1 0x1 SWAP1 SUB SWAP1 DUP2 PUSH2 0x1D19 JUMPI SWAP1 POP JUMPDEST POP SWAP2 POP PUSH1 0x0 PUSH1 0x1 JUMPDEST PUSH1 0x7 SLOAD DUP2 GT PUSH2 0x87A JUMPI PUSH1 0x0 DUP2 DUP2 MSTORE PUSH1 0x11 PUSH1 0x20 SWAP1 DUP2 MSTORE PUSH1 0x40 DUP1 DUP4 KECCAK256 CALLER DUP5 MSTORE SWAP1 SWAP2 MSTORE SWAP1 KECCAK256 SLOAD PUSH1 0xFF AND ISZERO PUSH2 0x1F17 JUMPI PUSH1 0x0 JUMPDEST PUSH1 0x0 DUP3 DUP2 MSTORE PUSH1 0x12 PUSH1 0x20 MSTORE PUSH1 0x40 SWAP1 KECCAK256 SLOAD DUP2 LT ISZERO PUSH2 0x1F15 JUMPI PUSH1 0x0 DUP3 DUP2 MSTORE PUSH1 0x12 PUSH1 0x20 MSTORE PUSH1 0x40 SWAP1 KECCAK256 DUP1 SLOAD DUP3 SWAP1 DUP2 LT PUSH2 0x1DA0 JUMPI PUSH2 0x1DA0 PUSH2 0x3D08 JUMP JUMPDEST SWAP1 PUSH1 0x0 MSTORE PUSH1 0x20 PUSH1 0x0 KECCAK256 SWAP1 PUSH1 0x7 MUL ADD PUSH1 0x40 MLOAD DUP1 PUSH2 0x120 ADD PUSH1 0x40 MSTORE SWAP1 DUP2 PUSH1 0x0 DUP3 ADD SLOAD DUP2 MSTORE PUSH1 0x20 ADD PUSH1 0x1 DUP3 ADD DUP1 SLOAD PUSH2 0x1DD4 SWAP1 PUSH2 0x3CCE JUMP JUMPDEST DUP1 PUSH1 0x1F ADD PUSH1 0x20 DUP1 SWAP2 DIV MUL PUSH1 0x20 ADD PUSH1 0x40 MLOAD SWAP1 DUP2 ADD PUSH1 0x40 MSTORE DUP1 SWAP3 SWAP2 SWAP1 DUP2 DUP2 MSTORE PUSH1 0x20 ADD DUP3 DUP1 SLOAD PUSH2 0x1E00 SWAP1 PUSH2 0x3CCE JUMP JUMPDEST DUP1 ISZERO PUSH2 0x1E4D JUMPI DUP1 PUSH1 0x1F LT PUSH2 0x1E22 JUMPI PUSH2 0x100 DUP1 DUP4 SLOAD DIV MUL DUP4 MSTORE SWAP2 PUSH1 0x20 ADD SWAP2 PUSH2 0x1E4D JUMP JUMPDEST DUP3 ADD SWAP2 SWAP1 PUSH1 0x0 MSTORE PUSH1 0x20 PUSH1 0x0 KECCAK256 SWAP1 JUMPDEST DUP2 SLOAD DUP2 MSTORE SWAP1 PUSH1 0x1 ADD SWAP1 PUSH1 0x20 ADD DUP1 DUP4 GT PUSH2 0x1E30 JUMPI DUP3 SWAP1 SUB PUSH1 0x1F AND DUP3 ADD SWAP2 JUMPDEST POP POP POP SWAP2 DUP4 MSTORE POP POP PUSH1 0x2 DUP3 ADD SLOAD PUSH1 0x20 DUP3 ADD MSTORE PUSH1 0x3 DUP3 ADD SLOAD PUSH1 0x1 PUSH1 0x1 PUSH1 0xA0 SHL SUB SWAP1 DUP2 AND PUSH1 0x40 DUP4 ADD MSTORE PUSH1 0x4 DUP4 ADD SLOAD SWAP1 DUP2 AND PUSH1 0x60 DUP4 ADD MSTORE PUSH1 0xFF PUSH1 0x1 PUSH1 0xA0 SHL DUP3 DIV DUP2 AND ISZERO ISZERO PUSH1 0x80 DUP5 ADD MSTORE PUSH1 0x1 PUSH1 0xA8 SHL SWAP1 SWAP2 DIV AND ISZERO ISZERO PUSH1 0xA0 DUP3 ADD MSTORE PUSH1 0x5 DUP3 ADD SLOAD PUSH1 0xC0 DUP3 ADD MSTORE PUSH1 0x6 SWAP1 SWAP2 ADD SLOAD PUSH1 0xE0 SWAP1 SWAP2 ADD MSTORE DUP6 MLOAD DUP7 SWAP1 DUP6 SWAP1 DUP2 LT PUSH2 0x1ECD JUMPI PUSH2 0x1ECD PUSH2 0x3D08 JUMP JUMPDEST PUSH1 0x20 MUL PUSH1 0x20 ADD ADD DUP2 SWAP1 MSTORE POP DUP1 DUP6 DUP5 DUP1 PUSH2 0x1EE5 SWAP1 PUSH2 0x3CB5 JUMP JUMPDEST SWAP6 POP DUP2 MLOAD DUP2 LT PUSH2 0x1EF7 JUMPI PUSH2 0x1EF7 PUSH2 0x3D08 JUMP JUMPDEST PUSH1 0x20 SWAP1 DUP2 MUL SWAP2 SWAP1 SWAP2 ADD ADD MLOAD MSTORE DUP1 PUSH2 0x1F0D DUP2 PUSH2 0x3CB5 JUMP JUMPDEST SWAP2 POP POP PUSH2 0x1D6A JUMP JUMPDEST POP JUMPDEST DUP1 PUSH2 0x1F21 DUP2 PUSH2 0x3CB5 JUMP JUMPDEST SWAP2 POP POP PUSH2 0x1D3C JUMP JUMPDEST PUSH1 0x60 PUSH1 0x6 DUP1 SLOAD PUSH2 0xA06 SWAP1 PUSH2 0x3CCE JUMP JUMPDEST PUSH1 0x60 PUSH1 0xF PUSH1 0x0 DUP4 DUP2 MSTORE PUSH1 0x20 ADD SWAP1 DUP2 MSTORE PUSH1 0x20 ADD PUSH1 0x0 KECCAK256 DUP1 SLOAD DUP1 PUSH1 0x20 MUL PUSH1 0x20 ADD PUSH1 0x40 MLOAD SWAP1 DUP2 ADD PUSH1 0x40 MSTORE DUP1 SWAP3 SWAP2 SWAP1 DUP2 DUP2 MSTORE PUSH1 0x20 ADD PUSH1 0x0 SWAP1 JUMPDEST DUP3 DUP3 LT ISZERO PUSH2 0x9EC JUMPI PUSH1 0x0 DUP5 DUP2 MSTORE PUSH1 0x20 SWAP1 DUP2 SWAP1 KECCAK256 PUSH1 0x40 DUP1 MLOAD PUSH1 0xC0 DUP2 ADD DUP3 MSTORE PUSH1 0x6 DUP7 MUL SWAP1 SWAP3 ADD DUP1 SLOAD DUP4 MSTORE PUSH1 0x1 DUP1 DUP3 ADD SLOAD DUP5 DUP7 ADD MSTORE PUSH1 0x2 DUP3 ADD SLOAD PUSH1 0x1 PUSH1 0x1 PUSH1 0xA0 SHL SUB AND SWAP3 DUP5 ADD SWAP3 SWAP1 SWAP3 MSTORE PUSH1 0x3 DUP2 ADD SLOAD PUSH1 0x60 DUP5 ADD MSTORE PUSH1 0x4 DUP2 ADD SLOAD PUSH1 0x80 DUP5 ADD MSTORE PUSH1 0x5 ADD SLOAD PUSH1 0xFF AND ISZERO ISZERO PUSH1 0xA0 DUP4 ADD MSTORE SWAP1 DUP4 MSTORE SWAP1 SWAP3 ADD SWAP2 ADD PUSH2 0x1F6D JUMP JUMPDEST PUSH2 0x1FEB PUSH2 0x3629 JUMP JUMPDEST PUSH1 0xD PUSH1 0x0 DUP4 DUP2 MSTORE PUSH1 0x20 ADD SWAP1 DUP2 MSTORE PUSH1 0x20 ADD PUSH1 0x0 KECCAK256 PUSH1 0x40 MLOAD DUP1 PUSH2 0x1A0 ADD PUSH1 0x40 MSTORE SWAP1 DUP2 PUSH1 0x0 DUP3 ADD SLOAD DUP2 MSTORE PUSH1 0x20 ADD PUSH1 0x1 DUP3 ADD DUP1 SLOAD PUSH2 0x2024 SWAP1 PUSH2 0x3CCE JUMP JUMPDEST DUP1 PUSH1 0x1F ADD PUSH1 0x20 DUP1 SWAP2 DIV MUL PUSH1 0x20 ADD PUSH1 0x40 MLOAD SWAP1 DUP2 ADD PUSH1 0x40 MSTORE DUP1 SWAP3 SWAP2 SWAP1 DUP2 DUP2 MSTORE PUSH1 0x20 ADD DUP3 DUP1 SLOAD PUSH2 0x2050 SWAP1 PUSH2 0x3CCE JUMP JUMPDEST DUP1 ISZERO PUSH2 0x209D JUMPI DUP1 PUSH1 0x1F LT PUSH2 0x2072 JUMPI PUSH2 0x100 DUP1 DUP4 SLOAD DIV MUL DUP4 MSTORE SWAP2 PUSH1 0x20 ADD SWAP2 PUSH2 0x209D JUMP JUMPDEST DUP3 ADD SWAP2 SWAP1 PUSH1 0x0 MSTORE PUSH1 0x20 PUSH1 0x0 KECCAK256 SWAP1 JUMPDEST DUP2 SLOAD DUP2 MSTORE SWAP1 PUSH1 0x1 ADD SWAP1 PUSH1 0x20 ADD DUP1 DUP4 GT PUSH2 0x2080 JUMPI DUP3 SWAP1 SUB PUSH1 0x1F AND DUP3 ADD SWAP2 JUMPDEST POP POP POP POP POP DUP2 MSTORE PUSH1 0x20 ADD PUSH1 0x2 DUP3 ADD DUP1 SLOAD PUSH2 0x20B6 SWAP1 PUSH2 0x3CCE JUMP JUMPDEST DUP1 PUSH1 0x1F ADD PUSH1 0x20 DUP1 SWAP2 DIV MUL PUSH1 0x20 ADD PUSH1 0x40 MLOAD SWAP1 DUP2 ADD PUSH1 0x40 MSTORE DUP1 SWAP3 SWAP2 SWAP1 DUP2 DUP2 MSTORE PUSH1 0x20 ADD DUP3 DUP1 SLOAD PUSH2 0x20E2 SWAP1 PUSH2 0x3CCE JUMP JUMPDEST DUP1 ISZERO PUSH2 0x212F JUMPI DUP1 PUSH1 0x1F LT PUSH2 0x2104 JUMPI PUSH2 0x100 DUP1 DUP4 SLOAD DIV MUL DUP4 MSTORE SWAP2 PUSH1 0x20 ADD SWAP2 PUSH2 0x212F JUMP JUMPDEST DUP3 ADD SWAP2 SWAP1 PUSH1 0x0 MSTORE PUSH1 0x20 PUSH1 0x0 KECCAK256 SWAP1 JUMPDEST DUP2 SLOAD DUP2 MSTORE SWAP1 PUSH1 0x1 ADD SWAP1 PUSH1 0x20 ADD DUP1 DUP4 GT PUSH2 0x2112 JUMPI DUP3 SWAP1 SUB PUSH1 0x1F AND DUP3 ADD SWAP2 JUMPDEST POP POP POP SWAP2 DUP4 MSTORE POP POP PUSH1 0x3 DUP3 ADD SLOAD PUSH1 0x1 PUSH1 0x1 PUSH1 0xA0 SHL SUB AND PUSH1 0x20 DUP3 ADD MSTORE PUSH1 0x4 DUP3 ADD SLOAD PUSH1 0x40 DUP3 ADD MSTORE PUSH1 0x5 DUP3 ADD SLOAD PUSH1 0x60 DUP3 ADD MSTORE PUSH1 0x6 DUP3 ADD SLOAD PUSH1 0x80 DUP3 ADD MSTORE PUSH1 0x7 DUP3 ADD SLOAD PUSH1 0xA0 DUP3 ADD MSTORE PUSH1 0x8 DUP3 ADD SLOAD PUSH1 0xC0 DUP3 ADD MSTORE PUSH1 0x9 DUP3 ADD SLOAD PUSH1 0xE0 DUP3 ADD MSTORE PUSH1 0xA DUP3 ADD SLOAD PUSH2 0x100 DUP1 DUP4 ADD SWAP2 SWAP1 SWAP2 MSTORE PUSH1 0xB SWAP1 SWAP3 ADD SLOAD PUSH1 0xFF DUP1 DUP3 AND ISZERO ISZERO PUSH2 0x120 DUP5 ADD MSTORE SWAP3 SWAP1 DIV SWAP1 SWAP2 AND ISZERO ISZERO PUSH2 0x140 SWAP1 SWAP2 ADD MSTORE SWAP3 SWAP2 POP POP JUMP JUMPDEST PUSH1 0x0 CALLER DUP2 PUSH2 0x21CB DUP3 DUP7 PUSH2 0x2B85 JUMP JUMPDEST SWAP1 POP DUP4 DUP2 LT ISZERO PUSH2 0x222B JUMPI PUSH1 0x40 MLOAD PUSH3 0x461BCD PUSH1 0xE5 SHL DUP2 MSTORE PUSH1 0x20 PUSH1 0x4 DUP3 ADD MSTORE PUSH1 0x25 PUSH1 0x24 DUP3 ADD MSTORE PUSH32 0x45524332303A2064656372656173656420616C6C6F77616E63652062656C6F77 PUSH1 0x44 DUP3 ADD MSTORE PUSH5 0x207A65726F PUSH1 0xD8 SHL PUSH1 0x64 DUP3 ADD MSTORE PUSH1 0x84 ADD PUSH2 0xAEF JUMP JUMPDEST PUSH2 0x11FB DUP3 DUP7 DUP7 DUP5 SUB PUSH2 0x2C26 JUMP JUMPDEST PUSH1 0x0 CALLER PUSH2 0xA97 DUP2 DUP6 DUP6 PUSH2 0x2F6E JUMP JUMPDEST PUSH1 0x60 PUSH1 0x0 PUSH1 0x1 JUMPDEST PUSH1 0x7 SLOAD DUP2 GT PUSH2 0x22B4 JUMPI PUSH1 0x0 DUP2 DUP2 MSTORE PUSH1 0xD PUSH1 0x20 MSTORE PUSH1 0x40 SWAP1 KECCAK256 PUSH1 0xB ADD SLOAD PUSH1 0xFF AND ISZERO DUP1 ISZERO PUSH2 0x228F JUMPI POP PUSH1 0x0 DUP2 DUP2 MSTORE PUSH1 0xD PUSH1 0x20 MSTORE PUSH1 0x40 SWAP1 KECCAK256 PUSH1 0xB ADD SLOAD PUSH2 0x100 SWAP1 DIV PUSH1 0xFF AND ISZERO JUMPDEST ISZERO PUSH2 0x22A2 JUMPI DUP2 PUSH2 0x229E DUP2 PUSH2 0x3CB5 JUMP JUMPDEST SWAP3 POP POP JUMPDEST DUP1 PUSH2 0x22AC DUP2 PUSH2 0x3CB5 JUMP JUMPDEST SWAP2 POP POP PUSH2 0x224D JUMP JUMPDEST POP DUP1 PUSH8 0xFFFFFFFFFFFFFFFF DUP2 GT ISZERO PUSH2 0x22CE JUMPI PUSH2 0x22CE PUSH2 0x3A07 JUMP JUMPDEST PUSH1 0x40 MLOAD SWAP1 DUP1 DUP3 MSTORE DUP1 PUSH1 0x20 MUL PUSH1 0x20 ADD DUP3 ADD PUSH1 0x40 MSTORE DUP1 ISZERO PUSH2 0x2307 JUMPI DUP2 PUSH1 0x20 ADD JUMPDEST PUSH2 0x22F4 PUSH2 0x3629 JUMP JUMPDEST DUP2 MSTORE PUSH1 0x20 ADD SWAP1 PUSH1 0x1 SWAP1 SUB SWAP1 DUP2 PUSH2 0x22EC JUMPI SWAP1 POP JUMPDEST POP SWAP2 POP PUSH1 0x0 PUSH1 0x1 JUMPDEST PUSH1 0x7 SLOAD DUP2 GT PUSH2 0x87A JUMPI PUSH1 0x0 DUP2 DUP2 MSTORE PUSH1 0xD PUSH1 0x20 MSTORE PUSH1 0x40 SWAP1 KECCAK256 PUSH1 0xB ADD SLOAD PUSH1 0xFF AND ISZERO DUP1 ISZERO PUSH2 0x2350 JUMPI POP PUSH1 0x0 DUP2 DUP2 MSTORE PUSH1 0xD PUSH1 0x20 MSTORE PUSH1 0x40 SWAP1 KECCAK256 PUSH1 0xB ADD SLOAD PUSH2 0x100 SWAP1 DIV PUSH1 0xFF AND JUMPDEST ISZERO PUSH2 0x2541 JUMPI PUSH1 0xD PUSH1 0x0 DUP3 DUP2 MSTORE PUSH1 0x20 ADD SWAP1 DUP2 MSTORE PUSH1 0x20 ADD PUSH1 0x0 KECCAK256 PUSH1 0x40 MLOAD DUP1 PUSH2 0x1A0 ADD PUSH1 0x40 MSTORE SWAP1 DUP2 PUSH1 0x0 DUP3 ADD SLOAD DUP2 MSTORE PUSH1 0x20 ADD PUSH1 0x1 DUP3 ADD DUP1 SLOAD PUSH2 0x238E SWAP1 PUSH2 0x3CCE JUMP JUMPDEST DUP1 PUSH1 0x1F ADD PUSH1 0x20 DUP1 SWAP2 DIV MUL PUSH1 0x20 ADD PUSH1 0x40 MLOAD SWAP1 DUP2 ADD PUSH1 0x40 MSTORE DUP1 SWAP3 SWAP2 SWAP1 DUP2 DUP2 MSTORE PUSH1 0x20 ADD DUP3 DUP1 SLOAD PUSH2 0x23BA SWAP1 PUSH2 0x3CCE JUMP JUMPDEST DUP1 ISZERO PUSH2 0x2407 JUMPI DUP1 PUSH1 0x1F LT PUSH2 0x23DC JUMPI PUSH2 0x100 DUP1 DUP4 SLOAD DIV MUL DUP4 MSTORE SWAP2 PUSH1 0x20 ADD SWAP2 PUSH2 0x2407 JUMP JUMPDEST DUP3 ADD SWAP2 SWAP1 PUSH1 0x0 MSTORE PUSH1 0x20 PUSH1 0x0 KECCAK256 SWAP1 JUMPDEST DUP2 SLOAD DUP2 MSTORE SWAP1 PUSH1 0x1 ADD SWAP1 PUSH1 0x20 ADD DUP1 DUP4 GT PUSH2 0x23EA JUMPI DUP3 SWAP1 SUB PUSH1 0x1F AND DUP3 ADD SWAP2 JUMPDEST POP POP POP POP POP DUP2 MSTORE PUSH1 0x20 ADD PUSH1 0x2 DUP3 ADD DUP1 SLOAD PUSH2 0x2420 SWAP1 PUSH2 0x3CCE JUMP JUMPDEST DUP1 PUSH1 0x1F ADD PUSH1 0x20 DUP1 SWAP2 DIV MUL PUSH1 0x20 ADD PUSH1 0x40 MLOAD SWAP1 DUP2 ADD PUSH1 0x40 MSTORE DUP1 SWAP3 SWAP2 SWAP1 DUP2 DUP2 MSTORE PUSH1 0x20 ADD DUP3 DUP1 SLOAD PUSH2 0x244C SWAP1 PUSH2 0x3CCE JUMP JUMPDEST DUP1 ISZERO PUSH2 0x2499 JUMPI DUP1 PUSH1 0x1F LT PUSH2 0x246E JUMPI PUSH2 0x100 DUP1 DUP4 SLOAD DIV MUL DUP4 MSTORE SWAP2 PUSH1 0x20 ADD SWAP2 PUSH2 0x2499 JUMP JUMPDEST DUP3 ADD SWAP2 SWAP1 PUSH1 0x0 MSTORE PUSH1 0x20 PUSH1 0x0 KECCAK256 SWAP1 JUMPDEST DUP2 SLOAD DUP2 MSTORE SWAP1 PUSH1 0x1 ADD SWAP1 PUSH1 0x20 ADD DUP1 DUP4 GT PUSH2 0x247C JUMPI DUP3 SWAP1 SUB PUSH1 0x1F AND DUP3 ADD SWAP2 JUMPDEST POP POP POP SWAP2 DUP4 MSTORE POP POP PUSH1 0x3 DUP3 ADD SLOAD PUSH1 0x1 PUSH1 0x1 PUSH1 0xA0 SHL SUB AND PUSH1 0x20 DUP3 ADD MSTORE PUSH1 0x4 DUP3 ADD SLOAD PUSH1 0x40 DUP3 ADD MSTORE PUSH1 0x5 DUP3 ADD SLOAD PUSH1 0x60 DUP3 ADD MSTORE PUSH1 0x6 DUP3 ADD SLOAD PUSH1 0x80 DUP3 ADD MSTORE PUSH1 0x7 DUP3 ADD SLOAD PUSH1 0xA0 DUP3 ADD MSTORE PUSH1 0x8 DUP3 ADD SLOAD PUSH1 0xC0 DUP3 ADD MSTORE PUSH1 0x9 DUP3 ADD SLOAD PUSH1 0xE0 DUP3 ADD MSTORE PUSH1 0xA DUP3 ADD SLOAD PUSH2 0x100 DUP1 DUP4 ADD SWAP2 SWAP1 SWAP2 MSTORE PUSH1 0xB SWAP1 SWAP3 ADD SLOAD PUSH1 0xFF DUP1 DUP3 AND ISZERO ISZERO PUSH2 0x120 DUP5 ADD MSTORE SWAP3 SWAP1 DIV SWAP1 SWAP2 AND ISZERO ISZERO PUSH2 0x140 SWAP1 SWAP2 ADD MSTORE DUP5 MLOAD DUP6 SWAP1 DUP5 SWAP1 DUP2 LT PUSH2 0x2535 JUMPI PUSH2 0x2535 PUSH2 0x3D08 JUMP JUMPDEST PUSH1 0x20 MUL PUSH1 0x20 ADD ADD DUP2 SWAP1 MSTORE POP JUMPDEST DUP1 PUSH2 0x254B DUP2 PUSH2 0x3CB5 JUMP JUMPDEST SWAP2 POP POP PUSH2 0x230F JUMP JUMPDEST PUSH2 0x255B PUSH2 0x325D JUMP JUMPDEST PUSH1 0x0 DUP2 DUP2 MSTORE PUSH1 0xC PUSH1 0x20 MSTORE PUSH1 0x40 SWAP1 KECCAK256 SLOAD PUSH1 0xFF AND PUSH2 0x25AF JUMPI PUSH1 0x40 MLOAD PUSH3 0x461BCD PUSH1 0xE5 SHL DUP2 MSTORE PUSH1 0x20 PUSH1 0x4 DUP3 ADD MSTORE PUSH1 0x13 PUSH1 0x24 DUP3 ADD MSTORE PUSH19 0x11D85B5948191BD95CC81B9BDD08195E1A5CDD PUSH1 0x6A SHL PUSH1 0x44 DUP3 ADD MSTORE PUSH1 0x64 ADD PUSH2 0xAEF JUMP JUMPDEST PUSH1 0x0 DUP2 DUP2 MSTORE PUSH1 0xD PUSH1 0x20 MSTORE PUSH1 0x40 SWAP1 KECCAK256 PUSH1 0x9 ADD SLOAD PUSH2 0x25C9 PUSH2 0x2D4A JUMP JUMPDEST GT PUSH2 0x2616 JUMPI PUSH1 0x40 MLOAD PUSH3 0x461BCD PUSH1 0xE5 SHL DUP2 MSTORE PUSH1 0x20 PUSH1 0x4 DUP3 ADD MSTORE PUSH1 0x18 PUSH1 0x24 DUP3 ADD MSTORE PUSH32 0x47616D65206973207374696C6C20696E2073657373696F6E0000000000000000 PUSH1 0x44 DUP3 ADD MSTORE PUSH1 0x64 ADD PUSH2 0xAEF JUMP JUMPDEST PUSH1 0x0 DUP2 DUP2 MSTORE PUSH1 0xD PUSH1 0x20 MSTORE PUSH1 0x40 SWAP1 KECCAK256 PUSH1 0xB ADD SLOAD PUSH2 0x100 SWAP1 DIV PUSH1 0xFF AND ISZERO PUSH2 0x267D JUMPI PUSH1 0x40 MLOAD PUSH3 0x461BCD PUSH1 0xE5 SHL DUP2 MSTORE PUSH1 0x20 PUSH1 0x4 DUP3 ADD MSTORE PUSH1 0x18 PUSH1 0x24 DUP3 ADD MSTORE PUSH32 0x47616D6520697320616C72656164792070616964206F75740000000000000000 PUSH1 0x44 DUP3 ADD MSTORE PUSH1 0x64 ADD PUSH2 0xAEF JUMP JUMPDEST PUSH1 0x0 PUSH1 0xD PUSH1 0x0 DUP4 DUP2 MSTORE PUSH1 0x20 ADD SWAP1 DUP2 MSTORE PUSH1 0x20 ADD PUSH1 0x0 KECCAK256 PUSH1 0x40 MLOAD DUP1 PUSH2 0x1A0 ADD PUSH1 0x40 MSTORE SWAP1 DUP2 PUSH1 0x0 DUP3 ADD SLOAD DUP2 MSTORE PUSH1 0x20 ADD PUSH1 0x1 DUP3 ADD DUP1 SLOAD PUSH2 0x26B8 SWAP1 PUSH2 0x3CCE JUMP JUMPDEST DUP1 PUSH1 0x1F ADD PUSH1 0x20 DUP1 SWAP2 DIV MUL PUSH1 0x20 ADD PUSH1 0x40 MLOAD SWAP1 DUP2 ADD PUSH1 0x40 MSTORE DUP1 SWAP3 SWAP2 SWAP1 DUP2 DUP2 MSTORE PUSH1 0x20 ADD DUP3 DUP1 SLOAD PUSH2 0x26E4 SWAP1 PUSH2 0x3CCE JUMP JUMPDEST DUP1 ISZERO PUSH2 0x2731 JUMPI DUP1 PUSH1 0x1F LT PUSH2 0x2706 JUMPI PUSH2 0x100 DUP1 DUP4 SLOAD DIV MUL DUP4 MSTORE SWAP2 PUSH1 0x20 ADD SWAP2 PUSH2 0x2731 JUMP JUMPDEST DUP3 ADD SWAP2 SWAP1 PUSH1 0x0 MSTORE PUSH1 0x20 PUSH1 0x0 KECCAK256 SWAP1 JUMPDEST DUP2 SLOAD DUP2 MSTORE SWAP1 PUSH1 0x1 ADD SWAP1 PUSH1 0x20 ADD DUP1 DUP4 GT PUSH2 0x2714 JUMPI DUP3 SWAP1 SUB PUSH1 0x1F AND DUP3 ADD SWAP2 JUMPDEST POP POP POP POP POP DUP2 MSTORE PUSH1 0x20 ADD PUSH1 0x2 DUP3 ADD DUP1 SLOAD PUSH2 0x274A SWAP1 PUSH2 0x3CCE JUMP JUMPDEST DUP1 PUSH1 0x1F ADD PUSH1 0x20 DUP1 SWAP2 DIV MUL PUSH1 0x20 ADD PUSH1 0x40 MLOAD SWAP1 DUP2 ADD PUSH1 0x40 MSTORE DUP1 SWAP3 SWAP2 SWAP1 DUP2 DUP2 MSTORE PUSH1 0x20 ADD DUP3 DUP1 SLOAD PUSH2 0x2776 SWAP1 PUSH2 0x3CCE JUMP JUMPDEST DUP1 ISZERO PUSH2 0x27C3 JUMPI DUP1 PUSH1 0x1F LT PUSH2 0x2798 JUMPI PUSH2 0x100 DUP1 DUP4 SLOAD DIV MUL DUP4 MSTORE SWAP2 PUSH1 0x20 ADD SWAP2 PUSH2 0x27C3 JUMP JUMPDEST DUP3 ADD SWAP2 SWAP1 PUSH1 0x0 MSTORE PUSH1 0x20 PUSH1 0x0 KECCAK256 SWAP1 JUMPDEST DUP2 SLOAD DUP2 MSTORE SWAP1 PUSH1 0x1 ADD SWAP1 PUSH1 0x20 ADD DUP1 DUP4 GT PUSH2 0x27A6 JUMPI DUP3 SWAP1 SUB PUSH1 0x1F AND DUP3 ADD SWAP2 JUMPDEST POP POP POP SWAP2 DUP4 MSTORE POP POP PUSH1 0x3 DUP3 ADD SLOAD PUSH1 0x1 PUSH1 0x1 PUSH1 0xA0 SHL SUB AND PUSH1 0x20 DUP3 ADD MSTORE PUSH1 0x4 DUP3 ADD SLOAD PUSH1 0x40 DUP3 ADD MSTORE PUSH1 0x5 DUP3 ADD SLOAD PUSH1 0x60 DUP3 ADD MSTORE PUSH1 0x6 DUP3 ADD SLOAD PUSH1 0x80 DUP3 ADD MSTORE PUSH1 0x7 DUP3 ADD SLOAD PUSH1 0xA0 DUP3 ADD MSTORE PUSH1 0x8 DUP3 ADD SLOAD PUSH1 0xC0 DUP1 DUP4 ADD SWAP2 SWAP1 SWAP2 MSTORE PUSH1 0x9 DUP4 ADD SLOAD PUSH1 0xE0 DUP1 DUP5 ADD SWAP2 SWAP1 SWAP2 MSTORE PUSH1 0xA DUP5 ADD SLOAD PUSH2 0x100 DUP1 DUP6 ADD SWAP2 SWAP1 SWAP2 MSTORE PUSH1 0xB SWAP1 SWAP5 ADD SLOAD PUSH1 0xFF DUP1 DUP3 AND ISZERO ISZERO PUSH2 0x120 DUP7 ADD MSTORE SWAP5 SWAP1 DIV SWAP1 SWAP4 AND ISZERO ISZERO PUSH2 0x140 SWAP1 SWAP3 ADD SWAP2 SWAP1 SWAP2 MSTORE DUP3 ADD MLOAD SWAP1 DUP3 ADD MLOAD SWAP2 SWAP3 POP PUSH1 0x0 SWAP2 PUSH2 0x286C SWAP2 PUSH2 0x32B6 JUMP JUMPDEST SWAP1 POP PUSH1 0x0 PUSH2 0x2890 PUSH1 0x64 PUSH2 0x288A PUSH1 0xB SLOAD DUP6 PUSH2 0x32B6 SWAP1 SWAP2 SWAP1 PUSH4 0xFFFFFFFF AND JUMP JUMPDEST SWAP1 PUSH2 0x32C9 JUMP JUMPDEST SWAP1 POP PUSH1 0x0 PUSH2 0x289F DUP3 PUSH1 0x2 PUSH2 0x32C9 JUMP JUMPDEST SWAP1 POP PUSH1 0x0 PUSH2 0x28B7 DUP3 PUSH2 0x28B1 DUP7 DUP7 PUSH2 0x32D5 JUMP JUMPDEST SWAP1 PUSH2 0x32D5 JUMP JUMPDEST SWAP1 POP PUSH2 0x28D4 PUSH2 0x28CE PUSH1 0x0 SLOAD PUSH1 0x1 PUSH1 0x1 PUSH1 0xA0 SHL SUB AND SWAP1 JUMP JUMPDEST DUP5 PUSH2 0x3119 JUMP JUMPDEST PUSH2 0x28E2 DUP6 PUSH1 0x60 ADD MLOAD DUP4 PUSH2 0x3119 JUMP JUMPDEST PUSH1 0x0 DUP7 DUP2 MSTORE PUSH1 0xF PUSH1 0x20 MSTORE PUSH1 0x40 DUP2 KECCAK256 SLOAD PUSH8 0xFFFFFFFFFFFFFFFF DUP2 GT ISZERO PUSH2 0x2909 JUMPI PUSH2 0x2909 PUSH2 0x3A07 JUMP JUMPDEST PUSH1 0x40 MLOAD SWAP1 DUP1 DUP3 MSTORE DUP1 PUSH1 0x20 MUL PUSH1 0x20 ADD DUP3 ADD PUSH1 0x40 MSTORE DUP1 ISZERO PUSH2 0x2942 JUMPI DUP2 PUSH1 0x20 ADD JUMPDEST PUSH2 0x292F PUSH2 0x3700 JUMP JUMPDEST DUP2 MSTORE PUSH1 0x20 ADD SWAP1 PUSH1 0x1 SWAP1 SUB SWAP1 DUP2 PUSH2 0x2927 JUMPI SWAP1 POP JUMPDEST POP PUSH1 0x0 DUP9 DUP2 MSTORE PUSH1 0xF PUSH1 0x20 SWAP1 DUP2 MSTORE PUSH1 0x40 DUP1 DUP4 KECCAK256 DUP1 SLOAD DUP3 MLOAD DUP2 DUP6 MUL DUP2 ADD DUP6 ADD SWAP1 SWAP4 MSTORE DUP1 DUP4 MSTORE SWAP5 SWAP6 POP PUSH2 0x29F2 SWAP5 SWAP2 SWAP4 SWAP1 SWAP3 DUP5 ADD JUMPDEST DUP3 DUP3 LT ISZERO PUSH2 0x29E9 JUMPI PUSH1 0x0 DUP5 DUP2 MSTORE PUSH1 0x20 SWAP1 DUP2 SWAP1 KECCAK256 PUSH1 0x40 DUP1 MLOAD PUSH1 0xC0 DUP2 ADD DUP3 MSTORE PUSH1 0x6 DUP7 MUL SWAP1 SWAP3 ADD DUP1 SLOAD DUP4 MSTORE PUSH1 0x1 DUP1 DUP3 ADD SLOAD DUP5 DUP7 ADD MSTORE PUSH1 0x2 DUP3 ADD SLOAD PUSH1 0x1 PUSH1 0x1 PUSH1 0xA0 SHL SUB AND SWAP3 DUP5 ADD SWAP3 SWAP1 SWAP3 MSTORE PUSH1 0x3 DUP2 ADD SLOAD PUSH1 0x60 DUP5 ADD MSTORE PUSH1 0x4 DUP2 ADD SLOAD PUSH1 0x80 DUP5 ADD MSTORE PUSH1 0x5 ADD SLOAD PUSH1 0xFF AND ISZERO ISZERO PUSH1 0xA0 DUP4 ADD MSTORE SWAP1 DUP4 MSTORE SWAP1 SWAP3 ADD SWAP2 ADD PUSH2 0x2973 JUMP JUMPDEST POP POP POP POP PUSH2 0x32E1 JUMP JUMPDEST SWAP1 POP PUSH1 0x0 JUMPDEST DUP7 PUSH1 0xA0 ADD MLOAD DUP2 LT ISZERO PUSH2 0x2B53 JUMPI PUSH1 0x0 PUSH2 0x2A1C DUP9 PUSH1 0xA0 ADD MLOAD DUP6 PUSH2 0x32C9 SWAP1 SWAP2 SWAP1 PUSH4 0xFFFFFFFF AND JUMP JUMPDEST SWAP1 POP PUSH2 0x2A45 DUP4 DUP4 DUP2 MLOAD DUP2 LT PUSH2 0x2A33 JUMPI PUSH2 0x2A33 PUSH2 0x3D08 JUMP JUMPDEST PUSH1 0x20 MUL PUSH1 0x20 ADD ADD MLOAD PUSH1 0x40 ADD MLOAD DUP3 PUSH2 0x3119 JUMP JUMPDEST PUSH2 0x2A6C DUP4 DUP4 DUP2 MLOAD DUP2 LT PUSH2 0x2A5A JUMPI PUSH2 0x2A5A PUSH2 0x3D08 JUMP JUMPDEST PUSH1 0x20 MUL PUSH1 0x20 ADD ADD MLOAD PUSH1 0x40 ADD MLOAD DUP3 PUSH2 0x3556 JUMP JUMPDEST PUSH1 0x0 JUMPDEST PUSH1 0x0 DUP11 DUP2 MSTORE PUSH1 0xF PUSH1 0x20 MSTORE PUSH1 0x40 SWAP1 KECCAK256 SLOAD DUP2 LT ISZERO PUSH2 0x2B3E JUMPI PUSH1 0x0 DUP11 DUP2 MSTORE PUSH1 0xF PUSH1 0x20 MSTORE PUSH1 0x40 SWAP1 KECCAK256 DUP1 SLOAD DUP3 SWAP1 DUP2 LT PUSH2 0x2AA5 JUMPI PUSH2 0x2AA5 PUSH2 0x3D08 JUMP JUMPDEST PUSH1 0x0 SWAP2 DUP3 MSTORE PUSH1 0x20 SWAP1 SWAP2 KECCAK256 PUSH1 0x2 PUSH1 0x6 SWAP1 SWAP3 MUL ADD ADD SLOAD DUP5 MLOAD PUSH1 0x1 PUSH1 0x1 PUSH1 0xA0 SHL SUB SWAP1 SWAP2 AND SWAP1 DUP6 SWAP1 DUP6 SWAP1 DUP2 LT PUSH2 0x2AD9 JUMPI PUSH2 0x2AD9 PUSH2 0x3D08 JUMP JUMPDEST PUSH1 0x20 MUL PUSH1 0x20 ADD ADD MLOAD PUSH1 0x40 ADD MLOAD PUSH1 0x1 PUSH1 0x1 PUSH1 0xA0 SHL SUB AND SUB PUSH2 0x2B2C JUMPI PUSH1 0x0 DUP11 DUP2 MSTORE PUSH1 0xF PUSH1 0x20 MSTORE PUSH1 0x40 SWAP1 KECCAK256 DUP1 SLOAD DUP4 SWAP2 SWAP1 DUP4 SWAP1 DUP2 LT PUSH2 0x2B16 JUMPI PUSH2 0x2B16 PUSH2 0x3D08 JUMP JUMPDEST SWAP1 PUSH1 0x0 MSTORE PUSH1 0x20 PUSH1 0x0 KECCAK256 SWAP1 PUSH1 0x6 MUL ADD PUSH1 0x4 ADD DUP2 SWAP1 SSTORE POP JUMPDEST DUP1 PUSH2 0x2B36 DUP2 PUSH2 0x3CB5 JUMP JUMPDEST SWAP2 POP POP PUSH2 0x2A6F JUMP JUMPDEST POP POP DUP1 DUP1 PUSH2 0x2B4B SWAP1 PUSH2 0x3CB5 JUMP JUMPDEST SWAP2 POP POP PUSH2 0x29F7 JUMP JUMPDEST POP POP POP PUSH1 0x0 DUP6 DUP2 MSTORE PUSH1 0xD PUSH1 0x20 MSTORE PUSH1 0x40 SWAP1 KECCAK256 PUSH1 0xB ADD DUP1 SLOAD PUSH2 0xFF00 NOT AND PUSH2 0x100 OR SWAP1 SSTORE POP PUSH2 0x2B82 SWAP3 POP PUSH2 0x3617 SWAP2 POP POP JUMP JUMPDEST POP JUMP JUMPDEST PUSH1 0x1 PUSH1 0x1 PUSH1 0xA0 SHL SUB SWAP2 DUP3 AND PUSH1 0x0 SWAP1 DUP2 MSTORE PUSH1 0x3 PUSH1 0x20 SWAP1 DUP2 MSTORE PUSH1 0x40 DUP1 DUP4 KECCAK256 SWAP4 SWAP1 SWAP5 AND DUP3 MSTORE SWAP2 SWAP1 SWAP2 MSTORE KECCAK256 SLOAD SWAP1 JUMP JUMPDEST PUSH2 0x2BB8 PUSH2 0x31B3 JUMP JUMPDEST PUSH1 0x1 PUSH1 0x1 PUSH1 0xA0 SHL SUB DUP2 AND PUSH2 0x2C1D JUMPI PUSH1 0x40 MLOAD PUSH3 0x461BCD PUSH1 0xE5 SHL DUP2 MSTORE PUSH1 0x20 PUSH1 0x4 DUP3 ADD MSTORE PUSH1 0x26 PUSH1 0x24 DUP3 ADD MSTORE PUSH32 0x4F776E61626C653A206E6577206F776E657220697320746865207A65726F2061 PUSH1 0x44 DUP3 ADD MSTORE PUSH6 0x646472657373 PUSH1 0xD0 SHL PUSH1 0x64 DUP3 ADD MSTORE PUSH1 0x84 ADD PUSH2 0xAEF JUMP JUMPDEST PUSH2 0x2B82 DUP2 PUSH2 0x320D JUMP JUMPDEST PUSH1 0x1 PUSH1 0x1 PUSH1 0xA0 SHL SUB DUP4 AND PUSH2 0x2C88 JUMPI PUSH1 0x40 MLOAD PUSH3 0x461BCD PUSH1 0xE5 SHL DUP2 MSTORE PUSH1 0x20 PUSH1 0x4 DUP3 ADD MSTORE PUSH1 0x24 DUP1 DUP3 ADD MSTORE PUSH32 0x45524332303A20617070726F76652066726F6D20746865207A65726F20616464 PUSH1 0x44 DUP3 ADD MSTORE PUSH4 0x72657373 PUSH1 0xE0 SHL PUSH1 0x64 DUP3 ADD MSTORE PUSH1 0x84 ADD PUSH2 0xAEF JUMP JUMPDEST PUSH1 0x1 PUSH1 0x1 PUSH1 0xA0 SHL SUB DUP3 AND PUSH2 0x2CE9 JUMPI PUSH1 0x40 MLOAD PUSH3 0x461BCD PUSH1 0xE5 SHL DUP2 MSTORE PUSH1 0x20 PUSH1 0x4 DUP3 ADD MSTORE PUSH1 0x22 PUSH1 0x24 DUP3 ADD MSTORE PUSH32 0x45524332303A20617070726F766520746F20746865207A65726F206164647265 PUSH1 0x44 DUP3 ADD MSTORE PUSH2 0x7373 PUSH1 0xF0 SHL PUSH1 0x64 DUP3 ADD MSTORE PUSH1 0x84 ADD PUSH2 0xAEF JUMP JUMPDEST PUSH1 0x1 PUSH1 0x1 PUSH1 0xA0 SHL SUB DUP4 DUP2 AND PUSH1 0x0 DUP2 DUP2 MSTORE PUSH1 0x3 PUSH1 0x20 SWAP1 DUP2 MSTORE PUSH1 0x40 DUP1 DUP4 KECCAK256 SWAP5 DUP8 AND DUP1 DUP5 MSTORE SWAP5 DUP3 MSTORE SWAP2 DUP3 SWAP1 KECCAK256 DUP6 SWAP1 SSTORE SWAP1 MLOAD DUP5 DUP2 MSTORE PUSH32 0x8C5BE1E5EBEC7D5BD14F71427D1E84F3DD0314C0F7B2291E5B200AC8C7C3B925 SWAP2 ADD PUSH1 0x40 MLOAD DUP1 SWAP2 SUB SWAP1 LOG3 POP POP POP JUMP JUMPDEST PUSH1 0x0 PUSH2 0x2D58 TIMESTAMP PUSH2 0x3E8 PUSH2 0x3EAA JUMP JUMPDEST PUSH2 0x2D64 SWAP1 PUSH2 0x3E8 PUSH2 0x3E97 JUMP JUMPDEST SWAP1 POP SWAP1 JUMP JUMPDEST PUSH1 0x0 PUSH2 0x2D79 PUSH1 0x8 DUP1 SLOAD PUSH1 0x1 ADD SWAP1 SSTORE JUMP JUMPDEST PUSH1 0x0 PUSH1 0x40 MLOAD DUP1 PUSH1 0x60 ADD PUSH1 0x40 MSTORE DUP1 PUSH2 0x2D8F PUSH1 0x8 SLOAD SWAP1 JUMP JUMPDEST DUP2 MSTORE PUSH1 0x20 DUP1 DUP3 ADD DUP7 SWAP1 MSTORE CALLER PUSH1 0x40 SWAP3 DUP4 ADD DUP2 SWAP1 MSTORE PUSH1 0x0 DUP8 DUP2 MSTORE PUSH1 0xE DUP4 MSTORE DUP4 DUP2 KECCAK256 DUP1 SLOAD PUSH1 0x1 DUP1 DUP3 ADD DUP4 SSTORE SWAP2 DUP4 MSTORE DUP5 DUP4 KECCAK256 DUP8 MLOAD PUSH1 0x3 SWAP1 SWAP3 MUL ADD SWAP1 DUP2 SSTORE DUP7 DUP6 ADD MLOAD DUP2 DUP4 ADD SSTORE DUP7 DUP7 ADD MLOAD PUSH1 0x2 SWAP1 SWAP2 ADD DUP1 SLOAD PUSH1 0x1 PUSH1 0x1 PUSH1 0xA0 SHL SUB NOT AND PUSH1 0x1 PUSH1 0x1 PUSH1 0xA0 SHL SUB SWAP1 SWAP3 AND SWAP2 SWAP1 SWAP2 OR SWAP1 SSTORE DUP9 DUP3 MSTORE PUSH1 0x10 DUP5 MSTORE DUP5 DUP3 KECCAK256 SWAP3 DUP3 MSTORE SWAP2 DUP4 MSTORE DUP4 DUP2 KECCAK256 DUP1 SLOAD PUSH1 0xFF NOT AND SWAP1 SWAP3 OR SWAP1 SWAP2 SSTORE DUP7 DUP2 MSTORE PUSH1 0xD SWAP1 SWAP2 MSTORE SWAP1 DUP2 KECCAK256 PUSH1 0x6 ADD DUP1 SLOAD SWAP3 SWAP4 POP SWAP1 PUSH2 0x2E32 DUP4 PUSH2 0x3CB5 JUMP JUMPDEST SWAP1 SWAP2 SSTORE POP POP PUSH1 0xA SLOAD PUSH2 0x2E44 SWAP1 CALLVALUE PUSH2 0x361D JUMP JUMPDEST PUSH1 0xA SSTORE POP PUSH1 0x1 SWAP3 SWAP2 POP POP JUMP JUMPDEST PUSH1 0x0 PUSH2 0x2E5A PUSH2 0x3700 JUMP JUMPDEST PUSH1 0x0 DUP4 DUP2 MSTORE PUSH1 0xF PUSH1 0x20 DUP2 DUP2 MSTORE PUSH1 0x40 DUP1 DUP5 KECCAK256 DUP1 SLOAD DUP1 DUP8 MSTORE DUP7 DUP5 ADD SWAP9 DUP10 MSTORE CALLER SWAP3 DUP8 ADD SWAP3 DUP4 MSTORE SWAP4 DUP4 MSTORE PUSH1 0x1 DUP1 DUP6 ADD DUP3 SSTORE SWAP1 DUP6 MSTORE SWAP2 SWAP1 SWAP4 KECCAK256 DUP5 MLOAD PUSH1 0x6 SWAP1 SWAP4 MUL ADD SWAP2 DUP3 SSTORE SWAP5 MLOAD DUP2 DUP7 ADD SSTORE SWAP1 MLOAD PUSH1 0x2 DUP3 ADD DUP1 SLOAD PUSH1 0x1 PUSH1 0x1 PUSH1 0xA0 SHL SUB NOT AND PUSH1 0x1 PUSH1 0x1 PUSH1 0xA0 SHL SUB SWAP1 SWAP3 AND SWAP2 SWAP1 SWAP2 OR SWAP1 SSTORE PUSH1 0x60 DUP3 ADD MLOAD PUSH1 0x3 DUP3 ADD SSTORE PUSH1 0x80 DUP3 ADD MLOAD PUSH1 0x4 DUP3 ADD SSTORE PUSH1 0xA0 SWAP1 SWAP2 ADD MLOAD PUSH1 0x5 SWAP1 SWAP2 ADD DUP1 SLOAD PUSH1 0xFF NOT AND SWAP2 ISZERO ISZERO SWAP2 SWAP1 SWAP2 OR SWAP1 SSTORE POP SWAP1 JUMP JUMPDEST PUSH1 0x0 PUSH2 0x2F00 DUP5 DUP5 PUSH2 0x2B85 JUMP JUMPDEST SWAP1 POP PUSH1 0x0 NOT DUP2 EQ PUSH2 0x2F68 JUMPI DUP2 DUP2 LT ISZERO PUSH2 0x2F5B JUMPI PUSH1 0x40 MLOAD PUSH3 0x461BCD PUSH1 0xE5 SHL DUP2 MSTORE PUSH1 0x20 PUSH1 0x4 DUP3 ADD MSTORE PUSH1 0x1D PUSH1 0x24 DUP3 ADD MSTORE PUSH32 0x45524332303A20696E73756666696369656E7420616C6C6F77616E6365000000 PUSH1 0x44 DUP3 ADD MSTORE PUSH1 0x64 ADD PUSH2 0xAEF JUMP JUMPDEST PUSH2 0x2F68 DUP5 DUP5 DUP5 DUP5 SUB PUSH2 0x2C26 JUMP JUMPDEST POP POP POP POP JUMP JUMPDEST PUSH1 0x1 PUSH1 0x1 PUSH1 0xA0 SHL SUB DUP4 AND PUSH2 0x2FD2 JUMPI PUSH1 0x40 MLOAD PUSH3 0x461BCD PUSH1 0xE5 SHL DUP2 MSTORE PUSH1 0x20 PUSH1 0x4 DUP3 ADD MSTORE PUSH1 0x25 PUSH1 0x24 DUP3 ADD MSTORE PUSH32 0x45524332303A207472616E736665722066726F6D20746865207A65726F206164 PUSH1 0x44 DUP3 ADD MSTORE PUSH5 0x6472657373 PUSH1 0xD8 SHL PUSH1 0x64 DUP3 ADD MSTORE PUSH1 0x84 ADD PUSH2 0xAEF JUMP JUMPDEST PUSH1 0x1 PUSH1 0x1 PUSH1 0xA0 SHL SUB DUP3 AND PUSH2 0x3034 JUMPI PUSH1 0x40 MLOAD PUSH3 0x461BCD PUSH1 0xE5 SHL DUP2 MSTORE PUSH1 0x20 PUSH1 0x4 DUP3 ADD MSTORE PUSH1 0x23 PUSH1 0x24 DUP3 ADD MSTORE PUSH32 0x45524332303A207472616E7366657220746F20746865207A65726F2061646472 PUSH1 0x44 DUP3 ADD MSTORE PUSH3 0x657373 PUSH1 0xE8 SHL PUSH1 0x64 DUP3 ADD MSTORE PUSH1 0x84 ADD PUSH2 0xAEF JUMP JUMPDEST PUSH1 0x1 PUSH1 0x1 PUSH1 0xA0 SHL SUB DUP4 AND PUSH1 0x0 SWAP1 DUP2 MSTORE PUSH1 0x2 PUSH1 0x20 MSTORE PUSH1 0x40 SWAP1 KECCAK256 SLOAD DUP2 DUP2 LT ISZERO PUSH2 0x30AC JUMPI PUSH1 0x40 MLOAD PUSH3 0x461BCD PUSH1 0xE5 SHL DUP2 MSTORE PUSH1 0x20 PUSH1 0x4 DUP3 ADD MSTORE PUSH1 0x26 PUSH1 0x24 DUP3 ADD MSTORE PUSH32 0x45524332303A207472616E7366657220616D6F756E7420657863656564732062 PUSH1 0x44 DUP3 ADD MSTORE PUSH6 0x616C616E6365 PUSH1 0xD0 SHL PUSH1 0x64 DUP3 ADD MSTORE PUSH1 0x84 ADD PUSH2 0xAEF JUMP JUMPDEST PUSH1 0x1 PUSH1 0x1 PUSH1 0xA0 SHL SUB DUP1 DUP6 AND PUSH1 0x0 DUP2 DUP2 MSTORE PUSH1 0x2 PUSH1 0x20 MSTORE PUSH1 0x40 DUP1 DUP3 KECCAK256 DUP7 DUP7 SUB SWAP1 SSTORE SWAP3 DUP7 AND DUP1 DUP3 MSTORE SWAP1 DUP4 SWAP1 KECCAK256 DUP1 SLOAD DUP7 ADD SWAP1 SSTORE SWAP2 MLOAD PUSH32 0xDDF252AD1BE2C89B69C2B068FC378DAA952BA7F163C4A11628F55A4DF523B3EF SWAP1 PUSH2 0x310C SWAP1 DUP7 DUP2 MSTORE PUSH1 0x20 ADD SWAP1 JUMP JUMPDEST PUSH1 0x40 MLOAD DUP1 SWAP2 SUB SWAP1 LOG3 PUSH2 0x2F68 JUMP JUMPDEST PUSH1 0x0 DUP3 PUSH1 0x1 PUSH1 0x1 PUSH1 0xA0 SHL SUB AND DUP3 PUSH1 0x40 MLOAD PUSH1 0x0 PUSH1 0x40 MLOAD DUP1 DUP4 SUB DUP2 DUP6 DUP8 GAS CALL SWAP3 POP POP POP RETURNDATASIZE DUP1 PUSH1 0x0 DUP2 EQ PUSH2 0x3166 JUMPI PUSH1 0x40 MLOAD SWAP2 POP PUSH1 0x1F NOT PUSH1 0x3F RETURNDATASIZE ADD AND DUP3 ADD PUSH1 0x40 MSTORE RETURNDATASIZE DUP3 MSTORE RETURNDATASIZE PUSH1 0x0 PUSH1 0x20 DUP5 ADD RETURNDATACOPY PUSH2 0x316B JUMP JUMPDEST PUSH1 0x60 SWAP2 POP JUMPDEST POP POP SWAP1 POP DUP1 PUSH2 0x31AE JUMPI PUSH1 0x40 MLOAD PUSH3 0x461BCD PUSH1 0xE5 SHL DUP2 MSTORE PUSH1 0x20 PUSH1 0x4 DUP3 ADD MSTORE PUSH1 0xF PUSH1 0x24 DUP3 ADD MSTORE PUSH15 0x151C985B9CD9995C8819985A5B1959 PUSH1 0x8A SHL PUSH1 0x44 DUP3 ADD MSTORE PUSH1 0x64 ADD PUSH2 0xAEF JUMP JUMPDEST POP POP POP JUMP JUMPDEST PUSH1 0x0 SLOAD PUSH1 0x1 PUSH1 0x1 PUSH1 0xA0 SHL SUB AND CALLER EQ PUSH2 0x16E8 JUMPI PUSH1 0x40 MLOAD PUSH3 0x461BCD PUSH1 0xE5 SHL DUP2 MSTORE PUSH1 0x20 PUSH1 0x4 DUP3 ADD DUP2 SWAP1 MSTORE PUSH1 0x24 DUP3 ADD MSTORE PUSH32 0x4F776E61626C653A2063616C6C6572206973206E6F7420746865206F776E6572 PUSH1 0x44 DUP3 ADD MSTORE PUSH1 0x64 ADD PUSH2 0xAEF JUMP JUMPDEST PUSH1 0x0 DUP1 SLOAD PUSH1 0x1 PUSH1 0x1 PUSH1 0xA0 SHL SUB DUP4 DUP2 AND PUSH1 0x1 PUSH1 0x1 PUSH1 0xA0 SHL SUB NOT DUP4 AND DUP2 OR DUP5 SSTORE PUSH1 0x40 MLOAD SWAP2 SWAP1 SWAP3 AND SWAP3 DUP4 SWAP2 PUSH32 0x8BE0079C531659141344CD1FD0A4F28419497F9722A3DAAFE3B4186F6B6457E0 SWAP2 SWAP1 LOG3 POP POP JUMP JUMPDEST PUSH1 0x2 PUSH1 0x1 SLOAD SUB PUSH2 0x32AF JUMPI PUSH1 0x40 MLOAD PUSH3 0x461BCD PUSH1 0xE5 SHL DUP2 MSTORE PUSH1 0x20 PUSH1 0x4 DUP3 ADD MSTORE PUSH1 0x1F PUSH1 0x24 DUP3 ADD MSTORE PUSH32 0x5265656E7472616E637947756172643A207265656E7472616E742063616C6C00 PUSH1 0x44 DUP3 ADD MSTORE PUSH1 0x64 ADD PUSH2 0xAEF JUMP JUMPDEST PUSH1 0x2 PUSH1 0x1 SSTORE JUMP JUMPDEST PUSH1 0x0 PUSH2 0x32C2 DUP3 DUP5 PUSH2 0x3EAA JUMP JUMPDEST SWAP4 SWAP3 POP POP POP JUMP JUMPDEST PUSH1 0x0 PUSH2 0x32C2 DUP3 DUP5 PUSH2 0x3EC1 JUMP JUMPDEST PUSH1 0x0 PUSH2 0x32C2 DUP3 DUP5 PUSH2 0x3EE3 JUMP JUMPDEST DUP1 MLOAD PUSH1 0x60 SWAP1 PUSH1 0x0 JUMPDEST PUSH2 0x32F4 PUSH1 0x1 DUP4 PUSH2 0x3EE3 JUMP JUMPDEST DUP2 LT ISZERO PUSH2 0x354E JUMPI PUSH1 0x0 JUMPDEST PUSH1 0x1 PUSH2 0x330A DUP3 DUP6 PUSH2 0x3EE3 JUMP JUMPDEST PUSH2 0x3314 SWAP2 SWAP1 PUSH2 0x3EE3 JUMP JUMPDEST DUP2 LT ISZERO PUSH2 0x353B JUMPI DUP5 DUP2 DUP2 MLOAD DUP2 LT PUSH2 0x332D JUMPI PUSH2 0x332D PUSH2 0x3D08 JUMP JUMPDEST PUSH1 0x20 MUL PUSH1 0x20 ADD ADD MLOAD PUSH1 0xA0 ADD MLOAD DUP1 ISZERO PUSH2 0x3369 JUMPI POP DUP5 PUSH2 0x334C DUP3 PUSH1 0x1 PUSH2 0x3E97 JUMP JUMPDEST DUP2 MLOAD DUP2 LT PUSH2 0x335C JUMPI PUSH2 0x335C PUSH2 0x3D08 JUMP JUMPDEST PUSH1 0x20 MUL PUSH1 0x20 ADD ADD MLOAD PUSH1 0xA0 ADD MLOAD JUMPDEST ISZERO PUSH2 0x344A JUMPI DUP5 PUSH2 0x337A DUP3 PUSH1 0x1 PUSH2 0x3E97 JUMP JUMPDEST DUP2 MLOAD DUP2 LT PUSH2 0x338A JUMPI PUSH2 0x338A PUSH2 0x3D08 JUMP JUMPDEST PUSH1 0x20 MUL PUSH1 0x20 ADD ADD MLOAD PUSH1 0x60 ADD MLOAD DUP6 DUP3 DUP2 MLOAD DUP2 LT PUSH2 0x33A8 JUMPI PUSH2 0x33A8 PUSH2 0x3D08 JUMP JUMPDEST PUSH1 0x20 MUL PUSH1 0x20 ADD ADD MLOAD PUSH1 0x60 ADD MLOAD GT ISZERO PUSH2 0x3445 JUMPI PUSH1 0x0 DUP6 DUP3 DUP2 MLOAD DUP2 LT PUSH2 0x33CE JUMPI PUSH2 0x33CE PUSH2 0x3D08 JUMP JUMPDEST PUSH1 0x20 MUL PUSH1 0x20 ADD ADD MLOAD SWAP1 POP DUP6 DUP3 PUSH1 0x1 PUSH2 0x33E6 SWAP2 SWAP1 PUSH2 0x3E97 JUMP JUMPDEST DUP2 MLOAD DUP2 LT PUSH2 0x33F6 JUMPI PUSH2 0x33F6 PUSH2 0x3D08 JUMP JUMPDEST PUSH1 0x20 MUL PUSH1 0x20 ADD ADD MLOAD DUP7 DUP4 DUP2 MLOAD DUP2 LT PUSH2 0x3410 JUMPI PUSH2 0x3410 PUSH2 0x3D08 JUMP JUMPDEST PUSH1 0x20 SWAP1 DUP2 MUL SWAP2 SWAP1 SWAP2 ADD ADD MSTORE DUP1 DUP7 PUSH2 0x3428 DUP5 PUSH1 0x1 PUSH2 0x3E97 JUMP JUMPDEST DUP2 MLOAD DUP2 LT PUSH2 0x3438 JUMPI PUSH2 0x3438 PUSH2 0x3D08 JUMP JUMPDEST PUSH1 0x20 MUL PUSH1 0x20 ADD ADD DUP2 SWAP1 MSTORE POP POP JUMPDEST PUSH2 0x3529 JUMP JUMPDEST DUP5 DUP2 DUP2 MLOAD DUP2 LT PUSH2 0x345C JUMPI PUSH2 0x345C PUSH2 0x3D08 JUMP JUMPDEST PUSH1 0x20 MUL PUSH1 0x20 ADD ADD MLOAD PUSH1 0xA0 ADD MLOAD ISZERO DUP1 ISZERO PUSH2 0x3499 JUMPI POP DUP5 PUSH2 0x347C DUP3 PUSH1 0x1 PUSH2 0x3E97 JUMP JUMPDEST DUP2 MLOAD DUP2 LT PUSH2 0x348C JUMPI PUSH2 0x348C PUSH2 0x3D08 JUMP JUMPDEST PUSH1 0x20 MUL PUSH1 0x20 ADD ADD MLOAD PUSH1 0xA0 ADD MLOAD JUMPDEST ISZERO PUSH2 0x3529 JUMPI PUSH1 0x0 DUP6 DUP3 DUP2 MLOAD DUP2 LT PUSH2 0x34B2 JUMPI PUSH2 0x34B2 PUSH2 0x3D08 JUMP JUMPDEST PUSH1 0x20 MUL PUSH1 0x20 ADD ADD MLOAD SWAP1 POP DUP6 DUP3 PUSH1 0x1 PUSH2 0x34CA SWAP2 SWAP1 PUSH2 0x3E97 JUMP JUMPDEST DUP2 MLOAD DUP2 LT PUSH2 0x34DA JUMPI PUSH2 0x34DA PUSH2 0x3D08 JUMP JUMPDEST PUSH1 0x20 MUL PUSH1 0x20 ADD ADD MLOAD DUP7 DUP4 DUP2 MLOAD DUP2 LT PUSH2 0x34F4 JUMPI PUSH2 0x34F4 PUSH2 0x3D08 JUMP JUMPDEST PUSH1 0x20 SWAP1 DUP2 MUL SWAP2 SWAP1 SWAP2 ADD ADD MSTORE DUP1 DUP7 PUSH2 0x350C DUP5 PUSH1 0x1 PUSH2 0x3E97 JUMP JUMPDEST DUP2 MLOAD DUP2 LT PUSH2 0x351C JUMPI PUSH2 0x351C PUSH2 0x3D08 JUMP JUMPDEST PUSH1 0x20 MUL PUSH1 0x20 ADD ADD DUP2 SWAP1 MSTORE POP POP JUMPDEST DUP1 PUSH2 0x3533 DUP2 PUSH2 0x3CB5 JUMP JUMPDEST SWAP2 POP POP PUSH2 0x32FE JUMP JUMPDEST POP DUP1 PUSH2 0x3546 DUP2 PUSH2 0x3CB5 JUMP JUMPDEST SWAP2 POP POP PUSH2 0x32E9 JUMP JUMPDEST POP SWAP2 SWAP3 SWAP2 POP POP JUMP JUMPDEST PUSH1 0x1 PUSH1 0x1 PUSH1 0xA0 SHL SUB DUP3 AND PUSH2 0x35AC JUMPI PUSH1 0x40 MLOAD PUSH3 0x461BCD PUSH1 0xE5 SHL DUP2 MSTORE PUSH1 0x20 PUSH1 0x4 DUP3 ADD MSTORE PUSH1 0x1F PUSH1 0x24 DUP3 ADD MSTORE PUSH32 0x45524332303A206D696E7420746F20746865207A65726F206164647265737300 PUSH1 0x44 DUP3 ADD MSTORE PUSH1 0x64 ADD PUSH2 0xAEF JUMP JUMPDEST DUP1 PUSH1 0x4 PUSH1 0x0 DUP3 DUP3 SLOAD PUSH2 0x35BE SWAP2 SWAP1 PUSH2 0x3E97 JUMP JUMPDEST SWAP1 SWAP2 SSTORE POP POP PUSH1 0x1 PUSH1 0x1 PUSH1 0xA0 SHL SUB DUP3 AND PUSH1 0x0 DUP2 DUP2 MSTORE PUSH1 0x2 PUSH1 0x20 SWAP1 DUP2 MSTORE PUSH1 0x40 DUP1 DUP4 KECCAK256 DUP1 SLOAD DUP7 ADD SWAP1 SSTORE MLOAD DUP5 DUP2 MSTORE PUSH32 0xDDF252AD1BE2C89B69C2B068FC378DAA952BA7F163C4A11628F55A4DF523B3EF SWAP2 ADD PUSH1 0x40 MLOAD DUP1 SWAP2 SUB SWAP1 LOG3 POP POP JUMP JUMPDEST PUSH1 0x1 DUP1 SSTORE JUMP JUMPDEST PUSH1 0x0 PUSH2 0x32C2 DUP3 DUP5 PUSH2 0x3E97 JUMP JUMPDEST PUSH1 0x40 MLOAD DUP1 PUSH2 0x1A0 ADD PUSH1 0x40 MSTORE DUP1 PUSH1 0x0 DUP2 MSTORE PUSH1 0x20 ADD PUSH1 0x60 DUP2 MSTORE PUSH1 0x20 ADD PUSH1 0x60 DUP2 MSTORE PUSH1 0x20 ADD PUSH1 0x0 PUSH1 0x1 PUSH1 0x1 PUSH1 0xA0 SHL SUB AND DUP2 MSTORE PUSH1 0x20 ADD PUSH1 0x0 DUP2 MSTORE PUSH1 0x20 ADD PUSH1 0x0 DUP2 MSTORE PUSH1 0x20 ADD PUSH1 0x0 DUP2 MSTORE PUSH1 0x20 ADD PUSH1 0x0 DUP2 MSTORE PUSH1 0x20 ADD PUSH1 0x0 DUP2 MSTORE PUSH1 0x20 ADD PUSH1 0x0 DUP2 MSTORE PUSH1 0x20 ADD PUSH1 0x0 DUP2 MSTORE PUSH1 0x20 ADD PUSH1 0x0 ISZERO ISZERO DUP2 MSTORE PUSH1 0x20 ADD PUSH1 0x0 ISZERO ISZERO DUP2 MSTORE POP SWAP1 JUMP JUMPDEST PUSH1 0x40 MLOAD DUP1 PUSH2 0x120 ADD PUSH1 0x40 MSTORE DUP1 PUSH1 0x0 DUP2 MSTORE PUSH1 0x20 ADD PUSH1 0x60 DUP2 MSTORE PUSH1 0x20 ADD PUSH1 0x0 DUP2 MSTORE PUSH1 0x20 ADD PUSH1 0x0 PUSH1 0x1 PUSH1 0x1 PUSH1 0xA0 SHL SUB AND DUP2 MSTORE PUSH1 0x20 ADD PUSH1 0x0 PUSH1 0x1 PUSH1 0x1 PUSH1 0xA0 SHL SUB AND DUP2 MSTORE PUSH1 0x20 ADD PUSH1 0x0 ISZERO ISZERO DUP2 MSTORE PUSH1 0x20 ADD PUSH1 0x0 ISZERO ISZERO DUP2 MSTORE PUSH1 0x20 ADD PUSH1 0x0 DUP2 MSTORE PUSH1 0x20 ADD PUSH1 0x0 DUP2 MSTORE POP SWAP1 JUMP JUMPDEST PUSH1 0x40 MLOAD DUP1 PUSH1 0xC0 ADD PUSH1 0x40 MSTORE DUP1 PUSH1 0x0 DUP2 MSTORE PUSH1 0x20 ADD PUSH1 0x0 DUP2 MSTORE PUSH1 0x20 ADD PUSH1 0x0 PUSH1 0x1 PUSH1 0x1 PUSH1 0xA0 SHL SUB AND DUP2 MSTORE PUSH1 0x20 ADD PUSH1 0x0 DUP2 MSTORE PUSH1 0x20 ADD PUSH1 0x0 DUP2 MSTORE PUSH1 0x20 ADD PUSH1 0x0 ISZERO ISZERO DUP2 MSTORE POP SWAP1 JUMP JUMPDEST PUSH1 0x0 DUP2 MLOAD DUP1 DUP5 MSTORE PUSH1 0x0 JUMPDEST DUP2 DUP2 LT ISZERO PUSH2 0x3767 JUMPI PUSH1 0x20 DUP2 DUP6 ADD DUP2 ADD MLOAD DUP7 DUP4 ADD DUP3 ADD MSTORE ADD PUSH2 0x374B JUMP JUMPDEST POP PUSH1 0x0 PUSH1 0x20 DUP3 DUP7 ADD ADD MSTORE PUSH1 0x20 PUSH1 0x1F NOT PUSH1 0x1F DUP4 ADD AND DUP6 ADD ADD SWAP2 POP POP SWAP3 SWAP2 POP POP JUMP JUMPDEST PUSH1 0x0 PUSH2 0x1A0 DUP3 MLOAD DUP5 MSTORE PUSH1 0x20 DUP4 ADD MLOAD DUP2 PUSH1 0x20 DUP7 ADD MSTORE PUSH2 0x37A7 DUP3 DUP7 ADD DUP3 PUSH2 0x3741 JUMP JUMPDEST SWAP2 POP POP PUSH1 0x40 DUP4 ADD MLOAD DUP5 DUP3 SUB PUSH1 0x40 DUP7 ADD MSTORE PUSH2 0x37C1 DUP3 DUP3 PUSH2 0x3741 JUMP JUMPDEST SWAP2 POP POP PUSH1 0x60 DUP4 ADD MLOAD PUSH2 0x37DE PUSH1 0x60 DUP7 ADD DUP3 PUSH1 0x1 PUSH1 0x1 PUSH1 0xA0 SHL SUB AND SWAP1 MSTORE JUMP JUMPDEST POP PUSH1 0x80 DUP4 ADD MLOAD PUSH1 0x80 DUP6 ADD MSTORE PUSH1 0xA0 DUP4 ADD MLOAD PUSH1 0xA0 DUP6 ADD MSTORE PUSH1 0xC0 DUP4 ADD MLOAD PUSH1 0xC0 DUP6 ADD MSTORE PUSH1 0xE0 DUP4 ADD MLOAD PUSH1 0xE0 DUP6 ADD MSTORE PUSH2 0x100 DUP1 DUP5 ADD MLOAD DUP2 DUP7 ADD MSTORE POP PUSH2 0x120 DUP1 DUP5 ADD MLOAD DUP2 DUP7 ADD MSTORE POP PUSH2 0x140 DUP1 DUP5 ADD MLOAD DUP2 DUP7 ADD MSTORE POP PUSH2 0x160 DUP1 DUP5 ADD MLOAD PUSH2 0x383F DUP3 DUP8 ADD DUP3 ISZERO ISZERO SWAP1 MSTORE JUMP JUMPDEST POP POP PUSH2 0x180 SWAP3 DUP4 ADD MLOAD ISZERO ISZERO SWAP4 SWAP1 SWAP3 ADD SWAP3 SWAP1 SWAP3 MSTORE SWAP2 SWAP1 POP JUMP JUMPDEST PUSH1 0x0 PUSH1 0x20 DUP1 DUP4 ADD DUP2 DUP5 MSTORE DUP1 DUP6 MLOAD DUP1 DUP4 MSTORE PUSH1 0x40 DUP7 ADD SWAP2 POP PUSH1 0x40 DUP2 PUSH1 0x5 SHL DUP8 ADD ADD SWAP3 POP DUP4 DUP8 ADD PUSH1 0x0 JUMPDEST DUP3 DUP2 LT ISZERO PUSH2 0x38AC JUMPI PUSH1 0x3F NOT DUP9 DUP7 SUB ADD DUP5 MSTORE PUSH2 0x389A DUP6 DUP4 MLOAD PUSH2 0x3787 JUMP JUMPDEST SWAP5 POP SWAP3 DUP6 ADD SWAP3 SWAP1 DUP6 ADD SWAP1 PUSH1 0x1 ADD PUSH2 0x387E JUMP JUMPDEST POP SWAP3 SWAP8 SWAP7 POP POP POP POP POP POP POP JUMP JUMPDEST PUSH1 0x0 PUSH1 0x20 DUP3 DUP5 SUB SLT ISZERO PUSH2 0x38CB JUMPI PUSH1 0x0 DUP1 REVERT JUMPDEST POP CALLDATALOAD SWAP2 SWAP1 POP JUMP JUMPDEST PUSH1 0x0 PUSH1 0x20 DUP1 DUP4 ADD DUP2 DUP5 MSTORE DUP1 DUP6 MLOAD DUP1 DUP4 MSTORE PUSH1 0x40 SWAP3 POP DUP3 DUP7 ADD SWAP2 POP DUP3 DUP2 PUSH1 0x5 SHL DUP8 ADD ADD DUP5 DUP9 ADD PUSH1 0x0 JUMPDEST DUP4 DUP2 LT ISZERO PUSH2 0x39A0 JUMPI PUSH1 0x3F NOT DUP10 DUP5 SUB ADD DUP6 MSTORE DUP2 MLOAD PUSH2 0x120 DUP2 MLOAD DUP6 MSTORE DUP9 DUP3 ADD MLOAD DUP2 DUP11 DUP8 ADD MSTORE PUSH2 0x3928 DUP3 DUP8 ADD DUP3 PUSH2 0x3741 JUMP JUMPDEST SWAP2 POP POP DUP8 DUP3 ADD MLOAD DUP9 DUP7 ADD MSTORE PUSH1 0x60 DUP1 DUP4 ADD MLOAD PUSH2 0x394D DUP3 DUP9 ADD DUP3 PUSH1 0x1 PUSH1 0x1 PUSH1 0xA0 SHL SUB AND SWAP1 MSTORE JUMP JUMPDEST POP POP PUSH1 0x80 DUP3 DUP2 ADD MLOAD PUSH1 0x1 PUSH1 0x1 PUSH1 0xA0 SHL SUB AND SWAP1 DUP7 ADD MSTORE PUSH1 0xA0 DUP1 DUP4 ADD MLOAD ISZERO ISZERO SWAP1 DUP7 ADD MSTORE PUSH1 0xC0 DUP1 DUP4 ADD MLOAD ISZERO ISZERO SWAP1 DUP7 ADD MSTORE PUSH1 0xE0 DUP1 DUP4 ADD MLOAD SWAP1 DUP7 ADD MSTORE PUSH2 0x100 SWAP2 DUP3 ADD MLOAD SWAP2 SWAP1 SWAP5 ADD MSTORE SWAP4 DUP7 ADD SWAP4 SWAP1 DUP7 ADD SWAP1 PUSH1 0x1 ADD PUSH2 0x38F9 JUMP JUMPDEST POP SWAP1 SWAP9 SWAP8 POP POP POP POP POP POP POP POP JUMP JUMPDEST PUSH1 0x20 DUP2 MSTORE PUSH1 0x0 PUSH2 0x32C2 PUSH1 0x20 DUP4 ADD DUP5 PUSH2 0x3741 JUMP JUMPDEST DUP1 CALLDATALOAD PUSH1 0x1 PUSH1 0x1 PUSH1 0xA0 SHL SUB DUP2 AND DUP2 EQ PUSH2 0x39D8 JUMPI PUSH1 0x0 DUP1 REVERT JUMPDEST SWAP2 SWAP1 POP JUMP JUMPDEST PUSH1 0x0 DUP1 PUSH1 0x40 DUP4 DUP6 SUB SLT ISZERO PUSH2 0x39F0 JUMPI PUSH1 0x0 DUP1 REVERT JUMPDEST PUSH2 0x39F9 DUP4 PUSH2 0x39C1 JUMP JUMPDEST SWAP5 PUSH1 0x20 SWAP4 SWAP1 SWAP4 ADD CALLDATALOAD SWAP4 POP POP POP JUMP JUMPDEST PUSH4 0x4E487B71 PUSH1 0xE0 SHL PUSH1 0x0 MSTORE PUSH1 0x41 PUSH1 0x4 MSTORE PUSH1 0x24 PUSH1 0x0 REVERT JUMPDEST PUSH1 0x0 DUP3 PUSH1 0x1F DUP4 ADD SLT PUSH2 0x3A2E JUMPI PUSH1 0x0 DUP1 REVERT JUMPDEST DUP2 CALLDATALOAD PUSH8 0xFFFFFFFFFFFFFFFF DUP1 DUP3 GT ISZERO PUSH2 0x3A49 JUMPI PUSH2 0x3A49 PUSH2 0x3A07 JUMP JUMPDEST PUSH1 0x40 MLOAD PUSH1 0x1F DUP4 ADD PUSH1 0x1F NOT SWAP1 DUP2 AND PUSH1 0x3F ADD AND DUP2 ADD SWAP1 DUP3 DUP3 GT DUP2 DUP4 LT OR ISZERO PUSH2 0x3A71 JUMPI PUSH2 0x3A71 PUSH2 0x3A07 JUMP JUMPDEST DUP2 PUSH1 0x40 MSTORE DUP4 DUP2 MSTORE DUP7 PUSH1 0x20 DUP6 DUP9 ADD ADD GT ISZERO PUSH2 0x3A8A JUMPI PUSH1 0x0 DUP1 REVERT JUMPDEST DUP4 PUSH1 0x20 DUP8 ADD PUSH1 0x20 DUP4 ADD CALLDATACOPY PUSH1 0x0 PUSH1 0x20 DUP6 DUP4 ADD ADD MSTORE DUP1 SWAP5 POP POP POP POP POP SWAP3 SWAP2 POP POP JUMP JUMPDEST PUSH1 0x0 DUP1 PUSH1 0x0 DUP1 PUSH1 0x0 DUP1 PUSH1 0xC0 DUP8 DUP10 SUB SLT ISZERO PUSH2 0x3AC3 JUMPI PUSH1 0x0 DUP1 REVERT JUMPDEST DUP7 CALLDATALOAD PUSH8 0xFFFFFFFFFFFFFFFF DUP1 DUP3 GT ISZERO PUSH2 0x3ADB JUMPI PUSH1 0x0 DUP1 REVERT JUMPDEST PUSH2 0x3AE7 DUP11 DUP4 DUP12 ADD PUSH2 0x3A1D JUMP JUMPDEST SWAP8 POP PUSH1 0x20 DUP10 ADD CALLDATALOAD SWAP2 POP DUP1 DUP3 GT ISZERO PUSH2 0x3AFD JUMPI PUSH1 0x0 DUP1 REVERT JUMPDEST POP PUSH2 0x3B0A DUP10 DUP3 DUP11 ADD PUSH2 0x3A1D JUMP JUMPDEST SWAP7 SWAP10 SWAP7 SWAP9 POP POP POP POP PUSH1 0x40 DUP6 ADD CALLDATALOAD SWAP5 PUSH1 0x60 DUP2 ADD CALLDATALOAD SWAP5 PUSH1 0x80 DUP3 ADD CALLDATALOAD SWAP5 POP PUSH1 0xA0 SWAP1 SWAP2 ADD CALLDATALOAD SWAP3 POP SWAP1 POP JUMP JUMPDEST PUSH1 0x0 DUP1 PUSH1 0x0 PUSH1 0x60 DUP5 DUP7 SUB SLT ISZERO PUSH2 0x3B46 JUMPI PUSH1 0x0 DUP1 REVERT JUMPDEST PUSH2 0x3B4F DUP5 PUSH2 0x39C1 JUMP JUMPDEST SWAP3 POP PUSH2 0x3B5D PUSH1 0x20 DUP6 ADD PUSH2 0x39C1 JUMP JUMPDEST SWAP2 POP PUSH1 0x40 DUP5 ADD CALLDATALOAD SWAP1 POP SWAP3 POP SWAP3 POP SWAP3 JUMP JUMPDEST PUSH1 0x0 DUP1 PUSH1 0x40 DUP4 DUP6 SUB SLT ISZERO PUSH2 0x3B80 JUMPI PUSH1 0x0 DUP1 REVERT JUMPDEST POP POP DUP1 CALLDATALOAD SWAP3 PUSH1 0x20 SWAP1 SWAP2 ADD CALLDATALOAD SWAP2 POP JUMP JUMPDEST PUSH1 0x0 DUP1 PUSH1 0x0 PUSH1 0x60 DUP5 DUP7 SUB SLT ISZERO PUSH2 0x3BA4 JUMPI PUSH1 0x0 DUP1 REVERT JUMPDEST POP POP DUP2 CALLDATALOAD SWAP4 PUSH1 0x20 DUP4 ADD CALLDATALOAD SWAP4 POP PUSH1 0x40 SWAP1 SWAP3 ADD CALLDATALOAD SWAP2 SWAP1 POP JUMP JUMPDEST PUSH1 0x0 PUSH1 0x20 DUP3 DUP5 SUB SLT ISZERO PUSH2 0x3BCD JUMPI PUSH1 0x0 DUP1 REVERT JUMPDEST PUSH2 0x32C2 DUP3 PUSH2 0x39C1 JUMP JUMPDEST PUSH1 0x20 DUP1 DUP3 MSTORE DUP3 MLOAD DUP3 DUP3 ADD DUP2 SWAP1 MSTORE PUSH1 0x0 SWAP2 SWAP1 PUSH1 0x40 SWAP1 DUP2 DUP6 ADD SWAP1 DUP7 DUP5 ADD DUP6 JUMPDEST DUP3 DUP2 LT ISZERO PUSH2 0x3C4C JUMPI DUP2 MLOAD DUP1 MLOAD DUP6 MSTORE DUP7 DUP2 ADD MLOAD DUP8 DUP7 ADD MSTORE DUP6 DUP2 ADD MLOAD PUSH1 0x1 PUSH1 0x1 PUSH1 0xA0 SHL SUB AND DUP7 DUP7 ADD MSTORE PUSH1 0x60 DUP1 DUP3 ADD MLOAD SWAP1 DUP7 ADD MSTORE PUSH1 0x80 DUP1 DUP3 ADD MLOAD SWAP1 DUP7 ADD MSTORE PUSH1 0xA0 SWAP1 DUP2 ADD MLOAD ISZERO ISZERO SWAP1 DUP6 ADD MSTORE PUSH1 0xC0 SWAP1 SWAP4 ADD SWAP3 SWAP1 DUP6 ADD SWAP1 PUSH1 0x1 ADD PUSH2 0x3BF3 JUMP JUMPDEST POP SWAP2 SWAP8 SWAP7 POP POP POP POP POP POP POP JUMP JUMPDEST PUSH1 0x20 DUP2 MSTORE PUSH1 0x0 PUSH2 0x32C2 PUSH1 0x20 DUP4 ADD DUP5 PUSH2 0x3787 JUMP JUMPDEST PUSH1 0x0 DUP1 PUSH1 0x40 DUP4 DUP6 SUB SLT ISZERO PUSH2 0x3C7F JUMPI PUSH1 0x0 DUP1 REVERT JUMPDEST PUSH2 0x3C88 DUP4 PUSH2 0x39C1 JUMP JUMPDEST SWAP2 POP PUSH2 0x3C96 PUSH1 0x20 DUP5 ADD PUSH2 0x39C1 JUMP JUMPDEST SWAP1 POP SWAP3 POP SWAP3 SWAP1 POP JUMP JUMPDEST PUSH4 0x4E487B71 PUSH1 0xE0 SHL PUSH1 0x0 MSTORE PUSH1 0x11 PUSH1 0x4 MSTORE PUSH1 0x24 PUSH1 0x0 REVERT JUMPDEST PUSH1 0x0 PUSH1 0x1 DUP3 ADD PUSH2 0x3CC7 JUMPI PUSH2 0x3CC7 PUSH2 0x3C9F JUMP JUMPDEST POP PUSH1 0x1 ADD SWAP1 JUMP JUMPDEST PUSH1 0x1 DUP2 DUP2 SHR SWAP1 DUP3 AND DUP1 PUSH2 0x3CE2 JUMPI PUSH1 0x7F DUP3 AND SWAP2 POP JUMPDEST PUSH1 0x20 DUP3 LT DUP2 SUB PUSH2 0x3D02 JUMPI PUSH4 0x4E487B71 PUSH1 0xE0 SHL PUSH1 0x0 MSTORE PUSH1 0x22 PUSH1 0x4 MSTORE PUSH1 0x24 PUSH1 0x0 REVERT JUMPDEST POP SWAP2 SWAP1 POP JUMP JUMPDEST PUSH4 0x4E487B71 PUSH1 0xE0 SHL PUSH1 0x0 MSTORE PUSH1 0x32 PUSH1 0x4 MSTORE PUSH1 0x24 PUSH1 0x0 REVERT JUMPDEST PUSH1 0x1F DUP3 GT ISZERO PUSH2 0x31AE JUMPI PUSH1 0x0 DUP2 DUP2 MSTORE PUSH1 0x20 DUP2 KECCAK256 PUSH1 0x1F DUP6 ADD PUSH1 0x5 SHR DUP2 ADD PUSH1 0x20 DUP7 LT ISZERO PUSH2 0x3D45 JUMPI POP DUP1 JUMPDEST PUSH1 0x1F DUP6 ADD PUSH1 0x5 SHR DUP3 ADD SWAP2 POP JUMPDEST DUP2 DUP2 LT ISZERO PUSH2 0x3D64 JUMPI DUP3 DUP2 SSTORE PUSH1 0x1 ADD PUSH2 0x3D51 JUMP JUMPDEST POP POP POP POP POP POP JUMP JUMPDEST DUP2 MLOAD PUSH8 0xFFFFFFFFFFFFFFFF DUP2 GT ISZERO PUSH2 0x3D86 JUMPI PUSH2 0x3D86 PUSH2 0x3A07 JUMP JUMPDEST PUSH2 0x3D9A DUP2 PUSH2 0x3D94 DUP5 SLOAD PUSH2 0x3CCE JUMP JUMPDEST DUP5 PUSH2 0x3D1E JUMP JUMPDEST PUSH1 0x20 DUP1 PUSH1 0x1F DUP4 GT PUSH1 0x1 DUP2 EQ PUSH2 0x3DCF JUMPI PUSH1 0x0 DUP5 ISZERO PUSH2 0x3DB7 JUMPI POP DUP6 DUP4 ADD MLOAD JUMPDEST PUSH1 0x0 NOT PUSH1 0x3 DUP7 SWAP1 SHL SHR NOT AND PUSH1 0x1 DUP6 SWAP1 SHL OR DUP6 SSTORE PUSH2 0x3D64 JUMP JUMPDEST PUSH1 0x0 DUP6 DUP2 MSTORE PUSH1 0x20 DUP2 KECCAK256 PUSH1 0x1F NOT DUP7 AND SWAP2 JUMPDEST DUP3 DUP2 LT ISZERO PUSH2 0x3DFE JUMPI DUP9 DUP7 ADD MLOAD DUP3 SSTORE SWAP5 DUP5 ADD SWAP5 PUSH1 0x1 SWAP1 SWAP2 ADD SWAP1 DUP5 ADD PUSH2 0x3DDF JUMP JUMPDEST POP DUP6 DUP3 LT ISZERO PUSH2 0x3E1C JUMPI DUP8 DUP6 ADD MLOAD PUSH1 0x0 NOT PUSH1 0x3 DUP9 SWAP1 SHL PUSH1 0xF8 AND SHR NOT AND DUP2 SSTORE JUMPDEST POP POP POP POP POP PUSH1 0x1 SWAP1 DUP2 SHL ADD SWAP1 SSTORE POP JUMP JUMPDEST PUSH1 0x20 DUP1 DUP3 MSTORE PUSH1 0xE SWAP1 DUP3 ADD MSTORE PUSH14 0x11D85B59481B9BDD08199BDD5B99 PUSH1 0x92 SHL PUSH1 0x40 DUP3 ADD MSTORE PUSH1 0x60 ADD SWAP1 JUMP JUMPDEST PUSH1 0x20 DUP1 DUP3 MSTORE PUSH1 0x13 SWAP1 DUP3 ADD MSTORE PUSH19 0x556E617574686F72697A656420656E74697479 PUSH1 0x68 SHL PUSH1 0x40 DUP3 ADD MSTORE PUSH1 0x60 ADD SWAP1 JUMP JUMPDEST PUSH4 0x4E487B71 PUSH1 0xE0 SHL PUSH1 0x0 MSTORE PUSH1 0x31 PUSH1 0x4 MSTORE PUSH1 0x24 PUSH1 0x0 REVERT JUMPDEST DUP1 DUP3 ADD DUP1 DUP3 GT ISZERO PUSH2 0xA9D JUMPI PUSH2 0xA9D PUSH2 0x3C9F JUMP JUMPDEST DUP1 DUP3 MUL DUP2 ISZERO DUP3 DUP3 DIV DUP5 EQ OR PUSH2 0xA9D JUMPI PUSH2 0xA9D PUSH2 0x3C9F JUMP JUMPDEST PUSH1 0x0 DUP3 PUSH2 0x3EDE JUMPI PUSH4 0x4E487B71 PUSH1 0xE0 SHL PUSH1 0x0 MSTORE PUSH1 0x12 PUSH1 0x4 MSTORE PUSH1 0x24 PUSH1 0x0 REVERT JUMPDEST POP DIV SWAP1 JUMP JUMPDEST DUP2 DUP2 SUB DUP2 DUP2 GT ISZERO PUSH2 0xA9D JUMPI PUSH2 0xA9D PUSH2 0x3C9F JUMP INVALID LOG2 PUSH5 0x6970667358 0x22 SLT KECCAK256 DUP6 PUSH24 0x28C79AADA5A83A5040D3562FB53C3456473EBFB4F5AA9580 DUP13 0x2C 0xD1 PUSH2 0x3E0C PUSH5 0x736F6C6343 STOP ADDMOD GT STOP CALLER "},"methodIdentifiers":{"acceptInvitation(uint256,uint256)":"7a2f2136","allowance(address,address)":"dd62ed3e","approve(address,uint256)":"095ea7b3","balanceOf(address)":"70a08231","createGame(string,string,uint256,uint256,uint256,uint256)":"1eb4a1e5","decimals()":"313ce567","decreaseAllowance(address,uint256)":"a457c2d7","deleteGame(uint256)":"248a55a1","getGame(uint256)":"a2f77bcc","getGames()":"c04c5947","getInvitations(uint256)":"a09621c7","getMyGames()":"0210d751","getMyInvitations()":"90d559a7","getPaidOutGames()":"872ff923","getScores(uint256)":"04527d90","increaseAllowance(address,uint256)":"39509351","invitePlayer(address,uint256)":"2246fe0b","name()":"06fdde03","owner()":"8da5cb5b","payOut(uint256)":"da333ca6","playGame(uint256,uint256,uint256)":"5d12ace4","rejectInvitation(uint256,uint256)":"39bd3bbb","renounceOwnership()":"715018a6","setFeePercent(uint256)":"7ce3489b","symbol()":"95d89b41","totalSupply()":"18160ddd","transfer(address,uint256)":"a9059cbb","transferFrom(address,address,uint256)":"23b872dd","transferOwnership(address)":"f2fde38b"}}}}}